0179I Following is a set of records pertinent to the General Election held on Tuesday, November 4, 2014, originated at Suffolk County Board of Elections on December 8, 2014 at 3:03 PM
0064RGovernor and Lieutenant Governor        N     1052090196301
0044CAstorino, Rob            REP 122129 1B 
0044CAstorino, Rob            CON 027550 1C 
0044CAstorino, Rob            SCC 006672 1I 
0044CCohn, Steven             SAP 000393 1H 
0044CCuomo, Andrew M          DEM 133673 1A 
0044CCuomo, Andrew M          WOR 007514 1D 
0044CCuomo, Andrew M          IND 007163 1E 
0044CCuomo, Andrew M          WEQ 006681 1G 
0044CHawkins, Howie           GRE 010327 1F 
0044CMc Dermott, Michael      LBT 001216 2I 
0092E0001P0597000307              11 1 2  00150020000083001700050000015100080007000400130002
0092E0002P0557000293              11 1 2  00250010000077002100020001013200070012000900050001
0092E0003P0498000276              11 1 2  00110010000082002200010000012100090007000800130001
0092E0004P0546000304              11 1 2  00210000000083001300000000015600080007000100150000
0092E1001P1133000503              12 4 5 100220010040163003600090000020000130010001300320000
0092E1002P1141000573              12 4 5 100230000000192003400100001025800130011000700220002
0092E1003P0978000440              12 4 5 100200030000141003000090000018900130004000800230000
0092E1004P0642000254              12 4 5 100110000010070001500070000010500110004000700220001
0092E1005P0990000503              11 4 5 100180010010176002100080000021300170011000600280003
0092E1006P1491000669              11 4 5 100310020000229005100120000027600130006002000270002
0092E1007P0578000236              11 4 5 100070000000091002400060000007700060010000400100001
0092E1008P0888000412              11 2 6 200120000020170003100110001013200100011000900230000
0092E1009P1526000665              11 2 1 600160020000274007400110001023500090014001500120002
0092E1010P1503000640              11 3 3 400180000000231006700130001024500120007001200330001
0092E1011P1495000562              13 3 7 500320010010246004200150001017500110011000700190001
0092E1012P1081000412              12 512 300160000020154002500070000017200040005001300130001
0092E1013P0525000219              13 5 4 500050020000095002200040002007200030002000300080001
0092E1014P0842000453              13 7 7 500300000000180003600060000016700070011000300110002
0092E1015P0959000342              13 7 7 500100000010108002000070001014700150011000600140002
0092E1016P1060000399              13 7 7 500220000020120002000020000018200150014000800140000
0092E1017P0602000291              13 7 7 500140000010098001300020000011800120001001200180002
0092E1018P0171000076              13 7 7 500050000000024000400020000003800010001000000010000
0092E1019P0935000381              13 7 7 500090000010112002700070000014300170023001200250005
0092E1020P0842000388              13 7 7 500180000000122003100160000015100060013000700230001
0092E1021P0234000060              13 7 7 500030010000012000200010000003500000001000200020001
0092E1022P0601000251              13 7 7 500090000000094001300080000009500080006000400130001
0092E1023P0483000180              13 7 7 500120000000036002000070000007200050004000600160002
0092E1024P0428000175              13 7 7 500030000000062001000070000006200110003000800070002
0092E1025P1128000436              13 7 7 500260010020148002900120000016600120014001000160000
0092E1026P0506000116              13 3 3 400070020000011000400020000007700030002000600020000
0092E1027P0508000265              13 3 3 400080000010073001200020000013400150004000700090000
0092E1028P1069000496              13 3 3 400220020020175003100060001019300160009001000270002
0092E1029P1017000538              11 1 3 600260010010236004800080000018300050012001100060001
0092E1030P0715000293              11 1 1 600140020000102002300040000012200070012000400030000
0092E1031P1114000519              11 1 1 600170040030212004900130000016300100012001300210002
0092E1032P0484000193              11 1 2 600090020000086002100060000005400050001000300050001
0092E1033P1401000463              11 4 6 400110000010155003700130000020700120010000200140001
0092E1034P1284000470              13 5 8 500160030000182003300130001017800110009001100110002
0092E1035P1336000507              11 2 6 200130010000205006300170000014800080012001100270002
0092E1036P1137000352              12 4 4 300020020000124002500100002015500110005000500090002
0092E1037P0945000387              11 2 6 200130010000144005200080000012800090008000900140001
0092E1038P1104000346              13 3 3 600180000000131004000070000012000120007000400050002
0092E1039P1809000712              11 1 1 600290030010267007300130000024300190012002800230001
0092E1040P1504000552              11 2 1 200130000010253007100120000015400130012000500170001
0092E1041P1787000678              13 5 7 500320000000214006600260000026900240010001100220004
0092E1042P0915000281              13 3 3 600120030000095003300050001009600140006000600100000
0092E1043P0894000311              13 5 4 300090000010116002400050001011800110009000400120001
0092E1044P0693000251              13 510 500110010000086003100140000009200040003000100050003
0092E1045P0423000194              13 3 7 500040000000076002900030000006300020009000400040000
0092E1046P1385000602              13 3 3 400200010010176005000110001027600210010001400200001
0092E1047P1339000451              11 2 6 200150000020174003800070000015600120008000800290002
0092E1048P0898000440              13 7 8 500310020010156002900060001016300070018000800180000
0092E1049P1035000402              13 3 7 500140010000155003300030000016500090007000400110000
0092E1050P0914000260              12 5 4 300080000000105001700090000009700040003000500090003
0092E1051P0610000257              13 3 7 500140000000117001600040001008200070006000400060000
0092E1052P0915000403              13 3 7 500150000010147002700130001015600120005000900140003
0092E1053P1188000363              13 3 3 400140030010146003400080000013200070006000400070001
0092E1054P0627000224              12 5 4 300090000000093002200150000006200060004000400080001
0092E1055P0707000212              12 3 4 300060000010077002400070000006900100007000400070000
0092E1056P1369000495              12 512 300280000020204005100120001014400110004001200220004
0092E1057P0185000089              13 7 8 500030010000016000500000000005100030001000700020000
0092E1058P1056000389              13 5 4 500100000000143003300150000015100110004000900110002
0092E1059P0451000151              12 5 4 300020000000042002300050002005800060009000000040000
0092E1060P0974000445              12 4 5 100180000000108002600080000020200260008001600300003
0092E1061P0609000298              12 4 5 100170000000103001500020000012500070007001200100000
0092E1062P0853000304              12 4 5 100060030000119002700050002011300090007000200100001
0092E1063P1622000696              11 2 6 200230020010323005600180001020500080012001800250004
0092E1064P1336000354              13 3 7 400120040000079001700070001020000110004000600120001
0092E1065P1285000476              11 2 6 400190010000184004000110000016700210008001000090006
0092E1066P0947000379              11 2 6 200100000000137004400120000012100090012001000220002
0092E1067P0714000354              13 3 3 400150030000115001600130001014000170006000900190000
0092E1068P1034000369              11 2 6 200120020000150004600150000011700060008000100090003
0092E1069P1028000477              13 3 7 500240010000200004400120000014800150010000600150002
0092E1070P1097000425              12 512 300300010000165003300060000014900120006001000120001
0092E1071P0941000326              12 5 4 300090000000108003800080000013200090008000300110000
0092E1072P1170000395              13 1 3 600140030000158003000100000013400180016000400080000
0092E1073P1623000745              11 1 3 600370020000325005600160002023700150013001600240002
0092E1074P1221000394              13 3 7 500150000010148003600110001013600150005000600180002
0092E1075P0643000219              12 4 4 300080000000071001900050000009900040006000400030000
0092E1076P1016000289              12 5 4 300110000000115003800090001008400100008000800050000
0092E1077P0782000295              13 5 4 500170000000105002600050000011400070005000500080003
0092E1078P1022000372              13 5 4 300240000000160003400070000012900050003000400060000
0092E1079P1577000512              13 3 3 600320010010182004500180000017400260007001200120002
0092E1080P1354000476              13 3 3 600210010000189003700100000016300140014001300120002
0092E1081P0682000223              13 510 500090010000088001200080002008400060005000200060000
0092E1082P1212000516              13 3 7 500200060010165004100100000023200070015000400120003
0092E1083P0829000299              12 5 4 300160010000113003000120000008900030009000900160001
0092E1084P0053000019              13 2 3 600010000000009000200020000000300000000000000020000
0092E1085P0229000087              13 3 4 300030000000024000500010000004600030004000100000000
0092E1086P0740000353              12 4 5 100080000000120001600040001015600100006001500160001
0092E1087P0973000414              12 4 5 100190000000137003400090000017200100011000400170001
0092E1088P0534000177              11 4 5 100100010010057001300050000006800060003000400080001
0092E1089P1416000676              12 4 5 100240010010238005500180001028000100013000600260003
0092E1090P0948000350              12 4 5 100100000000129001900040001013600120008001200180001
0092E1091P0643000264              11 4 5 100090000000103002000060001009400060007000800080002
0092E1092P1613000515              12 512 300200000000185004300150000019400130011001200180004
0092E1093P1030000481              11 2 6 200140000000192004300090000017300120005001200180003
0092E1094P0723000220              12 4 4 300120000000078002800040001008700030003000300010000
0092E1095P0843000311              12 4 5 100090000000095002000070000013400120005000700210001
0092E1096P0850000250              11 3 7 400130010010069001800030000011700060003000100170001
0092E1097P1449000443              11 3 7 400180020000150004100090000018400170005000300130001
0092E1098P1706000650              11 2 6 200230010000300005700130000018300080016001500330001
0092E1099P1389000510              12 4 4 300320010020175005700170000018800100004000800120004
0092E1100P1391000478              12 5 4 300180000010162004000190001017900100010001200240002
0092E1101P0915000434              12 4 5 100150010010095002500060000022500170007002000200002
0092E1102P1043000498              12 4 5 100190000000173004100060001021300080007001000170003
0092E1103P0709000331              13 7 7 500190010000122003200060003011200050011000500130002
0092E1104P1397000367              13 1 3 600160000000141003300060002012900160008000800080000
0092E1105P0584000246              12 512 300120000000109001400040000008300060001000700080002
0092E1106P0850000297              13 5 4 500100000000119002700130002010000010006000600120001
0092E1107P1125000409              13 5 8 500160000000182004200090000012600090009000600090001
0092E1108P0972000396              12 4 5 100190000000148003700110000014000080006001000160001
0092E1109P0851000316              12 4 4 300150000010104003100040000013300040008000400100002
0092E1110P0986000336              12 4 5 100090000000101003000070000014600090009000500190001
0092E1111P0935000432              12 4 5 100160000000157003400120002015600070003001100310003
0092E1112P0616000271              12 5 5 100080000000113002100000000010500060005000500080000
0092E1113P0295000106              11 3 1 600070000010027001700020000004000010002000200060001
0092E1114P1002000439              13 7 8 500220000000164003000140000015100130012000600220005
0092E1115P0744000280              13 3 7 500180000000093002900070000012100030003000000030003
0092E1116P1687000568              12 4 5 100220000010201004100110000022800110017001400200002
0092E1117P0628000315              11 4 5 100160020020120001800040000012100040010000400140000
0092E1118P0709000251              11 4 5 100080000000089001800040000010000100009000500080000
0092E1119P0993000374              13 3 7 500320000000137003900080000012600090004000800110000
0092E1120P1263000644              12 3 4 400270010000205004200090000029900110009002500160000
0092E1121P1623000620              12 4 5 100290000020220005000060001025400090010001400220003
0092E1122P1408000582              11 2 6 200180020010249006300150001018800130014000500130000
0092E1123P0784000397              13 3 3 400230000000128002100050000017000170010000600150002
0092E1124P1423000520              12 5 4 300090000000232004900100001018100060012000700110002
0092E1125P0910000279              12 5 4 300040000000107002100100000011300050005000600080000
0092E1126P1361000502              12 512 300150010000197006800060000017900140004000500120001
0092E1127P0768000215              12 4 4 300090030000086001200030000008100060007000300050000
0092E1128P1130000350              11 3 7 400180040000103002200070000017700070004000200050001
0092E1129P0790000378              12 4 5 100210000010133003000030000015700070006000500130002
0092E1130P0589000237              12 4 4 200070000000088002800080000008000050008000400090000
0092E1131P0731000331              13 3 7 500160000000130002100070000012100120005000500130001
0092E1132P1576000527              12 5 4 300160000000208006600160001015900100009001400250003
0092E1133P0887000317              12 3 4 400150010000125003500070000010800060005000700080000
0092E1134P1013000438              11 4 5 100200000010155003800060000017500110006000700150004
0092E1135P1288000538              11 2 6 200200030020237006300220001014600070006000500220004
0092E1136P1189000503              11 2 6 200180010000195004100150000019500130008000200140001
0092E1137P1405000377              11 4 7 400280000000030000100010000030000090003000100040000
0092E1138P2589000849              13 3 8 500350050000336008300180000032400130011000500170002
0092E1139P2001000547              13 3 3 600290020000194004700170000021300150006000800150001
0092E1140P1301000457              11 4 6 100070000010180005200110002015100040009001100250004
0092E1141P1019000385              11 2 1 600140000000164004300060001012400110008000100110002
0092E1142P1354000533              12 512 300150020000215005500090001019600110011000300140001
0092E1143P0868000331              11 4 5 100140000000117003300040003013100040003001100080003
0092E1144P0847000284              13 3 7 500200030000081001700080000013500090005000500010000
0092E1145P1180000398              13 5 4 300140060000171004000110000012000100011000400100001
0092E1146P0623000252              12 4 4 100080000000108001700030000009200120006000300020001
0092E1147P1855000671              12 4 5 200150000000224006500120000028100150016001400260003
0092E1148P1190000571              12 4 5 100220020000167003200080001026200200009001100350002
0092E1149P0832000284              13 3 7 400150000000090002200040001012200100010000300060001
0092E1150P0936000319              13 3 3 400110000000107002500060001013400060010000900100000
0092E1151P0983000463              11 1 1 600170010000224004400090000012600090008000900140002
0092E1152P1731000565              12 5 4 300210000000204005700210001020100130009001000240004
0092E1153P0774000311              11 2 6 200120000010093002900070001011300070006001400280000
0092E1154P0842000422              11 1 1 600120000010174003700140000015100070009000700090001
0092E1155P0832000300              13 7 7 500050000000101002300140001013100060006000300060004
0092E1156P0946000282              13 3 3 600060000000105003200120002009000080006001000100001
0092E1157P2240000684              12 3 4 300170010010261006600180000023700270011001700250003
0092E1158P0626000217              12 512 300050010000094001600060001008300000003000300050000
0092E1159P1252000470              11 2 6 200110010000199003100110000015000130012001000300002
0092E1160P1219000339              13 1 3 600120000000126002400120000011700190010000500120002
0092E1161P0815000335              12 4 5 100060010000117002100070002014600070001000600190002
0092E1162P0516000170              12 5 4 300100020000056001400020001006300060005000300070001
0092E1163P1001000401              12 4 5 100150000000139003500110000014800100012000800210002
0092E1164P1357000486              13 5 8 500190020000197004800090000016500130014000600110002
0092E1165P1156000514              12 4 5 100170000000185003300150000020100120010000900310001
0092E1166P1652000692              12 4 5 100230000000233005300130000028400200011001200380005
0092E1167P0766000440              11 2 6 200210010000159003200010000020100030011000800010002
0092E1168P0873000355              11 4 6 200170010000112002500070000015500080010000500140001
0092E1169P1891000617              11 4 6 200190020010211005000080000027900090008000800190003
0092E1170P0724000300              12 4 5 100150000000118002800050000010600060006000400110001
0092E1171P0842000395              13 7 7 500200000010142002400140000013800070019000700220001
0092E1172P0428000145              13 512 300040010000048001600050000005300090003000200030001
0092E1173P0725000378              13 3 7 500160000000163002700040000013000040017000900080000
0092E1174P1007000389              13 5 4 500120030000155003000070001014900100005000700080002
0092E1175P1066000375              12 5 4 300130010000152003800110000013100080006000300110001
0092E1176P0953000368              13 5 4 300140020000167002300100001012000030011000400130000
0092E1177P0672000352              12 4 5 100130000010108002100030001013800180007001000320000
0092E1178P0929000354              11 4 5 100120020000114003200050001015300080005000800120002
0092E1179P1840000696              12 512 300200020010281005500280000024900190009001200150005
0092E1180P1067000381              12 4 4 300250000000145002900090002013600110003000600140001
0092E1181P0383000240              11 2 6 200200000000086001100010000010700020006000200050000
0092E1182P0097000036              11 4 5 200010000000015000200010000001100020002000000020000
0092E1183P0603000216              13 5 4 500040000000091002600040000006900030004000700050003
0092E1184P0940000244              11 1 3 600140000000075002000030001009600130001001000080003
0092E1185P0546000180              11 2 6 200010020000072000900050000006900050005000400070001
0092E1186P0805000274              13 5 4 300090010000106002600080000009600050007000300110002
0092E1187P1274000422              11 2 6 200110000000144004400110000015100150015001100170003
0092E1188P1032000458              11 2 6 200250010010163004000180000015700130007000700250001
0092E1189P1288000458              11 2 6 200110020000165004000170000016200150015000700220002
0092E1190P0694000351              11 2 6 200130010000106003400090000013900080006001400200001
0092E1191P0571000238              12 4 5 100070010000091001400060000010000020001000800080000
0092E1192P1512000541              11 3 7 400300010010131004500020000026800130020000700200003
0092E1193P1276000608              11 2 6 200210010000255006900200002017400090019001600210001
0092E1194P0638000302              13 3 7 400140000000100003400070000012500070006000600030000
0092E1195P0951000429              11 2 6 200170010000180003700050000014800080006000600200001
0092E1196P1393000536              13 3 7 500180010010206005100180002019100120011001200120001
0092E1197P0396000239              11 2 6 200090010000072002300010001011500030004000400030003
0092E1198P0878000493              11 2 6 400320030000184003700010000021500000008000900040000
0092E1199P0482000180              11 2 6 400080000000062001400060001007400050004000100050000
0092E1200P1027000300              11 4 7 400160000000026000400030000023400060008000200010000
0092E1201P1812000817              11 4 6 200250010010318007500200000032000090020001400110003
0092E1202P0677000210              11 4 6 200050030020079002200060000007100060005000600040001
0092E1203P0561000218              11 2 1 600120000000096002900060000005200050006000300060003
0092E1204P0950000282              13 1 3 600120000000116003300180000008700040004000100070000
0092E1205P1398000500              11 4 5 100130020000188003200150000018500070008000800380004
0092E1206P0966000365              12 4 4 300160040010129003000100001015000070009000300040001
0092E1207P0890000242              11 1 3 600060000000079002000080000008700190006000800070002
0092E1208P1330000389              11 1 3 600160010000143004100100000014000130010000900060000
0092E1209P0996000358              12 4 5 200120010000114003500060000015300090007000900120000
0092E1210P0702000341              12 3 7 400190030000103001900030001015800070007000700140000
0092E1211P0925000358              13 5 7 500120000000134003600070000012700100013000500140000
0092E1212P0366000181              11 2 5 100090000000050001400040000008300040008000800010000
0092E1213P0672000289              11 3 3 400130000000126003400050000009200050005000500030001
0092E1214P0673000266              13 3 7 500170000000103002000030000009900070010000200040001
0092E1215P0922000269              13 1 3 600130000000111002500000000009800080003000400070000
0092E1216P2087000847              11 2 6 200310000010347006000210001032400110011001300250002
0092E1217P0287000081              13 5 4 500020000000026000900010000003300030002000000050000
0092E1218P0838000251              12 3 7 400030010000072001500010001013600050004000600070000
0092E1219P0561000193              12 512 300040010000089001700050000005400070003000400060003
0092E1220P0229000097              11 2 6 200020000000041000400040000003400000001000400070000
0092E1221P0272000107              12 512 300030000000048001300030000003400010001000100020001
0092E1222P0480000149              13 512 300040000000054001700030000005200080001000400050001
0092E1223P0787000175              12 4 5 100030000000030000500030000010300060005000700130000
0092E1224P0562000260              11 4 5 100120020000063001700050001011200160004000700200001
0092E1225P0968000464              11 4 5 100220000000095002500070002023500240014002000190001
0092E1226P0436000199              11 4 5 100060000010078002900020000007000020001000400060000
0092E1227P1734000593              11 2 1 600120000000260005500140001018500160018000600220004
0092E1228P0775000309              13 3 3 400050000010130004200060000009300090004001000080001
0092E1229P0938000274              13 3 3 600110000010107002400040000010000060011000300070000
0092E1230P1104000385              12 5 4 300110000000164004000090000013900070003000700050000
0092E1231P0660000196              13 510 500030000000077001800060000007300060002000300080000
0092E1232P0756000250              12 3 4 300060060000104001800120000008700040003000400050001
0092E1233P0710000355              12 4 5 100120000000117002800020000015600050006001300150001
0092E1234P1585000394              13 3 3 400130000020087002900090000023000090004000600020003
0092E1235P0844000279              13 3 4 500100000000116002400100001009100090010000200060000
0092E1236P0758000323              11 2 6 200070000000153003100060002008200060004000800180006
0092E1237P1208000443              12 4 4 300210000000151002600090000019800140009000900060000
0092E1238P0730000272              13 5 4 500060010000108002300080000009700070008000200110001
0092E1239P1014000425              11 4 5 100120010020155004400040000016500110006000700180000
0092E1240P0749000296              13 3 7 500150000010115002800080000010700110004000100060000
0092E1241P1038000334              12 3 4 400110010000117002000090000014700070007000300110001
0092E1242P1257000353              12 5 4 300180030000129003700060000012900110005000900060000
0092E1243P0921000277              12 4 6 400070020020090001300060000012400070010000700080001
0092E1244P0478000149              13 5 4 300130000000058002500010000004500000002000200030000
0092E1245P1702000642              11 4 6 200150000000277007400170000021300110012000500180000
0092E1246P0903000311              13 3 7 500140020010112002400050000011700050008000900120002
0092E1247P1162000376              13 3 7 400170020000136004700090000012600130009000600110000
0092E1248P0790000314              11 2 6 200100010000107002700070000012100130005000700140002
0092E1249P3123000886              13 3 3 600280000000372009100360000028400260019001000170003
0092E1250P0947000306              12 4 4 300110010000109002700080001012900030005000500060001
0092E1251P0971000477              12 4 5 100170000010131002700010000024700130014001700090000
0092E1252P1196000401              11 4 6 200090000000139004300090001016000100013000800090000
0092E1253P0907000280              11 3 7 400140000010101002900050000009600060007000900110001
0092E1254P0868000302              13 3 7 500080000000107002800100000012200080003000500070004
0092E1255P0980000313              11 2 6 400080000000139002900070000010300070006000400090001
0092E1256P1981000698              11 3 6 400310000010262006100160000025200180015001600230003
0092E1257P0909000312              11 4 6 200080000010106002200130000012500120008000600100001
0092E1258P0620000174              11 4 6 200060000000055002000020000007200050002000100100001
0092E1259P0484000203              12 3 7 400100000000061001500050000008900090002000300070002
0092E1260P0800000300              11 2 6 200090020010106002900060000011300070008000100180000
0092E1261P0397000143              12 4 7 400010000000051000600030000007400000001000100040002
0092E1262P0720000200              12 3 4 300100000000060002200060000008500040002000300080000
0092E1263P1793000743              11 2 5 200240030000320009600260001022300130007001000180002
0092E1264P1567000514              11 2 1 600180000000220006900080000014100200018000600120002
0092E1265P2899001077              11 1 1 600270050000524011200200000031700260012001100220001
0092E1266P0982000290              13 3 3 400010010000097003600070000011800130010000200040001
0092E1267P0775000309              11 2 6 200010010000132003100100000010000050007000600120004
0092E1268P1253000411              13 1 3 600180010010163003100050001015700140010000600030001
0092E1269P0816000258              11 3 3 400080000000082002800110000009200070009000400170000
0092E1270P0869000578              11 2 6 200340010000214004200050000026700000009000400020000
0092E1271P0792000275              13 5 8 500040000000124002000050000009700040006000700070001
0092E1272P1009000443              11 1 2 600250020010206005100050000012100060006000700120001
0092E1273P0958000289              13 1 3 400120010000107003000100000009800130004000600070001
0092E1274P0767000224              11 1 3 600100000000082002000080000009300020004000200030000
0092E1275P0875000280              11 3 7 400110000000089001700070000010900110007001100170001
0092E1276P0252000074              12 4 4 400060000000021000800000000003500000001000100020000
0092E1277P0426000119              13 3 3 400050000000036000200000000006200050001000400040000
0092E1278P0038000005              13 3 3 600000000000002000100000000000200000000000000000000
0092E1279P0897000322              11 1 2 600130000000093002100050001014200140016001000040003
0092E1280P0002000000              11 3 1 600000000000000000000000000000000000000000000000000
0092E1281P0128000046              13 2 1 600000000000020000200000000002100010000000000010001
0092E1282P0013000001              13 5 4 300000000000001000000000000000000000000000000000000
0092E1283P1363000405              13 3 1 600230000000166002100070000015500110007000500100000
0092E1284P1119000632              11 2 6 400440000000213003900090000028700160005001000080001
0092E1285P1014000303              11 1 3 600190000010112002300070001010900130009000300050001
0092E1286P1015000413              11 2 6 200180000010170003900140000013400050008000600150003
0092E1287P0967000275              11 1 3 600180010000075003300060000011600080008000200050003
0092E1288P0964000347              11 4 5 100050000000146003800060000012300050007000200150000
0092E1289P0939000238              13 3 3 400100000020050001200090000013500080002000500050000
0092E1290P1288000517              11 1 1 600190020000232004100120000017600070008000700130000
0092E1291P1169000282              11 3 3 600100000000086002800040001012500100001000800060003
0092E1292P0916000368              12 4 5 100200010000128002600030001016300010004000800130000
0092E1293P0680000207              11 2 6 200040000000095001400060000007500020003000600010001
0092E1294P0853000311              13 5 4 300200000000134002600030000010100070005000500100000
0092E1295P0000000000              13 3 7 500000000000000000000000000000000000000000000000000
0092E1296P0013000005              13 3 3 600010000000001000100000000000200000000000000000000
0092E2001P0818000338              351018  00160010000185002200040001008800030006000600060000
0092E2002P0936000336              351018  00090000020127003200020001013800040012000200060001
0092E2003P0940000460              351018  00100000010150004000090000017500120011001700350000
0092E2004P0759000346              351018  00120020000126003000060000012600080004001700150000
0092E2005P0500000225              351018  00060000000075001100040001008800060003001400160001
0092E2006P0853000386              351018  00140010000088001700040001017700300008002200220002
0092E2007P0446000191              351018  00040000000054001400050001008400000007000300170002
0092E2008P0979000412              351218  00140000000158003600060001014400130012001100160001
0092E2009P0960000329              351018  00140000000064000700040000020200140008000600100000
0092E2010P0833000304              351018  00120000000083001500060000014400120005001100160000
0092E2011P0631000143              351017  00080010000035000900010000007000060005000200050001
0092E2012P0403000176              351017  00090000000064001000020000006000070001000500160002
0092E2013P0732000329              351218  00100010000119002900030000012500050012000800170000
0092E2014P1238000487              351218  00120010010178003300040004018700060017001700230004
0092E2015P0570000243              351218  00080000000090001200000000008200180006000600200001
0092E2016P1150000509              351218  00270010000172004700060000018900200012001600190000
0092E2017P1011000451              351213  00130000000184004300060001015300080011000800200004
0092E2018P0721000287              321213  00100000000115002700080000008700060007000900160002
0092E2019P0844000310              321213  00150000010123002800030000010800030006001100110001
0092E2020P0895000317              351216  00140000000127003400070000010700030006000300160000
0092E2021P0749000240              321216  00040000000084001800000000011000020003001100070001
0092E2022P0995000401              351017  00120010000157003200120000013400100008001100210003
0092E2023P0731000298              351017  00160020000095002000070002012200080007001100060002
0092E2024P0619000297              351218  00130000000088003300050000012400020007000700180000
0092E2025P0671000259              351018  00080000000087001800070000008900140005000900220000
0092E2026P0569000103              351018  00040000000021000100000000007000030001000100020000
0092E2027P0679000199              351017  00080000000069001300070002006700060009000300150000
0092E2028P0936000380              321018  00160000000117002900100000016100090010000500200003
0092E2029P1079000307              351018  00240000000090001700070000012800070002001100190002
0092E2030P0851000348              351018  00140000000127002100010000013600030006000700310002
0092E2031P0947000417              351018  00090000010148002600030001019000040009000900170000
0092E2032P0652000284              351018  00060000010112003100060000009800070010000500070001
0092E2033P0625000251              351017  00120000020108002200060000007400030011000500080000
0092E2034P0400000135              351017  00050000000035002000030000004600040005000500120000
0092E2035P0766000315              321213  00090000010116003400080000010700070005000700200001
0092E2036P0893000318              351016  00110000020123002800080002010800080008001000100000
0092E2037P0754000341              351018  00060010010135001600080000013300140003001500090000
0092E2038P0963000435              351218  00130020020148003900110000017300140007000500190002
0092E2039P0833000344              321213  00050010000134005800020000011100060005000700150000
0092E2040P1017000412              351218  00170000010176003300050000014500120008000700070001
0092E2041P1938000957              321016  00540010000238003000000003056800070021003300020000
0092E2042P0822000314              351017  00170000000111002400020000012900120004000900060000
0092E2043P0927000366              351218  00180000000133002600030002014400030012001000130002
0092E2044P0186000069              351218  00030000000025000700020000002300010005000100020000
0092E2045P0829000294              351018  00030000000160001700030001008400050005001100050000
0092E2046P0988000398              351018  00120010000105001600060001018500260005002000200001
0092E2047P0484000265              351218  00100010010113002200020000008100040005001500100001
0092E2048P0674000260              351017  00090000020104002500030002008700030007000600110001
0092E2049P0676000281              351018  00090000000098002500100000011300050003000900060003
0092E2050P0826000351              321213  00150000000148003900100001010100040013000800090003
0092E2051P0793000329              351216  00130000000139002600090001011100100000000500140001
0092E2052P0958000335              351016  00060000000158003000100000011900030003000300030000
0092E2053P0904000386              351018  00100000000095002500050000019600140011001600140000
0092E2054P0703000223              351018  00060030000043000800060000012700120007000200050004
0092E2055P1020000470              351218  00050000010206004100060001017100070011000800130000
0092E2056P0686000285              351017  00070000000098002600080003010300090008000600140003
0092E2057P0498000196              321213  00070000000085002300030000005700040003000500080001
0092E2058P0765000290              351017  00050000010108003300030000011600010007000400110001
0092E2059P1162000313              351017  00140000000071000900020000017600110010000600100004
0092E2060P1527000564              321213  00190000030218005200050000020700100011001300250001
0092E2061P0573000271              351017  00060000010092003200060000010700030006000700090002
0092E2062P0698000266              351017  00070000000092003000110000010300040013000400010001
0092E2063P0167000060              351018  00050000000020000200010000002700010002000100000001
0092E2064P0579000261              351018  00090000000133001400010000008400040004000400080000
0092E2065P0671000317              351218  00110010010119003000030000011300100013000700090000
0092E2066P0954000419              321213  00090000000162004100040001015600080009000900170003
0092E2067P1083000382              321218  00100000010149002700070001014800080008000700150001
0092E2068P1002000465              351213  00050000020201004700090000016200050012000900120001
0092E2069P1038000383              351216  00190000000138002300030000017000150004000400060001
0092E2070P0627000221              351017  00040010010080001300060000009600040004000600060000
0092E2071P1003000308              351017  00120060010078001600070001014700150011000300110000
0092E2072P0904000398              351017  00130000000132003900110001016900050012000300110002
0092E2073P0533000246              351018  00110000020072001800120000009900140004000300100001
0092E2074P1023000409              321213  00080010010187003400110001014000070005000300110000
0092E2075P0786000288              321213  00080000000123002400060001009000050004000900160002
0092E2076P1086000423              351016  00070020000175003700050000014900140011000600170000
0092E2077P0850000306              351216  00130010000118002600120001010800050006000300130000
0092E2078P1155000360              351016  00090000020127002000030000018300030004000400050000
0092E2079P0528000224              351017  00090000000089002200050000006900040007000900100000
0092E2080P0184000090              351218  00010000000031001100020000003000020002000200090000
0092E2081P0920000428              351218  00200000000151003800070000017900030008000600130003
0092E2082P0807000309              351017  00070000000106002800040000013200050010000600110000
0092E2083P0687000279              351017  00050000000106002400070002011700050003000200070001
0092E2084P0976000466              351218  00130000000191003200090001016700120011001700120001
0092E2085P0247000062              351018  00050010000003000200010000004300030002000000020000
0092E2086P0508000252              351213  00060000000112002900010000008200010005000500090002
0092E2087P0663000265              351216  00120000010102002900050000008700080005000500100001
0092E2088P0539000218              351017  00060000000086001800060000006600060009000900110001
0092E2089P0254000115              351018  00040000000051000800000000004000000002000500040001
0092E2090P0708000320              351218  00120020000097002400010001013900060010001200150001
0092E2091P0895000309              351016  00060000010120002200040001012900030004000800100001
0092E2092P0604000234              351017  00100000000072001700030000010300060001001000120000
0092E2093P0672000303              351218  00030000010094003000040001012000120004001200190003
0092E2094P0815000352              351018  00120010000117002200060001015000090008001000160000
0092E2095P0539000233              351216  00110010000083002300030005008800040004000400060001
0092E2096P0668000246              351017  00090000000095002100030000008800070005000500130000
0092E2097P0962000373              351213  00180000010165003400070002011900040006000600090002
0092E2098P1265000408              351016  00080000010165002000010004017800040008001000090000
0092E2099P0666000236              351216  00000000000099001900010000009100100007000100080000
0092E2100P1102000392              321216  00100000000153002700080001015000090008000800150003
0092E2101P1622000524              351017  00100030010193002600140000023300060006000700240001
0092E2102P1172000449              351016  00140000000182003800040002016900070012000700130001
0092E2103P0837000320              351213  00090000010130002300060001011800090003000700130000
0092E2104P0745000279              351018  00100010000078001100060001011800120006000700250004
0092E2105P0322000110              351016  00060000000030000800040000005000020006000200020000
0092E2106P0509000206              351213  00040020000082001700060000008200010002000000070003
0092E2107P1038000377              321018  00050010000101003100050000019300120010000700120000
0092E2108P0875000355              351216  00070010000141003600050000012900040011001100100000
0092E2109P1377000442              321017  00100010010146002400020000022300020006001700080002
0092E2110P0709000306              351018  00130000010121002400030001009900020008001700170000
0092E2111P0509000214              351218  00060000000075001300090000008400030006000500110002
0092E2112P1531000561              351018  00290010010217004000120001021400030017001300120001
0092E2113P0924000417              351218  00140000030173005000070000012600080007001100170001
0092E2114P1102000355              321018  00130000000121002700070001015000070008001200070002
0092E2115P0350000092              321213  00020000000044000500030000003400010001000200000000
0092E2116P0611000269              351218  00090000000110002700050000009200060005000800070000
0092E2117P0589000219              351216  00050000000099001500010000007500050004000400110000
0092E2118P0683000182              321216  00050000000068002000010000007600020002000200050001
0092E2119P1082000417              351018  00180000000195002200090000014100020012000800070003
0092E2120P0798000325              321216  00080000010108001500100000015500020009000500110001
0092E2121P0711000315              351018  00110000010100002400030000013300050007001200170002
0092E2122P0766000363              321213  00140000020142004000060003011200120006000800170001
0092E2123P1054000370              351018  00070000000105002800040002019700060003000800090001
0092E2124P0828000397              351218  00140000000176003300070000013300080007000900100000
0092E2125P1323000389              321016  00120000000137001600060000017700030011001400120001
0092E2126P0679000301              351218  00080000000128003200010000010800000009000800060001
0092E2127P0905000390              351213  00100000030173003000050000012400060010001200150002
0092E2128P0823000383              351018  00130010000158002800050001012700060008001400170005
0092E2129P0761000365              351218  00130000010136002700070000013400080015001500080001
0092E2130P0709000283              321213  00110000000105001600080000010400110008000600110003
0092E2131P0696000259              351216  00070010000113002500040000009000040004000600040001
0092E2132P0520000201              351018  00070020000072000900000000009100020008000500010004
0092E2133P0624000234              321017  00110000010078000900040002011300010004000600050000
0092E2134P0898000332              351016  00140000000131001400040000013800020005001600070001
0092E2135P0946000270              351016  00070010010099002200060000010500040009000700060003
0092E2136P0905000283              321216  00120000000112001700030000010100040004001400140002
0092E2137P0710000256              321016  00060010000092001600070000010800100003000500080000
0092E2138P0957000276              321017  00070000000088001400000004012900040006000700110006
0092E2139P0627000230              351016  00050000000103001000030000010300010002000100020000
0092E2140P0929000400              351218  00120000020161003700030001012700090011002200150000
0092E2141P0341000150              351218  00080000000060001600010000005000020003000400060000
0092E2142P0490000216              321213  00060000000096002300040000007200000006000000080001
0092E2143P0591000241              351017  00070000000106001700030001007500090008000400090002
0092E2144P1562000496              321016  00150000000182004100060000019500090020001600090003
0092E2145P0764000242              321017  00050000010075001600050000010900060009000700090000
0092E2146P0226000069              321016  00010000000019000500000000003500000003000600000000
0092E2147P0536000152              351016  00050000010070001000050000004800020004000200050000
0092E2148P0540000202              321216  00070000000087000900040000008100010003000700030000
0092E2149P0627000287              351218  00080000010100002800090000011300060002000900110000
0092E2150P0415000189              351018  00050000000046002000030001008700030003000800130000
0092E2151P0907000263              321017  00060000010092001300020000012700040005000900020002
0092E2152P0319000103              321218  00030000000046000800020000003000000001000100120000
0092E2153P0612000324              351218  00130000000133002600010000010800070013001000130000
0092E2154P0542000222              351018  00060000010085002000060000007500050006001000060002
0092E2155P0694000251              351017  00070000000104001700040000009600030004000500090002
0092E2156P0451000181              351218  00070000010053001800020000007800020004000600080002
0092E2157P0533000208              351216  00050000000084001600050001007800060002000600050000
0092E2158P1555000490              321018  00140020010096002000030002030600120012000700140001
0092E2159P0524000215              351216  00110000000101001300030001007300010002000500030002
0092E2160P0411000161              351018  00030000000083001200040001004500060001000200040000
0092E2161P0515000218              351213  00090000000076001500080000009400020003000300060002
0092E2162P1447000499              351017  00180000000165002600040000024200070013001500070002
0092E2163P0812000331              351018  00100000000139002100090000012200030005001100110000
0092E2164P0508000221              351218  00070000010089001700040002007900050008000400050000
0092E2165P0717000186              321216  00070010010061001900030003007900010007000000040000
0092E2166P0622000188              321017  00010000000067001000060000008900010003000800020001
0092E2167P0502000185              351016  00080000000066001100020001008600000003000300050000
0092E2168P0618000304              351018  00090000000127003000060000010700050006000800050001
0092E2169P0674000275              321213  00140000000105003200040000010400050002000100080000
0092E2170P0376000101              321016  00010000000040001100020000003600040002000300000002
0092E2171P0237000055              351017  00020000000026000500020000001500010000000100020001
0092E2172P0031000009              321017  00000000000006000300000000000000000000000000000000
0092E2173P0028000013              321018  00000000000008000000000000000200000001000000020000
0092E2174P0066000023              351218  00010000000008000100000000000900020001000000010000
0092E2175P0228000067              351216  00020000000037000700030000001400020000000200000000
0092E2176P0036000006              321017  00010000000000000000000000000400000000000100000000
0092E2177P0303000049              351017  00010000000007000400000000003400020000000000000001
0092E2178P0724000243              351017  00080010000097001200010000011100020004000500020000
0092E3001P0737000326              24 911  00120000000178003100050000007800030004000500100000
0092E3002P0586000251              24 911  00090000020094002600040000008000030011001100110000
0092E3003P0925000265              24 711  00020000000057001300080000015100080003000400180001
0092E3004P1035000259              24 711  00050000010048001600020000014700080008001000140000
0092E3005P0558000119              24 711  00040000000012000600000000008300090005000000000000
0092E3006P0069000006              24 711  00000000000002000000000000000300000000000100000000
0092E3007P0880000292              24 711  00130000000102002800080000011900000006001200020002
0092E3008P0888000246              24 711  00060000000061001600070000011600160006000900070002
0092E3009P1193000280              24 6 9  00190020000050000600010000019100030004000000040000
0092E3010P1044000425              24 710  00110010010196005600060000011100060008000600230000
0092E3011P0831000352              24 710  00130000000126004100120000011900040013000700160001
0092E3012P1618000561              24 711  00170020000189004700100002024000120011000800210002
0092E3013P0919000362              23 710  00170000020166004500070000009500020010000500100003
0092E3014P1116000422              24 710  00110000000195003400110000012700060013000800160001
0092E3015P1232000420              24 711  00080000000190006000070001012000080008001100060001
0092E3016P2043000770              23 6 9  00270000000170004200080001043800190012002500270001
0092E3017P1793000541              23 6 9  00200000000071002100080000037300140009000800120005
0092E3018P0812000355              23 7 8  00190000000125002800070000013500080004001300150001
0092E3019P0613000277              23 7 8  00140010000122002000050001008500050005000800100001
0092E3020P0800000345              23 7 8  00080020020128002300130001011700110009000700230001
0092E3021P1008000415              23 7 8  00190030000182004500100000010300110011001100200000
0092E3022P0135000046              23 710  00020000000020000600000000001600000001000100000000
0092E3023P0633000225              24 5 8  00060000000095001600080000007300090005000900040000
0092E3024P0956000433              23 7 8  00160000000153004000070001017500080009000500180001
0092E3025P1443000504              23 510  00180010000228005500170001014400130009000800090001
0092E3026P0797000360              24 711  00130020010151003500060000011700040011000800100002
0092E3027P1036000213              24 616  00120010000035001500010001012700090005000300030001
0092E3028P0976000398              24 711  00190030000177003300070000013200020009000500100001
0092E3029P2054000393              24 6 9  00270020000061000400050002027400090003000200040000
0092E3030P1277000363              23 610  00120020000055001500030002024600090004000700060002
0092E3031P1096000413              24 911  00140000010187004300060000013100070010000800050001
0092E3032P0767000249              24 611  00200000010099002000020000008200060005000400080002
0092E3033P0900000246              23 6 9  00140000000024000800020000018700020003000300030000
0092E3034P1070000306              24 611  00160010000122003500100002009900070004000500040001
0092E3035P0453000185              24 710  00060010000074002300050000005000070004000300100002
0092E3036P0609000181              23 6 9  00130000000023000900010000012300080001000100020000
0092E3037P1012000439              23 7 8  00200000020193003700100000014000060013000500130000
0092E3038P0757000364              23 7 8  00170030000118002800090001013700100011000400250001
0092E3039P0704000333              23 7 8  00150000000134004500040000010600060009000200120000
0092E3040P0645000292              24 710  00080020000123002800070000009400060010000400100000
0092E3041P0331000148              24 911  00080000000049002400030000005400030002000100030001
0092E3042P1161000371              24 911  00090010010177003200080000011100070007001100050002
0092E3043P0431000157              24 911  00030000000077000900160001003100060003000300070001
0092E3044P0978000253              241216  00150030000076001800010000012100050003000400030004
0092E3045P0825000308              24 7 8  00130010000108002700030001011600040008001200130002
0092E3046P0423000109              13 810  00010000000031000700000002005300030004000500020001
0092E3047P0888000328              24 911  00110010010155003100060000008800130008000400070003
0092E3048P1267000364              24 611  00090000020121003300090001013300060013000900220006
0092E3049P0803000357              23 710  00180000000155005300060000010100040008000700050000
0092E3050P0727000203              24 711  00050000000080002700050000006500070003000300080000
0092E3051P1287000395              23 610  00230000010087001400040001023500090005000700080001
0092E3052P1011000382              24 7 8  00120000010140003300080000014000110011000700170002
0092E3053P0837000403              23 7 8  00110010000175005700110001011400040004000900160000
0092E3054P0894000250              23 510  00020000000096002400100000009300100005000500040001
0092E3055P1392000398              23 6 9  00280020000063001000020000026100120005000200100003
0092E3056P0733000218              24 911  00090010000101002200040000006500010003000300080001
0092E3057P0832000294              24 911  00060010000123002800100000009700060005000800050005
0092E3058P1147000412              24 911  00150000000189003400070000011900110011000700170002
0092E3059P0728000227              23 6 9  00150000000033000600020000016000040000000300030001
0092E3060P0777000209              23 6 9  00080000000029000700010000014800070004000300020000
0092E3061P1111000456              23 7 8  00140020010192004700120000014200050007000800250001
0092E3062P1337000443              24 911  00140000000198004200100001013800150007000600100002
0092E3063P1091000204              24 6 9  00140010000033000400020000013700020003000400040000
0092E3064P0718000255              24 911  00070000010110002100050000009400060004000400030000
0092E3065P0804000284              24 711  00150000000122003100110000009500020004000200020000
0092E3066P1087000480              24 911  00100000000204005500120000015200060011001500130002
0092E3067P0644000198              241211  00090000000067001500030000007500040005000300140003
0092E3068P0811000235              23 616  00140010000051001200020003013500110003000100020000
0092E3069P0927000290              241211  00150000000110003000060000009900070004000800110000
0092E3070P1117000444              23 710  00140000000191005700120000012100060008001200180005
0092E3071P0582000162              23 610  00140000000049001200030001007200030003000200030000
0092E3072P0972000254              24 616  00070020000034001100050000017900060002000600010001
0092E3073P0959000205              24 616  00140010000033000700040000012900030004000600020002
0092E3074P0434000198              24 710  00090010000100002100050000005100020002000400020001
0092E3075P1026000352              23 6 9  00230000000018000600020001029000020004000200030001
0092E3076P0439000182              23 7 8  00060000000070001900050001006600030003000100080000
0092E3077P1336000390              23 6 9  00280000010070001200010000025200060007000600070000
0092E3078P0982000473              23 7 8  00210010000199005300110000014500090012000600150001
0092E3079P1069000326              24 7 8  00080010000118003100050000013100060005000900090003
0092E3080P1211000300              241211  00030000000098001300060000015700050006000900020001
0092E3081P1349000575              24 7 8  00140040010201004400130000022600090010000700400006
0092E3082P0762000268              24 911  00110010000132001600040001009200000003000200060000
0092E3083P1027000281              23 6 9  00170020000038000200000000019600090005000500060001
0092E3084P0665000201              23 616  00070000000049000600040000012600050001000200010000
0092E3085P1340000325              23 6 9  00180000000067002300010001019900040004000200060000
0092E3086P0699000208              23 6 9  00150000000026001200000000013900060002000200050001
0092E3087P0991000368              23 710  00130000000151003900120000012200060006000400130002
0092E3088P0888000323              23 510  00110000000129003900080000010200110007000400110001
0092E3089P0903000325              24 711  00080020010123003200050000010900070012001100150000
0092E3090P1112000396              241211  00190010000150004200120002013300090009000500100004
0092E3091P0601000236              23 710  00070020000092003400080001006900050007000300070001
0092E3092P0506000095              24 616  00060020000018000200040000006100010000000100000000
0092E3093P0870000224              241216  00130000000040001200030000013200110007000200030001
0092E3094P0475000148              23 616  00140010000032000400010000008900030003000000010000
0092E3095P0773000236              23 616  00110000000048001200030000014100080004000400030002
0092E3096P0393000101              23 6 9  00040000000012000200010000007000040001000400030000
0092E3097P0624000188              241211  00130000000054001600040000008900010002000400050000
0092E3098P0806000283              13 610  00090010000114002800060001009800090005000400060002
0092E3099P1426000460              24 7 8  00120010020196004600070000015500060008001200140001
0092E3100P0419000101              23 610  00020000000011000400020001007500020002000200000000
0092E3101P0900000330              23 7 8  00130010000129003000090000010400140006000500180001
0092E3102P1175000371              24 711  00040020000141004800110001011800130009001100120001
0092E3103P0462000145              241211  00020000010050001400030000005900060004000400020000
0092E3104P0780000204              23 6 9  00100000000027000700020001014500040001000000050002
0092E3105P0711000278              23 710  00090010000134005200060001006500020000000200050001
0092E3106P0767000342              23 7 8  00100010000154003400090001010000070005000300150003
0092E3107P0714000274              24 611  00130010000121002500050000008900040005000300070001
0092E3108P1039000444              24 710  00120030000188004900080000014600080013000600100001
0092E3109P0437000166              241211  00050000000065003400040000004700030003000200030000
0092E3110P1436000497              24 710  00170000020213004900100000015600130008001200160001
0092E3111P0924000259              23 616  00130020000051002100020000014800080004000800010001
0092E3112P1129000472              13 810  00140000040180005800210002015300090008001300100000
0092E3113P0793000199              23 6 9  00130000000028001100030000013400040002000300010000
0092E3114P1002000278              23 610  00110000000068001600040001016300020006000500020000
0092E3115P0497000150              24 6 9  00080000000024000600020000009900030003000200030000
0092E3116P1014000353              24 5 8  00110010030136003500200001011900070006000600070001
0092E3117P0933000268              23 6 9  00170000000047001600030002016100090004000400050000
0092E3118P1082000396              23 510  00140000000171003200120000012400110010001100110000
0092E3119P0826000197              24 6 9  00190000000023000400030001013600050002000200020000
0092E3120P2018000723              24 710  00220050000314008000150001023700110015001400070002
0092E3121P0825000303              24 911  00130060000165002600060000007300050002000100060000
0092E3122P0965000371              24 7 8  00120010000160003900090000011900060010000700070001
0092E3123P0977000339              24 911  00080000000145002400180001010000110007000800160001
0092E3124P0669000181              23 6 9  00100000000017000400030000012900040006000400020002
0092E3125P0833000264              23 6 9  00080010000047000500030002017700080005000300050000
0092E3126P0841000277              24 5 8  00050000000121001900110000009700060001000500120000
0092E3127P0651000276              24 911  00100000010129002900040000008800010007000400020001
0092E3128P1213000318              24 710  00080000020092002100070000014700120009000900110000
0092E3129P0464000172              24 711  00040000000062001000050000007500060001000300060000
0092E3130P0796000384              23 7 8  00280000010148003900090000011700090009000500170002
0092E3131P0928000378              24 5 8  00140000000170002300180000012800050006000300100001
0092E3132P0701000303              23 7 8  00130000000098003900040000011400070007000800120001
0092E3133P0814000225              24 711  00060000000055001600020001012000060005000600040004
0092E3134P1181000533              13 810  00120050020219004100070000019600100013001200150001
0092E3135P0840000300              23 510  00100000000111002900120000012300040003000200050001
0092E3136P0480000223              24 711  00100000010100001500010000008400000004000600020000
0092E3137P0733000306              23 7 8  00110000000131003600100001008600040005000400170001
0092E3138P0673000278              13 810  00070000000111003900140000007800040005000500090006
0092E3139P1323000474              24 5 8  00160010000190005200130000014200160016000900170002
0092E3140P0914000375              14 5 8  00130000000156003100110000013500090010000100080001
0092E3141P0883000387              23 7 8  00140010010173003300080000011800130009000500100002
0092E3142P0867000315              23 510  00070000000154002800060000010400060002000500020001
0092E3143P0655000303              24 710  00070030000120002400060000010200060008001000160001
0092E3144P0845000364              24 7 8  00170000010151004300090000011800060010000400040001
0092E3145P0745000370              23 7 8  00090000000123003400090000014000090010001000230003
0092E3146P0966000360              24 911  00070000000176003700130001009800100006000200090001
0092E3147P0690000245              24 911  00130000000113002700050000007300030005000200040000
0092E3148P0778000292              24 711  00080000000140002200090000008100050005001100110000
0092E3149P1009000367              24 710  00140000000142004200060001013000070009000600100000
0092E3150P0542000148              23 6 9  00100000000025000800010000008900050000000300070000
0092E3151P0903000383              13 810  00160000000149005100090000013400050005000800040002
0092E3152P1564000538              23 510  00210000000234005200210000016300120005001100170002
0092E3153P0859000304              23 510  00140020010133002500120000009900050005000300040001
0092E3154P1087000347              24 510  00090010000134004300150002010300080012001000080002
0092E3155P1216000530              24 7 8  00220010000213005200080000017600070008001300290001
0092E3156P0988000253              24 616  00150000010045001100020000016000060000000700050001
0092E3157P0787000277              24 710  00070000000129003700080000008100010005000100060002
0092E3158P0036000011              13 610  00010000000004000200000000000100000000000100000002
0092E3159P1173000360              24 7 8  00160010010133002800100001013300050011001100080002
0092E3160P0792000205              23 6 9  00060000000050000900080000010600110010000100040000
0092E3161P1131000492              23 7 8  00190000000228005100170000013000090019000300150001
0092E3162P1122000436              24 5 8  00080010000156002800150000019100030012000600150001
0092E3163P0868000343              24 711  00060020000134002000030000013600030010000700180004
0092E3164P0915000360              23 710  00110020000144004900080000011700090006000300110000
0092E3165P0961000422              23 7 8  00170040030173004300090000014100060013000300090001
0092E3166P0777000338              23 7 8  00170010020125004300080000010200080013000400140001
0092E3167P0683000206              241211  00050020000072002500110000007300050005000500030000
0092E3168P1059000276              23 6 9  00160000000057001600040000016700040002000400050001
0092E3169P0917000275              24 616  00090010000045001200030000017800070004000700070002
0092E3170P0296000082              241211  00030000000026000800020000003300030001000100040001
0092E3171P0625000164              241211  00060000000064000800000000007500010004000300020001
0092E3172P1618000629              24 5 8  00440010000235004800170000023000080010000800240004
0092E3173P0977000369              24 5 8  00100010000164002000080000011900160008001000100003
0092E3174P0297000046              2412 9  00020000000004000000000000003400010001000100030000
0092E3175P0938000192              24 6 9  00190000000032000400020001012000040003000200040001
0092E3176P0918000250              23 6 9  00190000010016000100000000020000060004000000020001
0092E3177P1257000517              13 810  00090000000196004900100000020800120008001200130000
0092E3178P0714000260              23 810  00140000000100002700070000010000040002000200040000
0092E3179P0824000286              13 5 8  00070000000103002300090000011000040007000100220000
0092E3180P1336000466              24 5 8  00150000000180003700170000017900090012000600060005
0092E3181P0894000231              23 6 9  00200010000027000900030000014800070003000500080000
0092E3182P0400000187              24 710  00050000000089001700050000005900020003000300030001
0092E3183P0332000127              24 711  00040000000045001700060000004500020000000200060000
0092E3184P0911000379              24 911  00120000000147003700060000013600060010000600170002
0092E3185P0000000000              23 710  00000000000000000000000000000000000000000000000000
0092E3186P0697000233              24 911  00070000000089001700060000008900060006000200090002
0092E3187P0744000237              23 510  00080000000093001900070001009600050005000200010000
0092E3188P0083000027              23 610  00010000000013000100000000001000010000000000010000
0092E3189P0465000122              24 6 9  00110000000024000800030000006700040004000000010000
0092E3190P0186000016              241216  00010000000002000000000000001300000000000000000000
0092E3191P0011000000              13 810  00000000000000000000000000000000000000000000000000
0092E3192P1057000324              24 710  00120000000142003400070000008900060008000900150002
0092E3193P0661000187              24 616  00020010010044001300010000010900020003000900020000
0092E3194P0771000185              23 6 9  00130010010018000100000000012900060003000200110000
0092E3195P0601000229              24 911  00040000000117002300050001007200010001000400000001
0092E3196P0667000155              24 611  00100000000031000800010000009500050003000000020000
0092E3197P0451000221              23 710  00080000000106001800030001007500050000000200030000
0092E3198P0762000254              24 710  00080010010096004000060000008000040005000200100001
0092E3199P0581000160              23 6 9  00080000000014000300010000012500010002000000060000
0092E3200P0590000165              23 6 9  00050000000039000700010000010000030004000100040001
0092E3201P0667000251              24 7 8  00130010000103002200030000008000040007000400110003
0092E3202P0830000256              23 510  00110000000098002200110000010500010002000400020000
0092E3203P0553000214              23 710  00020000000083001800120000007400060006000300080002
0092E3204P0343000100              241216  00020000000021000400040000005900030003000300010000
0092E3205P0493000140              23 616  00140000000023000200020000009000040002000200010000
0092E3206P0803000217              23 6 9  00090000000032000900020000014700040008000200030001
0092E3207P0617000134              24 6 9  00060000000027000400000000009100020000000300010000
0092E3208P0584000207              24 911  00060000000112002600010001004200010005000400090000
0092E3209P0628000195              24 5 8  00030010000083001800040000006000050004000400110002
0092E3210P0618000206              24 711  00040000000101002100090000006100030000000300030001
0092E3211P0844000306              24 711  00120020000120004500100001009100110002000200070003
0092E3212P0906000305              241211  00080000000132004000040001009900040006000400050002
0092E3213P0976000347              24 710  00110020010145003800070002010500080005000800130002
0092E3214P0820000281              24 710  00080030000135003200040000008800050002000200010001
0092E3215P0066000023              23 710  00000000000015000000010000000500000000000000020000
0092E3216P2427000908              24 5 8  00300020000390006800250001031500150015002200200005
0092E3217P0182000059              24 610  00000000000020000200040001002600010003000100000001
0092E3218P0043000020              23 510  00010000000008000000030000000600020000000000000000
0092E3219P0000000000              23 610  00000000000000000000000000000000000000000000000000
0092E3220P0003000000              23 510  00000000000000000000000000000000000000000000000000
0092E3221P0056000015              23 810  00020000000009000200000000000100000000000000010000
0092E3222P0869000303              23 510  00100000020099002800120001011000140010000600090002
0092E3223P0734000280              24 5 8  00060000010121002500120000010100050002000100040002
0092E3224P0418000107              23 810  00020000000042000600010001003700040001000300090001
0092E3225P0000000000              23 610  00000000000000000000000000000000000000000000000000
0092E3226P0000000000              23 810  00000000000000000000000000000000000000000000000000
0092E4001P0709000281              24 914  00080000000115002200050000009400050008000300190002
0092E4002P0519000191              24 914  00050020000054000800070001009000060003000800070000
0092E4003P0857000403              24 914  00150010000150003000070001015000160011001200100000
0092E4004P0655000173              241216  00060000000066001100020000007000070004000400030000
0092E4005P0814000290              241114  00100000000123003400050000008600110006000100140000
0092E4006P0591000186              241114  00040020010083001800060000005300070004000400030001
0092E4007P0726000259              281115  00090010010092002600050000009000120006000700090001
0092E4008P0941000396              281115  00170000000183003200070001012100070012000800080000
0092E4009P1039000375              281115  00240000000099002700040000018600030013000800110000
0092E4010P0617000207              281015  00040000000082001300020000007400040008000900070004
0092E4011P0954000304              24 914  00090000000116002500130004010200080008000500140000
0092E4012P0567000169              281115  00050000000066001900020001006200020004000400030001
0092E4013P1039000334              241114  00040010000168003300050000008500090008000300160002
0092E4014P1111000332              241115  00140000010015000600020001027300080004000400040000
0092E4015P0822000365              24 914  00100000000146002400040000013100090009001200190001
0092E4016P1003000341              241114  00150010000137003100130000011600020007000600110002
0092E4017P0559000233              281115  00050000010093001900080000009000070002000200050001
0092E4018P0540000125              281115  00100000000012000600000000009300000001000000030000
0092E4019P0380000113              281114  00050000000049001100010000003900020003000100020000
0092E4020P1371000417              24 914  00110010000141003700080002018800100003000500100001
0092E4021P1063000422              24 914  00230000000130003000060001018300100009000900190002
0092E4022P1071000378              24 914  00130000000144003400080000013600080007000600190003
0092E4023P1058000425              24 914  00070020000164003200070002016500080010000800200000
0092E4024P1055000370              241114  00040000000166004400120001010900090006000600110002
0092E4025P0995000214              281115  00100000000042001100000002013700030000000500040000
0092E4026P0476000202              281115  00050000000082002100070000007200030004000300050000
0092E4027P0574000181              24 914  00080010000068001900060000006200050004000300050000
0092E4028P1697000484              281115  00130000030162002400100000023000150004000500150003
0092E4029P0761000222              241217  00090000000094001200050001008700030003000300050000
0092E4030P0690000199              281115  00060000010080001900020001007300050001000300050003
0092E4031P1476000453              281115  00240040000051002300060001030100100010000800130002
0092E4032P0794000246              24 914  00070000000096001400050001009400110006000400080000
0092E4033P0978000347              24 914  00070000000127002900070001013600100004000800180000
0092E4034P0523000120              281115  00050000000042001000030000005000020005000100020000
0092E4035P1094000322              281115  00120000000136003400110003010800020004000500050002
0092E4036P0706000264              24 917  00080000000089001500040001012100050006000700080000
0092E4037P0951000260              281115  00100000000098002900060000010400040002000100040002
0092E4038P0259000089              24 917  00020000000037001100010000003200020002000000020000
0092E4039P0271000071              281114  00030000000024000400000000003100020002000300020000
0092E4040P0333000100              281115  00030000000029000400010000006100000000000100000001
0092E4041P0911000262              24 914  00150000000102003200050001008900030004000400050002
0092E4042P1398000427              281115  00230040000019000300010000035800080003000400030001
0092E4043P0774000240              24 914  00060000000089001600060000010300020010000200040002
0092E4044P0917000242              281115  00080000000076001200030000012000080003000100100001
0092E4045P0564000166              241117  00070010000058000800070000007200020003000400040000
0092E4046P0799000290              241217  00070000000122001800070001010700040008000700060003
0092E4047P0707000192              241217  00060000000077001600020000007000050004000700030002
0092E4048P0878000279              281015  00100000000117002300040002009300090003000300130002
0092E4049P0722000261              24 914  00100000000111002100100000008100030006000600100003
0092E4050P0941000328              281114  00080050000114002500070000013500070002000800150002
0092E4051P1007000341              241114  00070000010150002200110001011900050006000800090002
0092E4052P0805000264              24 914  00060000000119002100060000010000020002000400030001
0092E4053P0907000224              281115  00040010010086001200030001009600060003000500050001
0092E4054P1125000333              281114  00090010000109001600090000015300080009000800090002
0092E4055P0993000344              241217  00210000000145001400130000011900060006000500150000
0092E4056P0847000208              241115  00120010000007000100000000017500050002000200020001
0092E4057P0926000304              241117  00060000000093003400100000014200050003000400060001
0092E4058P0813000238              281115  00050020000088003500090000007600030005000100130001
0092E4059P0603000177              281114  00080000000078001200010000006000040000000400080002
0092E4060P1815000575              241117  00190000000049001400050000044800100013000500090003
0092E4061P0518000226              24 914  00080000010106001900020002006700070005000400050000
0092E4062P1173000385              281114  00080000000146004300030000015100100003000800100003
0092E4063P0809000358              281115  00090000000159002700050001011200080009000900190000
0092E4064P0955000312              241114  00080000000134003800060000009300080012000400060003
0092E4065P1698000408              281115  00140000010042000900040000031700100003000700010000
0092E4066P0745000274              281115  00090000000113002400070000010200020005000700040001
0092E4067P0546000175              241217  00040000000052001200040000008400030005000300080000
0092E4068P1014000313              241216  00170000000125003700040000010400020007000700070003
0092E4069P0948000329              281015  00130000010130002200040000013200040000000900120002
0092E4070P0808000214              281115  00050010000055002000010000011600040006000100040001
0092E4071P0716000213              241114  00080020000100003100010000005300030004000000110000
0092E4072P0901000287              281115  00180010000013000200000000024600020001000200010001
0092E4073P0484000163              241217  00060000000048001800050000007300040003000500000001
0092E4074P1063000269              241115  00170000010008000200000000022800050004000100030000
0092E4075P1103000371              281114  00090000000150002300060000015300050009000700070002
0092E4076P1056000308              24 917  00160010000123001900030002011900110004000300070000
0092E4077P0857000246              24 914  00020000000102001600120000009100060007000600030001
0092E4078P0512000153              281114  00030020000072001200030000005100020002000200020002
0092E4079P0610000180              241217  00100000000063001500020000008000030003000300010000
0092E4080P0739000259              24 917  00150020000093001900010001010700080004000300040002
0092E4081P0610000193              241217  00030010000092001500020000005600050004000000090006
0092E4082P0780000182              281115  00130010000050001400030000009200040003000200000000
0092E4083P0437000122              281114  00030000000048001100010000005200020001000000040000
0092E4084P0424000123              241211  00070000000053000300010000004600070001000000050000
0092E4085P0942000325              241217  00100000000131003400100001012100020006000300070000
0092E4086P0188000074              241217  00010000000029000400020000003100020001000000040000
0092E4087P0810000265              24 914  00010020000098002600040000010600080006000200120000
0092E4088P0587000213              24 914  00090000000066001700010000009000070006000400120001
0092E4089P1194000371              241114  00090020000144002500070000015500070004000900070002
0092E4090P0860000257              241115  00110000000030001100040000017900050004000700060000
0092E4091P0444000120              241114  00030000000053001500010000003600010002000300060000
0092E4092P0331000069              281115  00030000000009000300010000004300030001000500010000
0092E4093P0695000193              24 914  00110000000074001100020001008000060003000000040001
0092E4094P0668000237              24 914  00090000000094001500030000008400090006000800080001
0092E4095P0890000275              241217  00080000000115003400040002009200040002000500080001
0092E4096P0820000277              241114  00080000010108001900060000010500110004000700070001
0092E4097P0892000320              241216  00150000000121003900050000011500080006000600050000
0092E4098P0778000213              241217  00060000000082001600070000008500010004000200070003
0092E4099P0839000241              241211  00120010000074002300030000011100040003000500050000
0092E4100P0599000173              241216  00080020010077001200060000005200030003000200060001
0092E4101P1153000402              241114  00150010000159003900070000013600140008001300090001
0092E4102P0952000374              24 914  00150000000145005000050001012100150007000500100000
0092E4103P0665000211              24 917  00080000000095001800020000007300060000000400050000
0092E4104P1442000463              281114  00170010000183004200090000016500120006000700170004
0092E4105P1091000323              24 914  00120010010129003100080003010100030008001100130002
0092E4106P1567000430              241117  00150010000160003200080000018000100012000300090000
0092E4107P0958000316              24 914  00080030010124001500040002014100070001000500040001
0092E4108P0390000137              241217  00070030000052000600050000004800050001000500040001
0092E4109P0737000237              281115  00060010000099001500030001009200040003000600050002
0092E4110P1009000356              281114  00210000000133003600120001011500120006001000070003
0092E4111P0627000211              241114  00040030000088002900050000006800060004000200020000
0092E4112P0750000247              241217  00090000010104001800060004009100020001000300080000
0092E4113P0604000183              281115  00080000000061002400050001007100010004000200050001
0092E4114P0814000309              281115  00140000000143004100040000009300040005000200020001
0092E4115P0693000239              281115  00100000000024000400000000018400040003000300060001
0092E4116P0533000163              241117  00060000000047000800030001008300050007000100020000
0092E4117P0632000254              281115  00110000000089002200060000009200090007000700060005
0092E4118P0653000187              241216  00070000010063002900040000006900020005000300030001
0092E4119P0649000216              241114  00080010000083001400080000008400030004000200090000
0092E4120P0610000196              241217  00040000000078000900040000007900080009000100040000
0092E4121P0542000211              24 914  00030000000092001700060000007200040006000200090000
0092E4122P0560000268              281115  00160000000105002300040001010400000004000300060002
0092E4123P1036000313              24 917  00080010000116002300070002013600050002000600070000
0092E4124P0292000068              24 915  00020000000024000300000000003400040001000000000000
0092E4125P0549000145              241111  00100000000058000800010000006100030001000100020000
0092E4126P0589000166              241217  00030000000057001600040000006800050003000600030001
0092E4127P0678000234              24 914  00110010000101001700030001008100030004000500070000
0092E4128P1193000314              24 914  00120020010114002600040000012700090002000400100003
0092E4129P1242000367              281115  00160000000019000400010000030900060003000200070000
0092E4130P0335000158              24 914  00040000010055001300030000006500040006000500020000
0092E4131P0531000189              24 914  00020000000060001600080000008500020005000300060002
0092E4132P0542000156              241217  00040000000056001700040000005900060003000100060000
0092E4133P0644000218              24 914  00040000000079001800070001008900050003000200080002
0092E4134P1452000303              281115  00220000000018000300020001024600050003000200010000
0092E4135P1418000365              241115  00200010010025000300020000028600120005000200080000
0092E4136P0509000132              241216  00040000000049001600050001004800050003000000010000
0092E4137P0101000026              241117  00010000000007001000000000000800000000000000000000
0092E4138P0288000076              241217  00010000000019000600000002003800020001000200040001
0092E4139P1080000238              241115  00180000000008000100000001019600050004000400010000
0092E4140P0873000223              281115  00190000000013000100030000016900080006000100030000
0092E4141P0477000095              241115  00150000000003000000000000007400020000000100000000
0092E4142P0524000213              24 914  00060000000105001300060000006900020005000000040003
0092E4143P0751000207              241114  00030000000071002100030000008600080005000300070000
0092E4144P0984000262              281115  00150000000018000300020001020700050004000500010001
0092E4145P0759000184              241115  00070020000007000000010000016000040000000100010001
0092E4146P0424000182              281115  00050000000078001300020001007000040001000600020000
0092E4147P1518000375              241115  00200000000012000500020000032100070005000200010000
0092E4148P0554000214              241211  00090000000059001400010000010900040003000900060000
0092E4149P0575000149              241211  00040010000057000800030000006700030001000200030000
0092E4150P0052000011              24 914  00000000000004000100000000000500000001000000000000
0092E4151P0397000115              241217  00060000000052000800000001004000020004000100010000
0092E4152P0062000017              24 914  00000000000009000100020000000500000000000000000000
0092E4153P0269000069              281115  00060000000020000500020001003100000002000100010000
0092E4154P0596000143              281115  00080000000006000100010000012500010001000000000000
0092E5001P0728000321              12 813  00100000000159003900040000008400040003000800090001
0092E5002P1349000577              12 813  00250010010260005600110000017100040014001200220000
0092E5003P0636000228              32 813  00050000000109002200020000007100030004000600050001
0092E5004P0761000341              32 813  00150010020148003200070000011100030010000300080001
0092E5005P1271000457              12 812  00130010000175003800230000016000100011000800150003
0092E5006P0939000419              12 812  00100000020165004500110001014800060006000900160000
0092E5007P0614000247              32 813  00040000010111003000020001008300020003000300070000
0092E5008P0893000342              12 813  00100000000142003200100000010700050004001400170001
0092E5009P1252000579              12 813  00230000010255006200060000017200140010001100230002
0092E5010P1017000398              12 812  00170010000169003000120000012700070005000400210005
0092E5011P1376000561              12 812  00180000000221006800120000020100050007000300230003
0092E5012P0775000316              32 813  00070000000149002300120000009000040009000800130001
0092E5013P1629000656              12 812  00190010020315006500210000018100100013001200140003
0092E5014P0825000361              32 812  00120000000166002600110001012100070007000300070000
0092E5015P1322000538              12 813  00140020010224005200170000018400040011000600220001
0092E5016P0739000333              12 812  00110000000157003000090002009900050004000300120001
0092E5017P0712000314              12 812  00160000010119002500070000011500080006000600100001
0092E5018P0604000211              32 813  00040000000101002400060000006200010000000400090000
0092E5019P0553000226              12 812  00060000000091001700050001008300030003000400110002
0092E5020P1025000472              12 813  00240000010198005700100001014600100005000900110000
0092E5021P1198000494              12 812  00220010000182003700120000019300060009000900210002
0092E5022P1218000445              32 812  00140000000177003800120000016400080004001300140001
0092E5023P0770000267              32 813  00070000000115001700040000010100030006000400080002
0092E5024P0756000257              32 813  00100000000126002200060000007700020004000200080000
0092E5025P0507000208              12 812  00080000000083002000050000007300040005000300060001
0092E5026P1274000524              12 813  00200010000249004100140001015900090015000800070000
0092E5027P0860000367              12 813  00170010000153003000070001013500040004000500090001
0092E5028P0924000377              12 812  00140000000180003700140000011000020007000600070000
0092E5029P1168000477              12 813  00160000010208004800160001015000050013000800110000
0092E5030P0691000267              32 812  00130000000111001200060000010400060002000400090000
0092E5031P0955000379              32 813  00100000000140003500050000015000080007000400120008
0092E5032P0485000184              32 813  00040010000073001100010000007700040006000400020001
0092E5033P1062000463              12 813  00170020000209004800070000013700030010000700220001
0092E5034P0760000290              12 812  00080000000118003000070000009900060007000700050003
0092E5035P0945000378              32 813  00070020000176002400110000011500080010000600180001
0092E5036P1006000424              12 812  00170030000176004100070000015700040009000400060000
0092E5037P1052000447              12 812  00230000000167003200050000018200100007000800110002
0092E5038P1495000566              32 813  00220000000221006000140002019500130004000800240003
0092E5039P0772000316              12 812  00120010010135004500060001009000060003000700090000
0092E5040P0885000378              12 813  00080000000174003400050000011800040012001400090000
0092E5041P0445000182              32 812  00030010010078001200020000006900040001000300070001
0092E5042P0954000365              32 812  00120000000142002100080000014600020006001000170001
0092E5043P0689000282              32 813  00050000000121001900040000009500090009001000090001
0092E5044P0651000274              12 813  00070010000133001900100001008800030007000200020001
0092E5045P0870000401              12 812  00070000000182003500060001013300100006000800110002
0092E5046P0547000202              32 812  00100000000089001900020000006800030004000500010001
0092E5047P0920000339              32 813  00100000000125002800040001014200020010000600100001
0092E5048P0476000168              32 812  00150000000067001600010000005300010005000000070003
0092E5049P0614000282              12 812  00070000000131001900060000008700040006000600150001
0092E5050P0774000314              12 813  00110010000128004900020000009600080006000700050001
0092E5051P0683000323              12 812  00180000000122003000070000011400050010000900070001
0092E5052P0688000283              12 812  00110000000103002900040003009800080005000900110002
0092E5053P0828000383              12 812  00140020000188003800050001011300060005000300070001
0092E5054P1559000531              32 813  00160000010218003100060000022400030009000300180002
0092E5055P0896000367              12 812  00050010000160004200140000011900060005000500080002
0092E5056P1278000584              12 813  00310010000267005200070002018700100009000700090002
0092E5057P0941000398              32 813  00120000020168003300050001014100050005001000160000
0092E5058P0646000244              12 812  00080000000111001900020001008200080003000200080000
0092E5059P1039000413              12 812  00160000000168004700060000013700070010001000090003
0092E5060P1385000604              12 813  00210000010280007200100000016400090017000700200003
0092E5061P0845000347              12 813  00110000000152004000100000010200050009000700100001
0092E5062P0563000213              32 812  00090000000082002400020000008500010003000300020002
0092E5063P0702000297              12 812  00230010000132002600050000009000070003000600040000
0092E5064P1251000520              32 813  00130010000245004400110000015900080016001100110001
0092E5065P0992000394              12 812  00060000000157004000110000014500060009000700090004
0092E5066P0509000218              32 812  00060020000092001200040000008500050007000300020000
0092E5067P0903000363              12 812  00110000000156003900140000010700090003001100110002
0092E5068P0560000233              12 812  00120000020090002200090000007700040005000400060002
0092E5069P0675000273              12 812  00120000000100002700060000010100090003000300120000
0092E5070P1029000384              12 813  00170000000166003100030000013200010007000600180003
0092E5071P0522000198              32 813  00060000000067001000010000008700040004001000090000
0092E5072P0902000425              12 813  00130010010187003500060000015500070007000800050000
0092E5073P0619000239              12 812  00070010000100002100010000008700080002000400070001
0092E5074P0695000350              12 813  00140010000143003700050000011600050005000400170003
0092E5075P0944000414              32 812  00120000000184004000090000014400040007000500060003
0092E5076P1116000423              12 812  00140030000205004000060000012400030002000500200001
0092E5077P0598000236              12 812  00080000000090003300090001007900030002000200060003
0092E5078P0914000401              12 812  00120000000168005100130000012200080007000800120000
0092E5079P1391000702              12 813  00230010000262004900080000031700050014000500180000
0092E5080P0760000339              12 812  00140000020151003300090000010600060004000600070001
0092E5081P0960000385              12 812  00100000000146003700230000014300090007000800010001
0092E5082P0872000396              12 813  00220000000151002200050000017300060005000700040001
0092E5083P0638000270              12 813  00080000000097002400080000011100030005000700060001
0092E5084P0835000348              12 813  00110000010155002700050002012000050005000700100000
0092E5085P0883000332              32 813  00060040000139002300070000013300030005000400060002
0092E5086P0585000243              12 812  00080000000105002400060000008000050002000400080001
0092E5087P0660000263              32 812  00050000010118001300050000010400060004000200050000
0092E5088P0556000199              32 813  00020000000085001600060000007600050004000400010000
0092E5089P0629000259              32 812  00070000000109002200040000009700040002000500080001
0092E5090P0416000156              32 812  00060000000066002200010000004800030003000400030000
0092E5091P0859000338              12 812  00070010000142003100100001011300040007000600130003
0092E5092P0946000328              12 812  00170000000135002100100000011500080004000400130001
0092E6001P0990000461              11 1 2  00130010000097001300030001025800230017001900160000
0092E6002P0652000273              11 1 2  00180000000091001900080000010700080007000500090001
0092E6003P1062000490              11 1 2  00400000010094001600030001026000190014001300260003
0092E6004P1302000586              11 1 2  00230000010183003400080000027000140026001300120002
0092E6005P0572000246              11 1 2  00030000000091000800030000012500010006000400020003
0092E6006P0661000303              11 1 2  00110010000077001900050000016300020009000500090002
0092E6007P0689000321              11 1 2  00140010000081000900040000018000120009000600050000
0092E6008P0809000380              11 1 2  00160030010127004100080000015000090011000700060001
0092E6009P1026000474              11 1 2  00180010010184002900040001019900060014001200050000
0092E6010P0487000174              11 1 2  00080000000066000900000001008000010005000200020000
0092E6011P1312000568              11 1 2  00220000010256005300210001014800140019001100210001
0092E6012P1387000450              11 1 2  00300000000120004300050000020800160012000200110003
0092E6013P0647000292              11 1 2  00140010000096000600010000014000080011000900060000
0092E6014P0539000214              11 1 2  00070010000093001500020000007500060007000400040000
0092E6015P0891000372              11 1 2  00180030000110003100070000016900020019000700060000
0092E6016P1296000616              11 1 2  00320040000171004100140000027100270025001600130002
0092E6017P0752000333              11 1 2  00140000000111002600090000014100070012000600050002
0092E6018P0924000433              11 1 2  00180040020143002600160000015100240023001300120001
0092E6019P0516000183              11 1 2  00070010000052001000040000007600050008000700120001
0092E6020P1055000448              11 1 2  00110050000152003800100000018800110014000900090001
0092E6021P0471000239              11 1 2  00010000000047001100010000013900090014001100030003
0092E6022P0570000267              11 1 2  00190010000092002700050000010100070008000300040000
0092E6023P1690000772              11 1 2  00360010010291006900110001030300080015001700160003
0092E6024P0603000259              11 1 2  00120000000102002000010000010500060006000600010000
0092E6025P1027000425              11 1 2  00140010000148002900110001015900080017001300230001
0092E6026P1455000607              11 1 2  00370010010157003600070001029800150026001100150002
0092E6027P1278000587              11 1 2  00260010000264003900230000017300110019001100150005
0092E6028P1087000543              11 1 2  00190010000178005200090001023100120019000800120001
0092E6029P0770000363              11 1 2  00170020000119002400070000016900050007000500060002
0092E6030P0725000275              11 1 2  00200020000080001900000000012200070010000700060002
0092E6031P0960000508              11 1 2  00230000010140003000050000024500160014001700140003
0092E6032P1064000470              11 1 2  00170000000152004700080000019900110023000300080002
0092E6033P0749000340              11 1 2  00180010000114002700070000013700090015000800020002
0092E6034P0783000350              11 1 2  00130000010133003200050003012500070010001200090000
0092E6035P0807000427              11 1 2  00100020000186003100110001014800060013001300060000
0092E6036P1063000481              11 1 2  00300000020133003000060000021600080021001400210000
0092E6037P0935000394              11 1 2  00130010000136002400050001016700120007001100140003
0092E6038P0669000262              11 1 2  00110000000078001800020000012100060004001400080000
0092E6039P0881000388              11 1 2  00150010000102002100090000019100140018000600090002
0092E6040P0573000249              11 1 2  00150000000087002400100000008600080011000300040001
0092E6041P0610000210              11 1 2  00060000000035000800020000014000040004000700030001
0092E6042P0694000339              11 1 2  00140010000108002400050000014200170010001100060001
0092E7001P0334000126              11 1 2  00060000000046000300010000005800010004000300040000
0092E7002P0945000449              11 1 2  00120020000063001600020000028200290014001200150002
0092E7003P0741000325              11 1 2  00150000000072001100020000018100080011001000140001
0092E7004P0950000406              11 1 2  00240000000113002200010000019300140014001200120001
0092E7005P0481000228              11 1 2  00170000010065000900010001010600040007000500110001
0092E7006P0420000182              11 1 2  00110000000047000700030000009200030007000600060000
0092E7007P0371000159              11 1 2  00090000000051000600010000007700070001000200030002
0092E7008P1314000542              11 1 2  00210010020123001600060000028500250020002200210000
0092E7009P0879000390              11 1 2  00180010050100001800050000018300130013001600180000
0092E7010P1109000489              11 1 2  00310000000168003500010001020200100019001100090002
0092E7011P1291000518              11 1 2  00300010010131002800020000026100140011001800210000
0092E7012P0806000418              11 1 2  00270010010120002800060000018000120016000700200000
0092E7013P0433000183              11 1 2  00160000010051000600020000009100070006000200010000
0092E7014P1170000404              11 1 2  00210000000086001400030000022800110009001800140000
0092E7015P0979000417              11 1 2  00240010000096001500040000021600150010001700180001
0092E7016P1108000512              11 1 2  00240000010136001900030001025900240011001600160002
0092E7017P1168000465              11 1 2  00280010000119002300010000023100110018001900140000
0092E7018P0738000294              11 1 2  00200010000108001600030000012000040010000500070000
0092E7019P0709000249              11 1 2  00070000000072001500030000011200050020000600080001
0092E8001P0220000066              11 2 1  00030000000021000000010000003600010001000100010001
0092E8002P0658000381              11 2 1  00200010000110002700000000016900210008000900150001
0092E8003P0609000338              11 2 1  00190010000121003700010000012600060008001000090000
0092E8004P0821000455              11 2 1  00270000010125002400040000022200150009001200140002
0092E8005P0381000182              11 2 1  00080010020043002800030000008600030000000300050000
0092E8006P0745000307              11 2 1  00300020000060001200030000014800180010001200110001
0092E8007P0775000372              11 2 1  00220000040101002500050000016400170014000700100003
0092E8008P0996000481              11 2 1  00150010010160002900060000021800110011001700090003
0092E8009P1343000727              11 2 1  00530010000271004700090000028200080016001700220001
0092E8010P0727000346              11 2 1  00170030000120003300020000013200070013001200070000
0092E8011P0813000501              11 2 1  00300010000192003300050000018700110014001700110000
0092E8012P1148000549              11 2 1  00220010000200004200120000021100120020001500130001
0092E8013P1505000652              11 2 1  00340000000250005200180000023000160017001700140004
0092E8014P0685000380              11 2 1  00250000000146002900050000014800060013000400040000
0092E8015P0989000498              11 2 1  00150040000179004900130000017400110018002000130002
0092E8016P0626000306              11 2 1  00200000010098003400030000010800110012000800110000
0092E8017P0829000460              11 2 1  00170000000181006500060000013700080017002000070002
0092E8018P1193000592              11 2 1  00270010000226005200060001021800180016001500120000
0092E8019P1080000591              11 2 1  00240000000250004000090000019500130018001800200004
0092E9001P1177000592              11 2 1  00240000010238004900070001020600120016001700190002
0092E9002P0572000181              11 2 1  00130000000049000900030000009900040002000100010000
0092E9003P0255000072              11 2 1  00050000000022000700010000003000030001000200000001
0092E9004P1405000511              11 2 1  00210040000168004900130000020200140015001100140000
0092E9005P0447000158              11 2 1  00050020010048001500020000006800020006000600030000
0092E9006P0334000113              11 2 1  00090000000031000900050001004100040007000100050000
0092E9007P1325000616              11 2 1  00380000020267004800080000019900120016001400120000
0092E9008P0753000422              11 2 1  00220000010143003800030002016800150019000200090000
0092E9009P0742000295              11 2 1  00160000010095001800060000012700080010000500060003
0092E9010P0355000159              11 2 1  00080000000054001400010000006200060004000300070000
0092E9011P1041000559              11 2 1  00130010000193004700060000024700100023001300040002
0092E9012P1637000806              11 2 1  00560000000263006500090000034500200019001700090003
0092E9013P1195000489              11 2 1  00220000000170003900090001019800160011001200080003
0092E9014P1259000581              11 2 1  00140030000249005000060000021500060012001100120003
0092E9015P0161000069              11 2 1  00020000000026000900010000002300030001000100020001
0092E9016P0781000394              11 2 1  00200000000151003900090000012500110018001000090002
0092E9017P1842000851              11 2 1  00230000010286010000230000032500180021001900300005
0092E9018P0477000220              11 2 1  00090010020084002500030000007500050009000400030000
0092E9019P1416000691              11 2 1  00180000000312006600190000021800210012001400090002
0092E9020P1790000804              11 2 1  00300000000337008300180001026100120015001300320002
0092E9021P0670000334              11 2 1  00250000000124003100060002012100020011000600040002
0092E9022P1197000486              11 2 1  00310030000161003700050000021100130011000600080000
0064RComptroller                             N     1052090196301
0044CAntonacci, Robert        REP 117305 3B 
0044CAntonacci, Robert        CON 030716 3C 
0044CClifton, John            LBT 002451 3I 
0044CDi Napoli, Thomas P      DEM 142911 3A 
0044CDi Napoli, Thomas P      WOR 011629 3D 
0044CDi Napoli, Thomas P      IND 010709 3E 
0044CPortelli, Theresa M      GRE 005768 3F 
