0172I Following is a set of records pertinent to the Federal Primary held on Tuesday, June 24, 2014, originated at Suffolk County Board of Elections on July 14, 2014 at 9:48 AM
0064RRepresentative in Congress, 1st CongressC   1 0473015288501
0044CDemos, George            REP 006482 1C 
0044CZeldin, Lee M            REP 010283 1D 
0060E0001P0186000046              11 1 2  000000000000230025
0060E0002P0185000041              11 1 2  000000000100280013
0060E0003P0161000039              11 1 2  000000000000260015
0060E0004P0197000046              11 1 2  000000000000330021
0060E1001P0362000061              12 4 5 1000000000000370027
0060E1002P0400000049              12 4 5 1000000000000200038
0060E1003P0323000021              12 4 5 1000000000000100011
0060E1004P0208000015              12 4 5 1000000000100100005
0060E1005P0358000033              11 4 5 1000000000000130023
0060E1006P0523000063              11 4 5 1000000000000290038
0060E1007P0225000022              11 4 5 1000000000000130009
0060E1008P0330000037              11 2 6 2000000000000160024
0060E1009P0570000065              11 2 1 6000000000000310035
0060E1010P0560000062              11 3 3 4000000000000210042
0060E1011P0532000051              13 3 7 5000000000000090045
0060E1012P0369000029              12 512 3000000000000190013
0060E1013P0238000030              13 5 4 5000000000000120020
0060E1014P0330000047              13 7 7 5000000000000130036
0060E1015P0270000020              13 7 7 5000000000000040017
0060E1016P0307000030              13 7 7 5000000000000090022
0060E1017P0187000028              13 7 7 5000000000000110019
0060E1018P0046000007              13 7 7 5000000000000000007
0060E1019P0265000021              13 7 7 5000000000000040021
0060E1020P0248000037              13 7 7 5000000000000040036
0060E1021P0054000004              13 7 7 5000000000000020003
0060E1022P0202000022              13 7 7 5000000000000050020
0060E1023P0139000012              13 7 7 5000000000000000012
0060E1024P0126000008              13 7 7 5000000000000000008
0060E1025P0344000025              13 7 7 5000000000000100021
0060E1026P0077000003              13 3 3 4000000000000000005
0060E1027P0147000023              13 3 3 4000000000000080016
0060E1028P0392000042              13 3 3 4000000000000050039
0060E1029P0472000081              11 1 3 6000000100000300059
0060E1030P0306000040              11 1 1 6000000000000170027
0060E1031P0421000051              11 1 1 6000000000000200033
0060E1032P0179000015              11 1 2 6000000000000040011
0060E1033P0408000034              11 4 6 4000000000000110026
0060E1034P0464000036              13 5 8 5000000000000170024
0060E1035P0511000041              11 2 6 2000000000000170025
0060E1036P0335000028              12 4 4 3000000000000170011
0060E1037P0345000030              11 2 6 2000000000000100020
0060E1038P0329000044              13 3 3 6000000000000080040
0060E1039P0663000067              11 1 1 6000000000000250046
0060E1040P0557000050              11 2 1 2000000000000170041
0060E1041P0590000041              13 5 7 5000000000000110034
0060E1042P0290000038              13 3 3 6000000000000040036
0060E1043P0333000028              13 5 4 3000000000000150014
0060E1044P0243000024              13 510 5000000000000120012
0060E1045P0180000027              13 3 7 5000000000000070021
0060E1046P0381000043              13 3 3 4000000000000100035
0060E1047P0473000040              11 2 6 2000000000000140029
0060E1048P0324000044              13 7 8 5000000000000080040
0060E1049P0348000036              13 3 7 5000000000000090031
0060E1050P0268000019              12 5 4 3000000000000160004
0060E1051P0232000017              13 3 7 5000000000000040015
0060E1052P0340000047              13 3 7 5000000000100200033
0060E1053P0361000028              13 3 3 4000000000100130016
0060E1054P0242000016              12 5 4 3000000000000110008
0060E1055P0256000010              12 3 4 3000000000000040008
0060E1056P0524000044              12 512 3000000000000300017
0060E1057P0045000006              13 7 8 5000000000000040002
0060E1058P0385000050              13 5 4 5000000000000170036
0060E1059P0169000015              12 5 4 3000000000000030016
0060E1060P0269000036              12 4 5 1000000000000140022
0060E1061P0208000021              12 4 5 1000000000000030020
0060E1062P0271000014              12 4 5 1000000000000080007
0060E1063P0630000052              11 2 6 2000000000000220032
0060E1064P0289000017              13 3 7 4000000000000040014
0060E1065P0441000041              11 2 6 4000000000000230022
0060E1066P0347000014              11 2 6 2000000000000080006
0060E1067P0272000026              13 3 3 4000000000000110016
0060E1068P0373000029              11 2 6 2000000000000090021
0060E1069P0393000037              13 3 7 5000000000000080029
0060E1070P0404000040              12 512 3000000000000190022
0060E1071P0306000030              12 5 4 3000000000000090026
0060E1072P0387000064              13 1 3 6000000000000060063
0060E1073P0663000082              11 1 3 6000000000000270062
0060E1074P0393000021              13 3 7 5000000000000060020
0060E1075P0212000023              12 4 4 3000000000000070019
0060E1076P0331000030              12 5 4 3000000000000150015
0060E1077P0272000021              13 5 4 5000000000000050017
0060E1078P0396000035              13 5 4 3000000000000120023
0060E1079P0470000069              13 3 3 6000000000000140058
0060E1080P0415000052              13 3 3 6000000000000070045
0060E1081P0211000018              13 510 5000000000000080010
0060E1082P0368000049              13 3 7 5000000000000230035
0060E1083P0267000028              12 5 4 3000000000000130015
0060E1084P0015000002              13 2 3 6000000000000010001
0060E1085P0071000005              13 3 4 3000000000000010009
0060E1086P0230000021              12 4 5 1000000000000110011
0060E1087P0328000031              12 4 5 1000000000000230009
0060E1088P0148000020              11 4 5 1000000000000100012
0060E1089P0508000037              12 4 5 1000000000000170020
0060E1090P0343000034              12 4 5 1000000000000120026
0060E1091P0226000018              11 4 5 1000000000000100011
0060E1092P0509000046              12 512 3000000000000220026
0060E1093P0416000053              11 2 6 2000000000000220034
0060E1094P0270000017              12 4 4 3000000000000020016
0060E1095P0232000019              12 4 5 1000000000000060016
0060E1096P0239000012              11 3 7 4000000000000070005
0060E1097P0417000028              11 3 7 4000000000000100020
0060E1098P0681000051              11 2 6 2000000000000170036
0060E1099P0488000049              12 4 4 3000000000000360025
0060E1100P0450000044              12 5 4 3000000000000170027
0060E1101P0220000022              12 4 5 1000000000000110012
0060E1102P0362000050              12 4 5 1000000000000300024
0060E1103P0243000029              13 7 7 5000000000000030029
0060E1104P0400000046              13 1 3 6000000000000110040
0060E1105P0223000012              12 512 3000000000000020010
0060E1106P0281000029              13 5 4 5000000000000140017
0060E1107P0396000028              13 5 8 5000000000000060023
0060E1108P0359000029              12 4 5 1000000000000160017
0060E1109P0314000031              12 4 4 3000000000000160015
0060E1110P0300000015              12 4 5 1000000000000150007
0060E1111P0317000050              12 4 5 1000000000000200032
0060E1112P0231000027              12 5 5 1000000000000210011
0060E1113P0088000008              11 3 1 6000000000000050005
0060E1114P0363000018              13 7 8 5000000000000030016
0060E1115P0264000016              13 3 7 5000000000000070012
0060E1116P0519000034              12 4 5 1000000000000180019
0060E1117P0277000033              11 4 5 1000000000000130020
0060E1118P0225000026              11 4 5 1000000000000130015
0060E1119P0368000042              13 3 7 5000000000000050038
0060E1120P0473000117              12 3 4 4000000000000640060
0060E1121P0594000059              12 4 5 1000000000000200040
0060E1122P0548000042              11 2 6 2000000000000150028
0060E1123P0282000035              13 3 3 4000000000000060032
0060E1124P0539000046              12 5 4 3000000000000190029
0060E1125P0294000017              12 5 4 3000000000000100012
0060E1126P0546000065              12 512 3000000000000260041
0060E1127P0267000024              12 4 4 3000000000000090017
0060E1128P0315000017              11 3 7 4000000000000080014
0060E1129P0245000018              12 4 5 1000000000000090011
0060E1130P0195000033              12 4 4 2000000000000210014
0060E1131P0279000018              13 3 7 5000000000000080016
0060E1132P0524000033              12 5 4 3000000000000140020
0060E1133P0303000029              12 3 4 4000000000000110019
0060E1134P0338000035              11 4 5 1000000000100190017
0060E1135P0534000051              11 2 6 2000000000000150043
0060E1136P0420000046              11 2 6 2000000000000200027
0060E1137P0144000007              11 4 7 4000000000000010006
0060E1138P0992000073              13 3 8 5000000000000260053
0060E1139P0572000061              13 3 3 6000000000000190050
0060E1140P0489000031              11 4 6 1000000000000210012
0060E1141P0364000023              11 2 1 6000000000000070020
0060E1142P0511000058              12 512 3000000000000290032
0060E1143P0314000020              11 4 5 1000000000100150012
0060E1144P0250000026              13 3 7 5000000000100090022
0060E1145P0388000039              13 5 4 3000000000000160023
0060E1146P0178000014              12 4 4 1000000000000090005
0060E1147P0545000034              12 4 5 2000000000100160020
0060E1148P0387000044              12 4 5 1000000000000110038
0060E1149P0248000019              13 3 7 4000000000000070015
0060E1150P0293000016              13 3 3 4000000000000050013
0060E1151P0427000068              11 1 1 6000000000000230047
0060E1152P0590000038              12 5 4 3000000000000230022
0060E1153P0214000022              11 2 6 2000000000000100014
0060E1154P0366000039              11 1 1 6000000000000100030
0060E1155P0278000023              13 7 7 5000000000000020022
0060E1156P0288000011              13 3 3 6000000000000020011
0060E1157P0757000057              12 3 4 3000000000100390021
0060E1158P0217000024              12 512 3000000000000100019
0060E1159P0428000042              11 2 6 2000000000000170030
0060E1160P0368000044              13 1 3 6000000000000050044
0060E1161P0268000006              12 4 5 1000000000000030003
0060E1162P0162000015              12 5 4 3000000000000070013
0060E1163P0319000025              12 4 5 1000000000000120014
0060E1164P0506000039              13 5 8 5000000000000180021
0060E1165P0386000036              12 4 5 1000000000000150023
0060E1166P0568000041              12 4 5 1000000000000270020
0060E1167P0325000084              11 2 6 2000000000000480042
0060E1168P0279000023              11 4 6 2000000000000110013
0060E1169P0550000039              11 4 6 2000000000000230019
0060E1170P0283000028              12 4 5 1000000000000120016
0060E1171P0305000040              13 7 7 5000000000000090032
0060E1172P0131000005              13 512 3000000000000020003
0060E1173P0320000039              13 3 7 5000000000000020039
0060E1174P0343000038              13 5 4 5000000000000060035
0060E1175P0394000048              12 5 4 3000000000100280020
0060E1176P0337000038              13 5 4 3000000000100250019
0060E1177P0187000015              12 4 5 1000000000000070012
0060E1178P0312000032              11 4 5 1000000000000180017
0060E1179P0703000081              12 512 3000000000000430042
0060E1180P0345000025              12 4 4 3000000000000110014
0060E1181P0164000049              11 2 6 2000000000000170035
0060E1182P0049000001              11 4 5 2000000000000010000
0060E1183P0229000015              13 5 4 5000000000000060011
0060E1184P0282000018              11 1 3 6000000000000030017
0060E1185P0150000012              11 2 6 2000000000000070006
0060E1186P0293000018              13 5 4 3000000000000050013
0060E1187P0381000034              11 2 6 2000000000000090025
0060E1188P0391000048              11 2 6 2000000000000170033
0060E1189P0390000028              11 2 6 2000000000000100021
0060E1190P0222000029              11 2 6 2000000000000050024
0060E1191P0239000023              12 4 5 1000000000000130013
0060E1192P0408000036              11 3 7 4000000000000180022
0060E1193P0465000052              11 2 6 2000000000000140040
0060E1194P0212000014              13 3 7 4000000000000070009
0060E1195P0377000043              11 2 6 2000000000000180025
0060E1196P0538000056              13 3 7 5000000000000140049
0060E1197P0175000053              11 2 6 2000000000000340029
0060E1198P0391000113              11 2 6 4000000000000710052
0060E1199P0194000017              11 2 6 4000000000000090013
0060E1200P0147000007              11 4 7 4000000000000030008
0060E1201P0679000048              11 4 6 2000000000000260029
0060E1202P0153000008              11 4 6 2000000000000060003
0060E1203P0233000031              11 2 1 6000000000000150018
0060E1204P0314000034              13 1 3 6000000000000040032
0060E1205P0443000032              11 4 5 1000000000000160018
0060E1206P0346000046              12 4 4 3000000000000240025
0060E1207P0199000020              11 1 3 6000000000000040017
0060E1208P0363000022              11 1 3 6000000000000050018
0060E1209P0293000021              12 4 5 2000000000000080014
0060E1210P0246000049              12 3 7 4000000000000220028
0060E1211P0351000023              13 5 7 5000000000000120013
0060E1212P0143000011              11 2 5 1000000000000050007
0060E1213P0265000030              11 3 3 4000000000000100025
0060E1214P0258000021              13 3 7 5000000000000090014
0060E1215P0298000031              13 1 3 6000000000000060029
0060E1216P0825000061              11 2 6 2000000000000410024
0060E1217P0105000003              13 5 4 5000000000000010002
0060E1218P0194000016              12 3 7 4000000000000090009
0060E1219P0169000019              12 512 3000000000000080011
0060E1220P0077000005              11 2 6 2000000000000020004
0060E1221P0097000008              12 512 3000000000000050003
0060E1222P0169000012              13 512 3000000000000100002
0060E1223P0074000000              12 4 5 1000000000000080006
0060E1224P0165000016              11 4 5 1000000000000070010
0060E1225P0282000033              11 4 5 1000000000000130021
0060E1226P0161000018              11 4 5 1000000000000080011
0060E1227P0643000060              11 2 1 6000000000100280038
0060E1228P0290000019              13 3 3 4000000000000050014
0060E1229P0277000034              13 3 3 6000000000000020037
0060E1230P0439000035              12 5 4 3000000000000130024
0060E1231P0207000011              13 510 5000000000000070005
0060E1232P0273000018              12 3 4 3000000000000060014
0060E1233P0234000027              12 4 5 1000000000000090020
0060E1234P0334000018              13 3 3 4000000000000080012
0060E1235P0274000030              13 3 4 5000000000000050025
0060E1236P0301000020              11 2 6 2000000000000080014
0060E1237P0392000015              12 4 4 3000000000000120012
0060E1238P0282000014              13 5 4 5000000000000090005
0060E1239P0344000033              11 4 5 1000000000000090028
0060E1240P0264000025              13 3 7 5000000000000060021
0060E1241P0323000019              12 3 4 4000000000000150012
0060E1242P0414000017              12 5 4 3000000000000090008
0060E1243P0230000012              12 4 6 4000000000000060007
0060E1244P0162000016              13 5 4 3000000000100030013
0060E1245P0638000040              11 4 6 2000000000000220019
0060E1246P0274000043              13 3 7 5000000000000060037
0060E1247P0335000020              13 3 7 4000000000000080017
0060E1248P0278000020              11 2 6 2000000000000070014
0060E1249P1005000071              13 3 3 6000000000000170063
0060E1250P0338000025              12 4 4 3000000000000160012
0060E1251P0313000022              12 4 5 1000000000000180017
0060E1252P0356000019              11 4 6 2000000000000120007
0060E1253P0256000017              11 3 7 4000000000000070015
0060E1254P0265000010              13 3 7 5000000000000050006
0060E1255P0350000018              11 2 6 4000000000000050016
0060E1256P0642000045              11 3 6 4000000000100140034
0060E1257P0278000011              11 4 6 2000000000000030009
0060E1258P0170000012              11 4 6 2000000000000040009
0060E1259P0168000022              12 3 7 4000000000000140010
0060E1260P0301000026              11 2 6 2000000000000130013
0060E1261P0137000016              12 4 7 4000000000000050012
0060E1262P0217000010              12 3 4 3000000000000070005
0060E1263P0713000070              11 2 5 2000000000000320042
0060E1264P0578000050              11 2 1 6000000000000240028
0060E1265P1144000078              11 1 1 6000000000000250059
0060E1266P0280000024              13 3 3 4000000000000030021
0060E1267P0327000020              11 2 6 2000000000000110010
0060E1268P0464000047              13 1 3 6000000000000160041
0060E1269P0248000015              11 3 3 4000000000000040012
0060E1270P0414000140              11 2 6 2000000000000880061
0060E1271P0290000016              13 5 8 5000000000000030013
0060E1272P0413000037              11 1 2 6000000000000100027
0060E1273P0295000036              13 1 3 4000000000000040033
0060E1274P0245000020              11 1 3 6000000000000020018
0060E1275P0244000009              11 3 7 4000000000000070004
0060E1276P0079000004              12 4 4 4000000000000030001
0060E1277P0129000006              13 3 3 4000000000000010007
0060E1278P0010000000              13 3 3 6000000000000000000
0060E1279P0235000021              11 1 2 6000000000000120011
0060E1280P0000000000              11 3 1 6000000000000000000
0060E1281P0037000006              13 2 1 6000000000000010005
0060E1282P0003000000              13 5 4 3000000000000000000
0060E1283P0393000031              13 3 1 6000000000000090024
0060E1284P0424000096              11 2 6 4000000000000380063
0060E1285P0324000040              11 1 3 6000000000000110033
0060E1286P0438000024              11 2 6 2000000000000070017
0060E1287P0249000018              11 1 3 6000000000000020016
0060E1288P0359000028              11 4 5 1000000000000150017
0060E1289P0214000008              13 3 3 4000000000000070003
0060E1290P0466000048              11 1 1 6000000000000250027
0060E1291P0298000023              11 3 3 6000000000000040022
0060E1292P0332000019              12 4 5 1000000000000180005
0060E1293P0231000028              11 2 6 2000000000000100020
0060E1294P0308000020              13 5 4 3000000000000110011
0060E1295P0000000000              13 3 7 5000000000000000000
0060E1296P0004000000              13 3 3 6000000000000000000
0060E3046P0089000001              13 810  000000000000010001
0060E3098P0267000028              13 610  000000000000100022
0060E3112P0450000052              13 810  000000000000180036
0060E3134P0433000049              13 810  000000000000280021
0060E3138P0280000018              13 810  000000000000050013
0060E3140P0352000033              14 5 8  000000000000160017
0060E3151P0387000033              13 810  000000000000140023
0060E3158P0011000001              13 610  000000000000000001
0060E3177P0434000041              13 810  000000000000170025
0060E3179P0260000014              13 5 8  000000000000060009
0060E3191P0000000000              13 810  000000000000000000
0060E5001P0316000033              12 813  000000000000150019
0060E5002P0595000067              12 813  000000000000330038
0060E5005P0421000024              12 812  000000000200090016
0060E5006P0364000026              12 812  000000000000100020
0060E5008P0375000038              12 813  000000000000170023
0060E5009P0453000054              12 813  000000000000210034
0060E5010P0385000048              12 812  000000000000150035
0060E5011P0524000040              12 812  000000000000220022
0060E5013P0641000077              12 812  000000000000270052
0060E5015P0486000051              12 813  000000000000190037
0060E5016P0297000033              12 812  000000000000110023
0060E5017P0274000026              12 812  000000000000120017
0060E5019P0220000021              12 812  000000000000120011
0060E5020P0403000064              12 813  000000000000280040
0060E5021P0457000060              12 812  000000000000200044
0060E5025P0192000012              12 812  000000000000030010
0060E5026P0606000066              12 813  000000000000250045
0060E5027P0326000029              12 813  000000000100120017
0060E5028P0352000026              12 812  000000000000100018
0060E5029P0476000054              12 813  000000000000220036
0060E5033P0485000060              12 813  000000000000190045
0060E5034P0294000018              12 812  000000000000050015
0060E5036P0405000034              12 812  000000000000150025
0060E5037P0382000041              12 812  000000000000190022
0060E5039P0344000029              12 812  000000000000180011
0060E5040P0356000054              12 813  000000000000180043
0060E5044P0275000020              12 813  000000000000130009
0060E5045P0385000052              12 812  000000000000180035
0060E5049P0233000017              12 812  000000000000090012
0060E5050P0287000028              12 813  000000000000160012
0060E5051P0282000038              12 812  000000000000120029
0060E5052P0275000017              12 812  000000000000090010
0060E5053P0371000056              12 812  000000000000150045
0060E5055P0361000034              12 812  000000000000200022
0060E5056P0624000084              12 813  000000000000290055
0060E5058P0260000054              12 812  000000000000180037
0060E5059P0399000045              12 812  000000000000230025
0060E5060P0591000062              12 813  000000000000220044
0060E5061P0339000059              12 813  000000000000210038
0060E5063P0266000037              12 812  000000000000090029
0060E5065P0385000023              12 812  000000000000090014
0060E5067P0379000033              12 812  000000000000180016
0060E5068P0209000020              12 812  000000000000080014
0060E5069P0293000020              12 812  000000000000130008
0060E5070P0395000028              12 813  000000000100140015
0060E5072P0379000058              12 813  000000000000260033
0060E5073P0220000015              12 812  000000000000060011
0060E5074P0285000029              12 813  000000000000140024
0060E5076P0453000057              12 812  000000000000190041
0060E5077P0246000015              12 812  000000000000060009
0060E5078P0373000042              12 812  000000100000150029
0060E5079P0595000126              12 813  000000000100570071
0060E5080P0309000029              12 812  000000000000160017
0060E5081P0396000036              12 812  000000000000140026
0060E5082P0340000041              12 813  000000000000240021
0060E5083P0264000040              12 813  000000000000230019
0060E5084P0367000036              12 813  000000000000220017
0060E5086P0248000017              12 812  000000000000120008
0060E5091P0297000021              12 812  000000000000120009
0060E5092P0342000026              12 812  000000000000160011
0060E6001P0236000025              11 1 2  000000000000160010
0060E6002P0196000035              11 1 2  000000000000150023
0060E6003P0244000028              11 1 2  000000000000160016
0060E6004P0400000043              11 1 2  000000000000180026
0060E6005P0239000014              11 1 2  000000000000020013
0060E6006P0200000020              11 1 2  000000000000170006
0060E6007P0200000015              11 1 2  000000000000070012
0060E6008P0315000048              11 1 2  000000000000220030
0060E6009P0412000059              11 1 2  000000000100280030
0060E6010P0181000014              11 1 2  000000000000050009
0060E6011P0549000041              11 1 2  000000000000160028
0060E6012P0322000026              11 1 2  000000000000130017
0060E6013P0219000015              11 1 2  000000000000120003
0060E6014P0214000036              11 1 2  000000000000110025
0060E6015P0304000029              11 1 2  000000000000180013
0060E6016P0426000048              11 1 2  000000100000260025
0060E6017P0252000024              11 1 2  000000000000100018
0060E6018P0366000044              11 1 2  000000000000270021
0060E6019P0132000009              11 1 2  000000000000060004
0060E6020P0365000046              11 1 2  000000000000170034
0060E6021P0104000007              11 1 2  000000000000010007
0060E6022P0214000043              11 1 2  000000000000140029
0060E6023P0628000066              11 1 2  000000000000410038
0060E6024P0264000024              11 1 2  000000000000180012
0060E6025P0392000044              11 1 2  000000000000170031
0060E6026P0401000037              11 1 2  000000000000180020
0060E6027P0532000043              11 1 2  000000000000140032
0060E6028P0346000042              11 1 2  000000000000230025
0060E6029P0301000028              11 1 2  000000000000110018
0060E6030P0225000014              11 1 2  000000000000030012
0060E6031P0269000031              11 1 2  000000000000110023
0060E6032P0359000044              11 1 2  000000000000100038
0060E6033P0257000032              11 1 2  000000000000170018
0060E6034P0289000033              11 1 2  000000000000090027
0060E6035P0356000040              11 1 2  000000000000170024
0060E6036P0296000034              11 1 2  000000000000200016
0060E6037P0331000032              11 1 2  000000000000130023
0060E6038P0212000026              11 1 2  000000000000140014
0060E6039P0250000024              11 1 2  000000000000150009
0060E6040P0243000031              11 1 2  000000000000130020
0060E6041P0145000007              11 1 2  000000000000050004
0060E6042P0229000029              11 1 2  000000000000090020
0060E7001P0134000010              11 1 2  000000000100050010
0060E7002P0144000018              11 1 2  000000000000070011
0060E7003P0197000021              11 1 2  000000000000070014
0060E7004P0255000027              11 1 2  000000000000100020
0060E7005P0147000017              11 1 2  000000000000110008
0060E7006P0126000012              11 1 2  000000000000060008
0060E7007P0102000011              11 1 2  000000000000030008
0060E7008P0283000012              11 1 2  000000000000040009
0060E7009P0203000025              11 1 2  000000000000090018
0060E7010P0376000035              11 1 2  000000000000160023
0060E7011P0295000032              11 1 2  000000100000130022
0060E7012P0236000028              11 1 2  000000000100120020
0060E7013P0137000012              11 1 2  000000000000050008
0060E7014P0179000006              11 1 2  000000000000030003
0060E7015P0198000015              11 1 2  000000000000070009
0060E7016P0262000025              11 1 2  000000000000090016
0060E7017P0255000021              11 1 2  000000000000070019
0060E7018P0229000023              11 1 2  000000000000130011
0060E7019P0196000017              11 1 2  000000000100080009
0060E8001P0078000004              11 2 1  000000000000010003
0060E8002P0227000039              11 2 1  000000000000190020
0060E8003P0229000044              11 2 1  000000000000180029
0060E8004P0245000044              11 2 1  000000000000220027
0060E8005P0108000018              11 2 1  000000000000110009
0060E8006P0171000021              11 2 1  000000000000090014
0060E8007P0254000029              11 2 1  000000000100150023
0060E8008P0407000052              11 2 1  000000000100220031
0060E8009P0575000088              11 2 1  000000000000200073
0060E8010P0278000037              11 2 1  000000000000150024
0060E8011P0357000060              11 2 1  000000000000340030
0060E8012P0444000065              11 2 1  000000000000400029
0060E8013P0551000052              11 2 1  000000000100080043
0060E8014P0312000049              11 2 1  000000000200160033
0060E8015P0388000040              11 2 1  000000000000180025
0060E8016P0226000027              11 2 1  000000000000060022
0060E8017P0359000069              11 2 1  000000000000270047
0060E8018P0508000042              11 2 1  000000000000150035
0060E8019P0463000081              11 2 1  000000000000370050
0060E9001P0398000065              11 2 1  000000000000290038
0060E9002P0117000016              11 2 1  000000000000040012
0060E9003P0068000009              11 2 1  000000000000030006
0060E9004P0438000055              11 2 1  000000000000290034
0060E9005P0141000017              11 2 1  000000000000060013
0060E9006P0087000011              11 2 1  000000000000040009
0060E9007P0505000051              11 2 1  000000000000190035
0060E9008P0300000050              11 2 1  000000000000170036
0060E9009P0224000036              11 2 1  000000000000210021
0060E9010P0104000011              11 2 1  000000000000040009
0060E9011P0438000086              11 2 1  000000000100360056
0060E9012P0608000099              11 2 1  000000000000430071
0060E9013P0358000042              11 2 1  000000000000110034
0060E9014P0538000074              11 2 1  000000000000300047
0060E9015P0057000000              11 2 1  000000000000000001
0060E9016P0324000060              11 2 1  000000000000300031
0060E9017P0647000068              11 2 1  000000000000210052
0060E9018P0184000017              11 2 1  000000000000100012
0060E9019P0522000074              11 2 1  000000000000440035
0060E9020P0677000051              11 2 1  000000000000170037
0060E9021P0258000037              11 2 1  000000000000130026
0060E9022P0366000045              11 2 1  000000000000100039
0064RRepresentative in Congress, 3rd CongressC   3 0210005181901
0044CLabate, Stephen A        REP 001066 1B 
0044CLally, Grant M           REP 001294 1A 
0060E2001P0424000018              351018  000000000000100008
0060E2002P0331000013              351018  000000000000070007
0060E2003P0293000014              351018  000000000000040011
0060E2004P0243000012              351018  000000000000040008
0060E2005P0125000008              351018  000000000000020007
0060E2006P0205000009              351018  000000000000010008
0060E2007P0121000003              351018  000000000000020002
0060E2008P0312000020              351218  000000000000090012
0060E2009P0131000007              351018  000000000000050004
0060E2010P0202000011              351018  000000000100080005
0060E2011P0109000003              351017  000000000000030000
0060E2012P0091000007              351017  000000000000020005
0060E2013P0272000011              351218  000000000000000012
0060E2014P0441000015              351218  000000000000050012
0060E2015P0168000007              351218  000000000000060001
0060E2016P0346000014              351218  000000000000110004
0060E2017P0326000010              351213  000000000000020009
0060E2018P0218000009              321213  000000000000060003
0060E2019P0262000011              321213  000000000000090004
0060E2020P0325000016              351216  000000000000060011
0060E2021P0225000003              321216  000000000000010002
0060E2022P0338000011              351017  000000000000070004
0060E2023P0223000017              351017  000000000000090008
0060E2024P0184000006              351218  000000000000040002
0060E2025P0183000007              351018  000000000000030005
0060E2026P0066000002              351018  000000000100000003
0060E2027P0156000003              351017  000000000000020001
0060E2028P0276000011              321018  000000000000090007
0060E2029P0238000008              351018  000000000000020010
0060E2030P0284000009              351018  000000000000050005
0060E2031P0284000007              351018  000000000000030004
0060E2032P0252000010              351018  000000000000000010
0060E2033P0266000008              351017  000000000000010007
0060E2034P0119000003              351017  000000000000030001
0060E2035P0230000010              321213  000000000000020008
0060E2036P0312000010              351016  000000000000050008
0060E2037P0295000018              351018  000000000000100009
0060E2038P0293000012              351218  000000000000040008
0060E2039P0280000016              321213  000000000000080009
0060E2040P0349000025              351218  000000000100080017
0060E2041P0497000018              321016  000000000000050017
0060E2042P0259000007              351017  000000000000030004
0060E2043P0292000024              351218  000000000000120015
0060E2044P0070000008              351218  000000000000040006
0060E2045P0367000007              351018  000000000000010006
0060E2046P0193000003              351018  000000000000010003
0060E2047P0171000017              351218  000000000000080009
0060E2048P0280000013              351017  000000000000090005
0060E2049P0212000007              351018  000000000000040003
0060E2050P0276000010              321213  000000000000060004
0060E2051P0277000007              351216  000000000000030005
0060E2052P0339000018              351016  000000000000090009
0060E2053P0220000013              351018  000000000000050010
0060E2054P0116000004              351018  000000000000090000
0060E2055P0422000018              351218  000000000000110007
0060E2056P0209000011              351017  000000000000070005
0060E2057P0185000006              321213  000000000000040003
0060E2058P0247000010              351017  000000000000030007
0060E2059P0182000009              351017  000000000000000010
0060E2060P0505000012              321213  000000000000060007
0060E2061P0178000011              351017  000000000000050007
0060E2062P0202000012              351017  000000000000050008
0060E2063P0057000001              351018  000000000000000001
0060E2064P0224000012              351018  000000000000020010
0060E2065P0212000016              351218  000000000100050011
0060E2066P0326000005              321213  000000000000010005
0060E2067P0350000006              321218  000000000000030004
0060E2068P0360000027              351213  000000000000150013
0060E2069P0316000012              351216  000000000000050008
0060E2070P0185000009              351017  000000000000090000
0060E2071P0191000008              351017  000000000000040005
0060E2072P0304000011              351017  000000000000050008
0060E2073P0170000010              351018  000000000000050006
0060E2074P0380000011              321213  000000000000060007
0060E2075P0216000011              321213  000000000000050007
0060E2076P0426000026              351016  000000000000040025
0060E2077P0302000011              351216  000000000000070007
0060E2078P0322000010              351016  000000000400040003
0060E2079P0163000007              351017  000000000000020005
0060E2080P0059000005              351218  000000000000010004
0060E2081P0303000025              351218  000000000000150011
0060E2082P0269000007              351017  000000000000060002
0060E2083P0241000011              351017  000000000100010009
0060E2084P0362000020              351218  000000000100120012
0060E2085P0030000000              351018  000000000000000000
0060E2086P0197000009              351213  000000000000040005
0060E2087P0188000007              351216  000000000000010006
0060E2088P0174000007              351017  000000000000030004
0060E2089P0121000008              351018  000000000000010007
0060E2090P0185000011              351218  000000000000080004
0060E2091P0319000016              351016  000000000000040011
0060E2092P0162000007              351017  000000000000050003
0060E2093P0188000010              351218  000000000000070004
0060E2094P0225000005              351018  000000000000030003
0060E2095P0164000013              351216  000000000000080008
0060E2096P0206000005              351017  000000000000030006
0060E2097P0359000011              351213  000000000000060005
0060E2098P0420000014              351016  000000000000050010
0060E2099P0222000015              351216  000000000000080009
0060E2100P0374000011              321216  000000000000030009
0060E2101P0509000014              351017  000000000000070009
0060E2102P0399000018              351016  000000000000130008
0060E2103P0254000009              351213  000000000000060006
0060E2104P0169000009              351018  000000000000020007
0060E2105P0118000006              351016  000000000000060000
0060E2106P0166000007              351213  000000000000080000
0060E2107P0329000010              321018  000000000000020008
0060E2108P0331000020              351216  000000000000090011
0060E2109P0379000003              321017  000000000000010004
0060E2110P0292000019              351018  000000000000090010
0060E2111P0164000002              351218  000000000000010001
0060E2112P0528000015              351018  000000000000100012
0060E2113P0327000016              351218  000000000000080009
0060E2114P0267000006              321018  000000000000050005
0060E2115P0109000004              321213  000000000000030001
0060E2116P0223000018              351218  000000000000040014
0060E2117P0192000008              351216  000000000000070003
0060E2118P0219000005              321216  000000000000030002
0060E2119P0440000024              351018  000000000000050019
0060E2120P0245000007              321216  000000000000010006
0060E2121P0235000016              351018  000000000000040013
0060E2122P0280000008              321213  000000000000010009
0060E2123P0255000017              351018  000000000000030015
0060E2124P0340000017              351218  000000000000060012
0060E2125P0377000002              321016  000000000000010001
0060E2126P0249000018              351218  000000000000150005
0060E2127P0325000011              351213  000000000000070009
0060E2128P0312000012              351018  000000000100040007
0060E2129P0284000012              351218  000000000000080006
0060E2130P0205000006              321213  000000000000030003
0060E2131P0233000014              351216  000000000000080007
0060E2132P0157000007              351018  000000000000010006
0060E2133P0168000004              321017  000000000000040000
0060E2134P0312000013              351016  000000000000020011
0060E2135P0306000007              351016  000000000000070000
0060E2136P0303000013              321216  000000000000020011
0060E2137P0191000007              321016  000000000000040003
0060E2138P0259000005              321017  000000000000040001
0060E2139P0208000004              351016  000000000000000005
0060E2140P0349000010              351218  000000000000050005
0060E2141P0158000003              351218  000000000000010003
0060E2142P0192000011              321213  000000000000050006
0060E2143P0216000011              351017  000000000000010011
0060E2144P0491000018              321016  000000000000130008
0060E2145P0209000007              321017  000000000000010006
0060E2146P0064000003              321016  000000000000020001
0060E2147P0189000003              351016  000000000000020004
0060E2148P0190000003              321216  000000000000040001
0060E2149P0210000003              351218  000000000000030000
0060E2150P0103000001              351018  000000000000010001
0060E2151P0266000003              321017  000000000100010001
0060E2152P0092000003              321218  000000000000050000
0060E2153P0218000023              351218  000000000000100014
0060E2154P0160000010              351018  000000000000060006
0060E2155P0197000014              351017  000000000000070008
0060E2156P0138000004              351218  000000000000000005
0060E2157P0162000006              351216  000000000000000005
0060E2158P0243000010              321018  000000000000050005
0060E2159P0210000018              351216  000000000000160004
0060E2160P0161000010              351018  000000000000070003
0060E2161P0156000006              351213  000000000000040002
0060E2162P0469000011              351017  000000000000080007
0060E2163P0308000009              351018  000000000000050004
0060E2164P0171000003              351218  000000000000020003
0060E2165P0230000017              321216  000000000000130006
0060E2166P0175000006              321017  000000000000040002
0060E2167P0162000004              351016  000000000000020003
0060E2168P0265000016              351018  000000000000070009
0060E2169P0226000009              321213  000000000000060005
0060E2170P0107000008              321016  000000000000010007
0060E2171P0089000002              351017  000000000000020000
0060E2172P0013000000              321017  000000000000000000
0060E2173P0008000000              321018  000000000000000000
0060E2174P0023000001              351218  000000000000010000
0060E2175P0096000001              351216  000000000000010000
0060E2176P0006000000              321017  000000000000000000
0060E2177P0025000000              351017  000000000000000000
0060E2178P0242000007              351017  000000000000070000
0060E5003P0270000015              32 813  000000000000090007
0060E5004P0279000015              32 813  000000000100030013
0060E5007P0262000012              32 813  000000000100100005
0060E5012P0352000025              32 813  000000000000150011
0060E5014P0313000013              32 812  000000000000040010
0060E5018P0219000011              32 813  000000000000060005
0060E5022P0460000023              32 812  000000000000120014
0060E5023P0262000011              32 813  000000000000080004
0060E5024P0266000011              32 813  000000000000030008
0060E5030P0216000005              32 812  000000000000010004
0060E5031P0342000009              32 813  000000000000030006
0060E5032P0153000013              32 813  000000000000070007
0060E5035P0389000016              32 813  000000000000090009
0060E5038P0579000037              32 813  000000000000190021
0060E5041P0147000003              32 812  000000000000020001
0060E5042P0294000014              32 812  000000000100090004
0060E5043P0241000016              32 813  000000000200050009
0060E5046P0191000007              32 812  000000000100020005
0060E5047P0311000009              32 813  000000000000040005
0060E5048P0192000003              32 812  000000000000010002
0060E5054P0607000011              32 813  000000000100060005
0060E5057P0418000020              32 813  000000000100090012
0060E5062P0182000018              32 812  000000000000030015
0060E5064P0560000026              32 813  000000000100180008
0060E5066P0187000009              32 812  000000000000080002
0060E5071P0181000014              32 813  000000000000130003
0060E5075P0320000008              32 812  000000000000040004
0060E5085P0381000013              32 813  000000000000080008
0060E5087P0220000009              32 812  000000000000060005
0060E5088P0214000006              32 813  000000000000050002
0060E5089P0229000005              32 812  000000000000030003
0060E5090P0165000010              32 812  000000000000050005
