0180I Following is a set of records pertinent to the General Election held on Tuesday, November 6, 2012, originated at Suffolk County Board of Elections on January 16, 2013 at 10:35 AM
0064RPresident                               U     1051090218801
0044CGOODE, VIRGIL            CST 000491 1I 
0044CJOHNSON, GARY            LBT 003551 1H 
0044CLINDSAY, PETA            PSL 000127 1G 
0044COBAMA, BARACK            DEM 263867 1A 
0044COBAMA, BARACK            WOR 010963 1D 
0044CROMNEY, MITT             REP 226077 1B 
0044CROMNEY, MITT             CON 033271 1C 
0044CSTEIN, JILL              GRE 002306 1F 
0084E0001P0629000472              11 1 1  000100000100000004000002510007017700290002
0084E0002P0574000464              11 1 1  000400000100000005000002370014016400350004
0084E0003P0501000385              11 1 1  000400000000000000000102160013011900280004
0084E0004P0596000459              11 1 1  000700000200000003000002570005015400300001
0084E1001P1184000821              12 4 5 1002600000000030008000003750017032500580009
0084E1002P1134000845              12 4 5 1000200000000000014000103800009038400480007
0084E1003P0992000712              12 4 5 1000300000000000003000003560008028300540005
0084E1004P0621000456              12 4 5 1000100000100010004000002460011016300260003
0084E1005P1021000738              11 4 5 1000200100000010006000003430011033600340004
0084E1006P1528001061              11 4 5 1000700000200000004000105280015043300660005
0084E1007P0594000406              11 4 5 1000300000100000002000001920005017300290001
0084E1008P0881000634              11 2 6 2000100100100000007000102440010032600370006
0084E1009P1623001165              11 2 1 6000300200100030009000004970013054100950001
0084E1010P1508001014              11 3 3 4000200100200000006000004830028042600580008
0084E1011P1482000954              13 3 7 5000800200100010006000004440031039300650003
0084E1012P1070000769              12 512 3000400000000010006000103370016036100420001
0084E1013P0563000353              13 5 4 5000200000000000005000001350006017300300002
0084E1014P0875000644              13 7 7 5000700000100010003000002700005030000560001
0084E1015P0981000664              13 7 7 5000500100100000001000003780019022000340005
0084E1016P1068000717              13 7 7 5000300200300000005000104010024024100310006
0084E1017P0590000407              13 7 7 5000100000000000007000002200012015300130001
0084E1018P0165000109              13 7 7 5000100300000000000000000650002002900050004
0084E1019P0954000627              13 7 7 5000500200000000007000303400016020700410006
0084E1020P0834000588              13 7 7 5000100000000000008000003110020020100400007
0084E1021P0211000124              13 7 7 5000300000100000003000000890004002000030001
0084E1022P0586000418              13 7 7 5000300000000000007000002250011014000310001
0084E1023P0504000318              13 7 7 5000100100000000007000001860010008600260001
0084E1024P0428000280              13 7 7 5000300000400000002000001440010009600190002
0084E1025P1125000717              13 7 7 5000600000000010003000103850021025900390002
0084E1026P0488000307              13 3 3 4001200000000000002000002640009001900010000
0084E1027P0529000397              13 3 3 4000100000000000005000002420005011900230002
0084E1028P1090000747              13 3 3 4000800000100010006000003590022030800410001
0084E1029P1018000759              11 1 3 6000800000200000003000002540012043200460002
0084E1030P0633000461              11 1 1 6000600100000000001000001730006023100430000
0084E1031P1131000819              11 1 2 6000400000400010006000103560026037500420004
0084E1032P0444000306              11 1 1 6000000100000000002000001190008014100310004
0084E1033P1356000857              11 4 6 2000400300000000001000004890023030400270006
0084E1034P1324000796              13 5 7 5000400100100010004000003410019037700460002
0084E1035P1333000887              11 2 6 2000400200100000006000003880014036900960007
0084E1036P1129000679              12 4 4 3000400700100020005000003310018027600330002
0084E1037P0942000598              11 2 6 2000000000000000004000102630026024600550003
0084E1038P1160000634              13 3 3 6000600000100000008000003070036023600330007
0084E1039P1756001214              11 1 1 6000700300400010004000005760034050800650012
0084E1040P1519000931              11 2 1 2000500300100040010000003440022044000980004
0084E1041P1751001098              13 5 7 5000400100300030007000005620039039500760008
0084E1042P0949000501              13 3 3 6000500000100000000000002680020017000300007
0084E1043P0869000561              13 5 4 3000000000200000005000002440017025300360004
0084E1044P0712000472              13 512 5000300100000000003000002370007019100290001
0084E1045P0416000288              13 3 7 5000100100200000002000001090010014100190003
0084E1046P1385000926              13 3 3 4000400100100000008000005330031027600650007
0084E1047P1325000828              11 2 6 2000300100300000010000004100029031400540004
0084E1048P0897000664              13 7 7 5000300000100000007000003440008023800600003
0084E1049P1061000701              13 3 7 5000400000300020001000103540023026100450007
0084E1050P0928000554              12 5 5 3000600000100000007000002700012021800370003
0084E1051P0611000440              13 3 7 5000400200000000001000001810016020800280000
0084E1052P0912000615              13 3 7 5000400000200010004000003090017023700350006
0084E1053P1149000665              13 3 3 4000300200000010006000103360019025800320007
0084E1054P0608000356              12 5 4 4000100000000000005000001460010016400290001
0084E1055P0724000442              12 3 4 3000000000000020004000002070013018400270005
0084E1056P1370000862              12 5 4 3000300000100000010000003550018041700560002
0084E1057P0205000126              13 711 5000200000000000000000000920002002300050002
0084E1058P1054000653              13 5 4 5000400100100000006000002790017030100420002
0084E1059P0442000293              12 5 4 3000100000000000001000001390011011900220000
0084E1060P1001000709              12 4 5 1000100000200010004000104150015023100360003
0084E1061P0610000443              12 4 5 1000100000100000002000001980006021200220001
0084E1062P0842000535              12 4 5 1000300000100020003000002790007019800370005
0084E1063P1616001165              11 2 6 2000100000300000012000004730026057800690003
0084E1064P1298000718              13 3 7 4000600700000000002000105060023014500240004
0084E1065P1292000781              11 2 6 4000400000100010006000003650022033800380006
0084E1066P0951000625              11 2 6 2000300000200000004000002870023024700510008
0084E1067P0718000506              13 3 3 4000100000100000001000102740016018400260002
0084E1068P1001000607              11 2 6 2000100000200020008000102600018027400400001
0084E1069P1045000728              13 3 7 5000300100200010008000003150019032800500001
0084E1070P1071000733              12 512 3000400000200000006000003230012034000420004
0084E1071P0950000578              12 5 4 3000000000000000008000002720009024900380002
0084E1072P1197000707              13 1 3 6000000000400000003000003680036025800350003
0084E1073P1617001182              11 1 3 6000300200000000008000004940021057400720008
0084E1074P1227000746              13 3 7 5001000000200010007000003720023026600560009
0084E1075P0649000399              12 4 4 3000100000000010005000002190008014100230001
0084E1076P1043000617              12 5 4 3000100200100020008000003050015023100490003
0084E1077P0797000537              13 5 4 5000400000100000005000002440021022300370002
0084E1078P1027000665              13 5 4 3000300000100010002000002900017030700440000
0084E1079P1616000956              13 3 3 6001100100500010008000004870049031900660009
0084E1080P1411000815              13 3 3 6003500200000010009000003770025031300520001
0084E1081P0679000415              13 512 5000100000100000004000101970010017900210001
0084E1082P1250000827              13 3 7 5000500000100000010000004430013029800510006
0084E1083P0843000485              12 5 5 3000500000000030005000002510010016700410003
0084E1084P0041000026              13 2 3 6000200000000000000000000090000001400010000
0084E1085P0249000170              13 3 4 4000100000000020002000000880004006400070002
0084E1086P0730000508              12 4 5 1000300000100000003000002610013020200210004
0084E1087P0962000671              12 4 5 1000100000200010003000003430012026900360004
0084E1088P0556000347              11 4 5 1000100000200010000000101960012011500160003
0084E1089P1411001036              12 4 5 1000900000000000006000004410016049900630002
0084E1090P0918000645              12 4 5 1001300000100010000000003280016024300400003
0084E1091P0625000446              11 4 5 1000200100000000003000202150010017900290005
0084E1092P1643001020              12 5 4 3000500200400020012000005300025037100650004
0084E1093P1034000779              11 2 1 2000900000000010006000003250011036500580004
0084E1094P0722000436              12 4 4 3000300100100000000000001970009020200210002
0084E1095P0873000587              12 4 5 1000200100300010005000003170013021000330002
0084E1096P0848000550              11 3 7 4000200100000010005000003250017016800270004
0084E1097P1384000859              11 3 7 4000800400200020009000005100030025500370002
0084E1098P1678001140              11 2 6 2000100100200020006000004580028054200900010
0084E1099P1387000908              12 4 4 3000200300000010010000004320015037800620005
0084E1100P1359000846              12 5 4 3000400000000020008000004060023034700530003
0084E1101P0948000679              12 4 5 1000100000100000008000004070020019900330010
0084E1102P1039000704              12 4 5 1000400000300000009000003230010029500560004
0084E1103P0721000517              13 7 7 5001000000200010005000002350020019400400010
0084E1104P1387000751              13 1 3 6000400400300010004000104250025024100370006
0084E1105P0578000413              12 512 3000500000100000006000101600005021100240000
0084E1106P0836000534              13 5 4 5000200000000010004000002330012023400460002
0084E1107P1124000721              13 5 8 5000100000000020006000002910014033400710002
0084E1108P0973000667              12 4 5 1000100000100000005000002830014032900330001
0084E1109P0838000538              12 4 4 3000200000000030008000002350017023300360004
0084E1110P1010000623              12 4 5 2000200000000010007000003270016023600300004
0084E1111P0963000674              12 4 5 1000600000000000004000003040011030300450001
0084E1112P0614000429              12 5 5 1000200100000010003000001810006020700280000
0084E1113P0321000204              11 3 1 6000100000100000001000000970002008200180002
0084E1114P0994000672              13 7 7 5000100000000000005000002830017030500570004
0084E1115P0755000507              13 3 7 5000200200000000002000002370012022100290002
0084E1116P1694001098              12 4 5 1000200300100020008000005480028044000620004
0084E1117P0651000491              11 4 5 1000300000000000001000001980002025400280005
0084E1118P0706000441              11 4 5 1000000100400000000000002200011016700360002
0084E1119P1021000678              13 3 7 5000200000200000009000002960017029500550002
0084E1120P1319001014              12 3 4 4000600200100010003000005190018040800530003
0084E1121P1609001107              12 4 5 1000100000000020005000004750015054800580003
0084E1122P1397000978              11 2 6 2000000100200000007000104020018047700680002
0084E1123P0782000574              13 3 3 4001000000100010002000003120017020200280001
0084E1124P1431000898              12 5 4 3000200000100000005000004080018039200680004
0084E1125P0908000519              12 5 4 3000400000100010007000002680011018900320006
0084E1126P1392000908              12 512 3000400100100010005000003540013045400720003
0084E1127P0780000453              12 4 4 3000000200100000004000002310014017100260004
0084E1128P1197000725              11 3 7 4001800100100000010000004260027020500350002
0084E1129P0803000566              12 4 5 1000000000100010005000102950007022200330001
0084E1130P0609000436              12 4 6 2000100000000000002000001960011019400280004
0084E1131P0758000512              13 3 7 5000200000200000005000002210010024000300002
0084E1132P1547000960              12 5 4 3000600600100020008000004180022040100900006
0084E1133P0896000604              12 3 4 4000500100000010003000002370013028500550004
0084E1134P1023000717              11 4 5 1000300200200000007000003440025027800490007
0084E1135P1311000886              11 2 6 2000200000000010010000003390024043700720001
0084E1136P1216000822              11 2 6 2000500100300010005000003290012040000660000
0084E1137P1378000813              11 4 3 4000300300000000000000007570017002700040002
0084E1138P2587001573              13 3 7 5000900300100020015000106630023074901030004
0084E1139P1992001060              13 3 3 6001700100500030010000005850032034200590006
0084E1140P1310000877              11 4 6 1000500000100010010000103540015041100760003
0084E1141P0929000590              11 2 1 6000300000000020004000002460013026800500004
0084E1142P1333000904              12 512 3000200000400000009000003580013045700590002
0084E1143P0876000578              11 4 6 1000100100000000008000002840011023100390003
0084E1144P0881000521              13 3 7 5000800100000000002000003190006014600360003
0084E1145P1219000723              13 5 4 4000200200200020006000003460020029700440002
0084E1146P0644000436              12 4 5 1000200000000000002000002160006018900200001
0084E1147P1902001202              12 4 5 2000400100000010002000006390021046000660008
0084E1148P1155000844              12 4 5 1000300100100020007000204140015034400490006
0084E1149P0841000516              13 3 7 4000200000200000001000003020010016100350003
0084E1150P0945000588              13 3 3 4000700200000000004000003160010022000260003
0084E1151P0983000730              11 1 2 6000100100300010005000002790009038300450003
0084E1152P1719001054              12 5 4 3000000100000020021000005080031040700760008
0084E1153P0785000535              11 2 6 2000500000000000003000002750014019500360007
0084E1154P0864000647              11 1 1 6000100000000020005000002330013033000590004
0084E1155P0807000528              13 7 7 5000400100000010003000002700014019200360007
0084E1156P0963000571              13 3 3 6000100000100010002000002620032023100380003
0084E1157P2214001357              12 3 4 4001200400100030014000106290044055300890007
0084E1158P0635000438              12 512 3000100000000000002000001930008019800350001
0084E1159P1262000816              11 2 6 2000300000400010010000003770028034300400010
0084E1160P1230000689              13 1 3 6001800300200000008000103350022025600400004
0084E1161P0839000610              12 4 5 1002200000100000006000102830014024600320005
0084E1162P0534000336              12 5 4 3000500000100000003000001810010011200240000
0084E1163P1013000666              12 4 5 1000000100300010005000003150014028000430004
0084E1164P1378000880              13 5 8 5000400100200010007000003950022038800550005
0084E1165P1191000800              12 4 5 1000600100100000008000003840010034500390006
0084E1166P1651001124              12 4 5 1000100000400010004000005770020045000630004
0084E1167P0753000580              11 2 6 2000300100200030000000002410006027800450001
0084E1168P0874000605              11 4 6 2000200000000000003000003240013021800370008
0084E1169P1782001186              11 4 6 2000200300100000006000006830021040700630000
0084E1170P0737000528              12 4 5 1000300000100010002000002210005026500280002
0084E1171P0873000637              13 7 7 5000300000000030005000102980012026700450003
0084E1172P0426000257              13 512 3000000000000000003000001230005010700170002
0084E1173P0741000532              13 3 7 5000000000000000004000002250007025500380003
0084E1174P1003000676              13 5 4 5000600100100000007000003130016029000370005
0084E1175P1093000684              12 5 4 3000300300200010004000003190012029300420005
0084E1176P0993000642              13 5 4 3000100000000000005000002630014031200440003
0084E1177P0657000510              12 4 5 1000600000000000002000003030008016200250004
0084E1178P0870000597              11 4 5 1000800000000010006000002850015024700310004
0084E1179P1824001145              12 5 4 3000500200300000006000004910018054000790001
0084E1180P1072000711              12 4 4 3000300200000000005000003320022030300420002
0084E1181P0384000305              11 2 6 2000100000000000000000001200003016500150001
0084E1182P0108000077              11 4 6 2000000000000000001000000260000004600040000
0084E1183P0606000406              13 5 4 5000300200100020006000001680016017200350001
0084E1184P0961000501              11 1 3 6000300000100020008000002670026015300340007
0084E1185P0566000354              11 2 6 2000000000100000004000001750008015500100001
0084E1186P0795000513              13 5 7 4000100000100000003000002100017024600310004
0084E1187P1269000788              11 2 6 2000200000200010012000104020025028600490008
0084E1188P1009000759              11 2 6 2001400000100010006000003370016031800630003
0084E1189P1289000786              11 2 6 2000200000500000005000004120028027400540006
0084E1190P0681000512              11 2 6 2000100000000000002000102540006019800460004
0084E1191P0565000388              12 4 5 1000200000100000002000001980004016600140001
0084E1192P1455000956              11 3 3 4000300100000010007000005980028025700580003
0084E1193P1302000926              11 2 1 2000200000100000003000003680016042501040007
0084E1194P0650000449              13 3 7 4000000000000000003000002380010017200240002
0084E1195P0957000679              11 2 6 2000100000200010007000002700011034800370002
0084E1196P1367000920              13 3 7 5000000200300030006000004260016039100700003
0084E1197P0397000303              11 2 6 2000400100100000000000001250000013600350001
0084E1198P0881000677              11 2 6 4002300100100020000000002520004034700470000
0084E1199P0487000332              11 2 6 4000000100000000002000001590005014600190000
0084E1200P0999000625              11 4 7 4000100200000000000000005540018004000090001
0084E1201P1767001273              11 4 6 2000100200000000002000105210012063800930003
0084E1202P0663000412              11 4 6 2000500000300010003000002170016013900250003
0084E1203P0653000426              11 2 1 6000400000100000003000001770015017600490001
0084E1204P1018000521              13 1 3 6000600000100000005000002520019020400300004
0084E1205P1382000866              11 4 5 1000400000100000009000004180030034700500007
0084E1206P0957000673              12 4 4 3000400200300000004000003200012028000460002
0084E1207P0876000525              11 1 3 6000500300000010001000003130036014300210002
0084E1208P1331000754              11 1 3 6000200000000000006000004270020024500520002
0084E1209P0986000610              12 4 5 2000100000000000011000003290010022500310003
0084E1210P0723000562              12 3 4 4000800100100000003000002870013021000360003
0084E1211P0930000603              13 5 7 5000400000000000003000002720019025400480003
0084E1212P0375000258              11 2 5 1000000000000000002000001100002012000240000
0084E1213P0671000448              11 3 3 4000200100100000002000001900011021000290002
0084E1214P0717000490              13 3 7 5000500200100010000000002200012021100350003
0084E1215P0823000464              13 1 3 6000400200000000002000002150010020400230004
0084E1216P2067001519              11 2 6 2000700100200000006000006390017075000940003
0084E1217P0275000172              13 5 7 5000100000000000003000000780010007400050001
0084E1218P0735000472              12 3 7 4000200000200000002000003010007014100170000
0084E1219P0552000342              12 512 3000000000100010002000001440007015200320003
0084E1220P0238000152              11 2 6 2000100000100000002000000720001006400110000
0084E1221P0264000180              12 512 3000000000100000002000000760004008000170000
0084E1222P0469000311              13 512 3000300000000000007000001490007011700260002
0084E1223P1349000813              12 4 5 1001200000100020018000006560009010300030009
0084E1224P0589000442              11 4 5 1000000000300000007000002430013015100240001
0084E1225P0984000746              11 4 5 1000000100200010007000004640012021800300011
0084E1226P0457000325              11 4 5 1000200000300000004000001430007012800340004
0084E1227P1659001016              11 2 1 6001700100000000009000004080022048300740002
0084E1228P0751000526              13 3 3 4000500000100030004000002180006024800400001
0084E1229P0950000522              13 3 3 6000200400000010002000102980018016200320002
0084E1230P1113000724              12 5 4 3000200000000010003000003090011035200440002
0084E1231P0659000378              13 512 5000000000100000005000002050006013200270002
0084E1232P0742000469              12 3 4 3000200000100000002000002190011020400280002
0084E1233P0690000512              12 4 5 1000600000000000006000102480009021500270000
0084E1234P1548000895              13 3 3 4000600300300010003000006460016017700370003
0084E1235P0758000482              13 3 7 5000500000200000003000102040015020900380005
0084E1236P0805000581              11 2 6 2000200000100000002000102010012031400410007
0084E1237P1220000792              12 4 4 3000500000200010002000004020014031200510003
0084E1238P0748000486              13 5 4 5000100100000000006000001990011022300430002
0084E1239P1010000717              11 4 5 1000100100300010010000003350014029600530003
0084E1240P0786000496              13 3 7 5000000000000000003000002180016021300450001
0084E1241P1081000691              12 3 4 4000200300000000003000003550011027900340004
0084E1242P1230000730              12 5 4 3000000100000020003000103680016028300530003
0084E1243P0891000579              12 4 6 2000100100100020000000003810013015900190002
0084E1244P0458000285              13 5 4 3000000000000000002000001070004013800340000
0084E1245P1642001121              11 4 6 2001100000000020010000003990024059200800003
0084E1246P0887000562              13 3 7 5000300100200010002000003100014019800300001
0084E1247P1182000703              13 3 7 4000100200200020003000003570027025400530002
0084E1248P0765000521              11 2 6 2000000000000000005000002730013020100260003
0084E1249P3087001693              13 3 3 6000300200200010012000108050044070701140002
0084E1250P0948000568              12 4 4 3000700200300000005000002560015023800400002
0084E1251P0958000699              12 4 5 1007600000400010003000003100015025500350000
0084E1252P1206000789              11 4 6 2000200100100010005000004350019025800650002
0084E1253P0931000561              11 3 3 4000200000300000004000102990016020200310003
0084E1254P0902000541              13 3 7 5000100000000000008000002800016018900450002
0084E1255P0968000595              11 2 6 4000700000000010006000002630011027000330004
0084E1256P1924001239              11 3 6 4000200300600000012000006600026044700790004
0084E1257P0907000578              11 4 6 2000200000100000008000103140023019500310003
0084E1258P0636000395              11 4 6 2001200000200000003000002160008013100200003
0084E1259P0519000372              12 3 4 4000300000100010004000101890012014300170001
0084E1260P0815000517              11 2 6 2000100000100000000000002460012021300440000
0084E1261P0404000295              12 4 7 4000400000000010000000001570007010600190001
0084E1262P0766000467              12 3 4 3000100100100000006000002610022014200310002
0084E1263P1788001289              11 2 6 2000200000100000014000005030022063001130004
0084E1264P1600001027              11 2 1 6000300300300010007000204260017046700940004
0084E1265P2796001847              11 1 1 6000400100200000007000006380033099001680004
0084E1266P0983000556              13 3 3 4000400100300010005000002840023019600380001
0084E1267P0806000517              11 2 6 2000400000000010009000001970007025700410001
0084E1268P1168000706              13 1 3 6000400000200000005000003430032027800400002
0084E1269P0822000516              11 3 3 4000200000000000002000002950013017800230003
0084E1270P0882000745              11 2 6 2000600100000000002000002650002041400550000
0084E1271P0783000514              13 5 7 5000200100100000001000002230006023800380004
0084E1272P0989000705              11 1 1 6000200100000000006000102750018034100560005
0084E1273P0973000561              13 1 3 4000400000200000003000002780019020900410005
0084E1274P0770000472              11 1 3 6000100000300000006000102300015019600190001
0084E1275P0884000562              11 3 3 4000100000000000005000003100008019500370006
0084E1276P0248000174              12 4 4 4000000000000000003000000920003006300110002
0084E1277P0418000219              13 3 3 4000300100000010001000001330007006500050003
0084E1278P0037000015              13 3 3 6000000000000000000000000120000000200010000
0084E1279P0796000570              11 1 1 6000000000100000001000003270011019900280003
0084E1280P0003000011              11 3 1 6000000000000000000000000050000000600000000
0084E1281P0128000093              13 2 1 6000000000000000000000000420006004000050000
0084E1282P0014000005              13 512 3000000000000000000000000030000000100010000
0084E1283P1321000781              13 3 1 6000200000100030006000204330020026200520000
0084E1284P1148000921              11 2 6 4000000100100000005000104060012042300690003
0084E1285P1051000617              11 1 3 6000100000100000006000003210021022400400003
0084E1286P1061000741              11 2 6 2000000000100000006000003030012037100460002
0084E1287P0980000552              11 1 3 6000200500100010001000003540015014400270002
0084E1288P0935000609              11 4 6 1000000000100010006000002680010028200390002
0084E1289P0930000586              13 3 3 4000200000100000005000003820023014000320001
0084E1290P1298000930              11 1 1 6000400000200010011000003880016042900740005
0084E1291P1142000600              11 3 3 6000300200000000007000003260022019500420003
0084E1292P0909000620              12 4 5 1000300100000000005000002880007027800370001
0084E1293P0675000430              11 2 6 2000200000100010002000002160004017900250000
0084E1294P0873000551              13 5 7 4000000000000020006000002430009025900310001
0084E1295P0000000000              13 3 7 5000000000000000000000000000000000000000000
0084E2001P0837000602              351018  000500000000000003000001550002041300210003
0084E2002P0935000609              351018  000000100000010001000002430004032000380001
0084E2003P0941000693              351018  000200000000020005000003370017028100440005
0084E2004P0774000564              351018  000100000100020003000002640005025400300004
0084E2005P0500000376              351018  000100000000000000000002100006014100160002
0084E2006P0835000613              351018  000600200100000006000103790021015900300008
0084E2007P0450000316              351018  000100100000000003000001830006010000180004
0084E2008P0994000688              351218  000300000000000004000002990012032100460003
0084E2009P0949000623              351018  000700000000000001000004650011011800180003
0084E2010P0846000558              351018  000400000100010005000103550020014500240002
0084E2011P0646000368              351017  000300100000010002000002600018006900130001
0084E2012P0441000290              351017  000200200000000002000101490009010500170003
0084E2013P0736000534              351218  001100000200000002000002250007024600400001
0084E2014P1227000867              351216  000600000100010009000104150009038000410004
0084E2015P0585000415              351218  000100000000000000000002030009018500150002
0084E2016P1156000847              351218  000200000200000006000104280017034500430003
0084E2017P1016000741              351213  000100200100000007000003360006033300490006
0084E2018P0711000529              321213  000100000000010003000002590009022500230008
0084E2019P0839000549              321218  000200100000000001000002500010023100510003
0084E2020P0892000607              351218  000400300200000004000002340002031300390006
0084E2021P0758000518              321216  000000000000000003000002240007025900240001
0084E2022P1017000654              351017  000200000000010005000002730010031400470002
0084E2023P0726000517              351017  000300300200000007000002580008019600400000
0084E2024P0616000466              351218  000100100100010004000002350006018100330003
0084E2025P0674000456              351018  000100100000000002000002600009015400230006
0084E2026P0520000304              351018  000100000000000000000002580005003600030001
0084E2027P0705000419              351017  000100100000000002000002350014014300180005
0084E2028P0934000647              321016  000200000200010004000003270012024800480003
0084E2029P1039000619              351018  000300100100000009000003790016018100250004
0084E2030P0875000616              351018  000100000200000002000102910008027700310003
0084E2031P0965000676              351016  000000000100000003000003390014026700450007
0084E2032P0648000441              351018  000400000000000005000001770004021900310001
0084E2033P0628000428              351017  000100100000000002000001510001024500270000
0084E2034P0409000244              351017  000100000000010002000001150007010000160002
0084E2035P0767000545              321218  000200000000000004000002320013025200360006
0084E2036P0901000604              351016  000200000100000003000002640009029900220004
0084E2037P0735000528              351018  000000000200000007000002330006026800100002
0084E2038P0956000705              351218  000400000100000002000003280008032200390001
0084E2039P0868000586              321218  000400100000000001000002260011028600560001
0084E2040P1013000704              351218  000100100000000002000003040021031700560002
0084E2041P1969001501              321016  000600100200000000000007510006068000540001
0084E2042P0857000582              351017  000000200000000003000102850018023400370002
0084E2043P0920000663              351218  000100000200010003000003340004027400410003
0084E2044P0193000138              351216  000000000000000001000000680003005900070000
0084E2045P0861000573              351018  000100000400000006000001700004036500200003
0084E2046P0976000657              351018  000400000000000008000004220018018000190006
0084E2047P0465000351              351218  000100000000000002000001290007018600240002
0084E2048P0702000456              351017  000200000000000000000001640003024900380000
0084E2049P0684000488              351017  000200000000010002000002290014021400240002
0084E2050P0821000583              321213  000200000000000003000102500009028000380000
0084E2051P0813000589              351216  000000000000000001000002430007029400440000
0084E2052P0995000648              351016  000200100000010010000002480003033000530000
0084E2053P0820000578              351017  000000200000020001000003410012019300260001
0084E2054P0709000448              351017  000500000000000002000003390014007100170000
0084E2055P1035000729              351218  000100000100010002000002670008039900480002
0084E2056P0691000478              351017  000400000100000001000102320006020500260002
0084E2057P0508000333              321218  000500000000000002000001230010016800230002
0084E2058P0763000547              351017  005100000000000000000002300012021600350003
0084E2059P1142000720              351017  000000000000010003000005540017012800130004
0084E2060P1549001049              321213  000300000400020008000004740018047100640005
0084E2061P0587000433              351017  000400000100000001000001870009019900310001
0084E2062P0683000452              351017  000300100200010001000002070010019900250003
0084E2063P0185000127              351018  000100000000000002000000640001004800100001
0084E2064P0592000398              351018  000100000000000000000001500000021600300001
0084E2065P0650000474              351218  000400000200000004000102370010018200310003
0084E2066P0980000706              321218  000200000100000006000003120011031600510007
0084E2067P1093000699              321218  000200000000010001000003180020030700480002
0084E2068P1010000701              351218  000300000000000002000002750010035000580003
0084E2069P1133000748              351218  000500100100010002000003730005033000290001
0084E2070P0625000418              351017  000100200100000000000002370010015100150001
0084E2071P1023000607              351017  000100000200050008000103870020014800310004
0084E2072P0926000656              351017  000300000000000006000103020006028200510005
0084E2073P0539000384              351018  000200100000000002000001860006016400220001
0084E2074P1039000732              321213  000300000000030006000102780010038200480001
0084E2075P0787000496              321218  000100000300000007000002120010022100390003
0084E2076P1096000732              351016  000100000000010003000002940006037600490002
0084E2077P0835000544              351216  000100100100000003000002290012024500470005
0084E2078P1166000691              351016  000100000200000003000003310008031900260001
0084E2079P0517000355              351017  000100000000000001000001530008015900310002
0084E2080P0193000145              351218  000100000200000001000000680003006300070000
0084E2081P0955000687              351218  000300000200010004000003010009031900450003
0084E2082P0823000543              351016  000400100000000001000002480014024100340000
0084E2083P0700000492              351016  000200100000000002000002170011022800290002
0084E2084P0990000719              351216  000100000200000005000002990007034500570003
0084E2085P0240000158              351017  001100100000000001000001310002000800040000
0084E2086P0526000365              351213  000100000000010003000001410004018600280001
0084E2087P0672000463              351218  000300100000000006000002070004020400370001
0084E2088P0556000378              351017  000300100100000002000001600004017000330004
0084E2089P0260000197              351018  000000000000000003000000660000012200060000
0084E2090P0715000529              351218  000100100000000001000002970008019200280001
0084E2091P0910000603              351016  000500000000000004000002610006029800270002
0084E2092P0586000412              351017  000300000000000006000002270007014200230004
0084E2093P0663000496              351218  000300100000000003000002530011018200370006
0084E2094P0827000594              351017  000500200200000001000003250007022600260000
0084E2095P0542000372              351216  000100100100000002000001680006016800240001
0084E2096P0650000426              351017  000300000000010007000002140008017600160001
0084E2097P0992000674              351218  000100100200000008000002610014033700470003
0084E2098P1256000857              351016  002500100000000001000003360009045500230007
0084E2099P0674000471              351218  000400000300000002000002060005022400260001
0084E2100P1111000742              321216  000000000000000004000003300012035500410000
0084E2101P1583001061              351017  000400100300000009000004800009050400460005
0084E2102P1166000775              351016  000500000600000009000003120008038300510001
0084E2103P0854000559              351218  000300100000000002000002570014025700240001
0084E2104P0738000481              351018  000400100100000002000002850012015600190001
0084E2105P0327000212              351016  000100000000000000000000990001009800130000
0084E2106P0529000358              351218  000100000000000002000001450003018000260001
0084E2107P1035000708              321016  001100000100000006000003780010026500350002
0084E2108P0883000606              351216  000000000200010006000002390013030500380002
0084E2109P1330000900              321017  000800000100000003000004830006037200270000
0084E2110P0723000529              351018  001000000000000001000001960005027700390001
0084E2111P0515000360              351218  000000000100000004000001640003017000170001
0084E2112P1536001034              351016  000400200100010005000004300014050400660007
0084E2113P0937000698              351218  000200000200000008000002530011036400560002
0084E2114P1111000724              321016  000100000100010003000004370018022400360003
0084E2115P0355000211              321218  000000000000000001000001010004009000150000
0084E2116P0615000421              351218  000100000000000000000001710003020500370004
0084E2117P0604000387              351218  000000000000000005000001690008018100240000
0084E2118P0666000401              321216  000400200000010001000001710007018500290001
0084E2119P1103000725              351018  000100000100010005000002600004041400360003
0084E2120P0798000597              321216  000100000300020005000002790003028000180006
0084E2121P0718000509              351017  000200100000010009000002550009020500260001
0084E2122P0763000569              321218  000700000000000003000102190011028400420002
0084E2123P1072000681              351017  000300100100020003000104220007020500320004
0084E2124P0849000605              351218  000300000200020002000002260005033300290003
0084E2125P1328000868              321016  000200100000010004000004060006041800270003
0084E2126P0662000469              351218  000200100000000002000101960007023100290000
0084E2127P0892000626              351213  001300000000010003000002460005030900490000
0084E2128P0829000600              351018  000200000000000003000002660008028800310002
0084E2129P0776000573              351218  000100000200010001000002230011029100420001
0084E2130P0713000523              321218  000100000100000005000002540010020900390004
0084E2131P0714000481              351216  000300200000010002000001720003025600410001
0084E2132P0514000345              351016  000000000100000003000001580003016800120000
0084E2133P0605000428              321016  000100000100000002000002050002020400130000
0084E2134P0906000578              351016  000500000000010003000002760003026300220005
0084E2135P0931000555              351016  000800000000000003000002360006025900410002
0084E2136P0871000555              321216  000400100000000004000002470002026800270002
0084E2137P0716000469              321016  000400000100000004000002490006018200200003
0084E2138P1018000612              321017  000000000200000005000003110006026200230003
0084E2139P0651000441              351016  000100000000000003000001890001022700170003
0084E2140P0947000694              351218  000300100400000005000002730008036200360002
0084E2141P0366000266              351216  000000000000000002000000970002013600260003
0084E2142P0504000376              321213  000300000000000002000001370004021100180001
0084E2143P0600000419              351017  000100000000000002000001850007019900240001
0084E2144P1547000966              321016  000200000000000008000104330012045600520002
0084E2145P0765000504              321017  000000000100000001000002540003023200100003
0084E2146P0222000157              321016  000000000000000001000000830002006900020000
0084E2147P0576000356              351016  000100000000000001000001470007018100180001
0084E2148P0516000362              321216  000200000100000003000001420001019900130001
0084E2149P0643000475              351218  000000100200000002000102220010020300330001
0084E2150P0425000318              351018  000000000100000003000001750005010300260005
0084E2151P0856000570              321017  000300000000000003000002840002024400340000
0084E2152P0310000184              321216  000400000000000000000000790006008700080000
0084E2153P0600000474              351218  000200000100000002000001970009022600370000
0084E2154P0535000358              351017  000100100100000002000001640006015800250000
0084E2155P0692000464              351017  000300100100000003000002320005018200340003
0084E2156P0452000338              351218  000200000200000001000001700002014300170001
0084E2157P0551000349              351218  000000100000000002000001500014016500160001
0084E2158P1539000987              321017  000400000300010005000007430022017700260006
0084E2159P0528000368              351216  000400000000000001000001390004019600220002
0084E2160P0406000296              351018  000000000000000002000000990002017600150002
0084E2161P0523000381              351218  000000000100020003000001700005018400130003
0084E2162P1444000913              351017  000800200100000004000003650004047500500004
0084E2163P0821000581              351016  000000000000010003000002330007030700270003
0084E2164P0547000377              351218  000100000000000002000001600001019200180003
0084E2165P0713000419              321216  000500000100000001000101760002020000320001
0084E2166P0617000403              321017  000000000100000004000001990009016400250001
0084E2167P0505000374              351016  000000100000000000000001580000020100130001
0084E2168P0614000444              351018  000100000100000004000001630006024000290000
0084E2169P0701000460              321213  000300000000000004000002120006020000350000
0084E2170P0381000255              321016  000000000000000004000001130002012900070000
0084E2171P0228000136              351016  000100000000010004000000560000006600070001
0084E2172P0026000021              321016  000000000000000000000000040000001200040001
0084E2173P0030000023              321016  000000000000000000000000110001000900020000
0084E2174P0065000041              351216  000100100000000000000000130000002000030003
0084E2175P0233000140              351216  000200000000000000000000590000007300060000
0084E2176P0032000016              321017  000000000000000000000000120001000300000000
0084E2177P0299000126              351017  000000000000000002000001070002001300020000
0084E2178P0723000493              351017  000200000000000002000002050004026600130001
0084E3001P0776000526              24 911  000300000100000000000001760007029900350005
0084E3002P0583000411              24 911  001200000200000004000101720006019100220001
0084E3003P0882000545              24 711  000300100100000003000203720007013600170003
0084E3004P0982000600              24 711  000500000000000000000004280021012200220002
0084E3005P0477000313              24 711  000400000200000000000002550011003000110000
0084E3006P0057000050              24 710  000100000000000000000000320003001200020000
0084E3007P0921000583              24 711  000000100100000001000003070013023400230003
0084E3008P0962000455              24 711  000000000000000002000002900012013700130001
0084E3009P1163000665              24 6 9  000200000100000001000005700015006500090002
0084E3010P1032000762              24 710  000700100000000008000002710015038100760003
0084E3011P0845000588              24 710  000100100000000003000002780012025000420001
0084E3012P1587001110              24 710  000500600100030008000005540034043300630003
0084E3013P0900000671              23 710  000400000200000008000001800011041000510005
0084E3014P1075000722              24 710  000700000000000007000002910014035500470001
0084E3015P1218000807              24 710  000700000000000003000003410023036600660001
0084E3016P2033001338              23 6 9  000300000100010006000109140017034800430004
0084E3017P1797001088              23 6 9  001000800200010002000008820028013000220003
0084E3018P0787000583              23 7 8  000600000200000004000002800016023300390003
0084E3019P0600000458              23 7 8  000200100100000000000002070005021700230002
0084E3020P0780000546              23 7 8  000500000000000001000002510011023200410005
0084E3021P1011000746              23 7 8  000000100100000006000103320021032800520004
0084E3022P0134000087              23 7 8  000000000000010000000000280005004800050000
0084E3023P0658000426              24 5 8  000200000100000004000001870014019600210001
0084E3024P0933000642              23 7 8  000200000200010002000002930008028300490002
0084E3025P1474000943              23 5 8  000100100100000006000003680032047800540002
0084E3026P0794000582              24 711  000300000100000004000002220004030600420000
0084E3027P1010000592              24 610  000000100000000001000004330014012400190000
0084E3028P0939000622              24 710  000300000200020005000002690005028900440003
0084E3029P2024001070              24 611  001000100000010001000009470017007500180000
0084E3030P1340000826              23 6 9  000000000000000002000006650013011000310005
0084E3031P1096000757              24 911  000300100000000004000002590007041900640000
0084E3032P0749000472              24 611  000100000100010011000002410009018400230001
0084E3033P0889000546              23 6 9  000000000000000002000004500008006700120007
0084E3034P1073000664              24 610  000100000000010006000003310007027300390006
0084E3035P0463000300              24 710  000200100000000003000001110009014500290000
0084E3036P0613000368              23 6 9  000200000000010001000002890005006100090000
0084E3037P1026000668              23 7 8  000100100300020004000002730004033800420000
0084E3038P0767000560              23 7 8  000400000100010004000002810009021800380004
0084E3039P0703000516              23 7 8  000100000000000002000001970013026700310005
0084E3040P0659000483              24 710  000100000100000004000001590008026200450003
0084E3041P0335000256              24 911  000000000000000003000001130001011700210001
0084E3042P1161000768              24 911  000100000100020003000002910015040200510002
0084E3043P0458000315              24 911  000000000000000004000001150007017700120000
0084E3044P0967000572              241211  000300000100000004000003910011013900230000
0084E3045P0811000566              24 7 8  000100000200040012000002490015024500340004
0084E3046P0416000280              13 812  000100000000010003000001930003007200070000
0084E3047P0878000608              24 911  000200100000000003000002390010031900310003
0084E3048P1361000839              24 611  000000000400020007000104880021027100420003
0084E3049P0788000575              23 710  000100000000000004000002010006030500570001
0084E3050P0742000460              24 710  000200000000000003000002110011018800430002
0084E3051P1270000811              23 6 9  005500400000000002000005790017012300300001
0084E3052P0992000697              24 7 8  000200100200020006000002810023031500600005
0084E3053P0822000608              23 7 8  000100000200000004000102510006028700520004
0084E3054P0912000516              23 510  000100000000000001000002660010020800280002
0084E3055P1341000798              23 6 9  000000200000000004000006050021014000230003
0084E3056P0742000459              24 911  000100200000000008000001740011023600240003
0084E3057P0848000597              24 911  000200000000000007000002270009030700410004
0084E3058P1175000773              24 911  000500000100000007000003220013037600460003
0084E3059P0728000452              23 6 9  000600400000000001000003440010007700090001
0084E3060P0748000420              23 6 9  000900000100010001000003290009005700120001
0084E3061P1135000819              23 7 8  000700200200000006000003580013035400700007
0084E3062P1339000861              24 911  000400000100010005000003240011046700440004
0084E3063P1058000591              24 611  000000000000010001000005120012005900040002
0084E3064P0717000469              24 911  000200100100010002000001850015024000220000
0084E3065P0810000536              24 710  000200000000000003000002220003026200430001
0084E3066P1075000766              24 911  000500100300000003000103080015036700610002
0084E3067P0611000400              241211  000800000000020004000002310006013400150000
0084E3068P0809000470              23 6 9  000500000000000001000003710005007600110001
0084E3069P0954000595              241211  000800300100000006000002570011027000370002
0084E3070P1116000781              23 710  000100100000020006000002780018040500680002
0084E3071P0581000323              23 6 9  000000000200020001000001990007009600150001
0084E3072P0960000582              24 611  000600000200000005000004940013004700110004
0084E3073P0947000520              24 610  000000000100000000000104480009004800120001
0084E3074P0437000298              24 710  000100000100000004000000920003017700200000
0084E3075P1038000684              23 6 9  000000000000000002000006470006002400050000
0084E3076P0429000325              23 7 8  000100000000000002000001410009014700220003
0084E3077P1337000764              23 6 9  000200200100000001000105830014014100190000
0084E3078P1017000700              23 7 8  000200100100000005000002420011037400600004
0084E3079P1027000666              24 7 8  000300100000000004000003240015027900360004
0084E3080P1215000644              241211  000400200200000004000003940015019500260002
0084E3081P1340000963              24 7 8  000300000200000012000004390029040500700003
0084E3082P0745000516              24 911  000000100200000002000001990003027800300001
0084E3083P1049000610              23 6 9  000800300200010001000004880014008000120001
0084E3084P0665000385              23 6 9  000300000100000000000002880005007700090002
0084E3085P1320000741              23 6 9  000700000100030005000105870008011600110002
0084E3086P0686000427              23 6 9  000200000100000001000003530005005400070004
0084E3087P0992000687              23 710  000400100000010001000102690017031800700005
0084E3088P0889000565              23 510  000000100100000004000002390014026500410000
0084E3089P0885000586              24 710  000500000400000007000002640013024500420006
0084E3090P1092000761              241211  001300000300010007000002990018035500620003
0084E3091P0602000412              23 710  000100100000000004000001750009017700410004
0084E3092P0499000304              24 610  000000000000000001000002590004003600040000
0084E3093P0838000519              241211  000000000100010000000004050010008200150005
0084E3094P0471000274              23 6 9  000100000000000000000002100007004300130000
0084E3095P0720000436              23 6 9  000200000100010000000003320005007000240001
0084E3096P0381000219              23 6 9  000000000000000000000001820007002500040001
0084E3097P0598000348              241211  000300000200000000000001950012011300220001
0084E3098P0786000480              13 612  000500000000000004000002260012020000320001
0084E3099P1438000904              24 7 8  000300000000030005000003960020043000440003
0084E3100P0426000219              23 6 9  000200000100000002000001760004002900040001
0084E3101P0912000639              23 7 8  000200000200020004000002900011029000370001
0084E3102P1185000764              24 710  000500300100040007000003550025030300550006
0084E3103P0471000296              241211  000200000000000004000001410010011500240000
0084E3104P0770000441              23 6 9  000300000000010003000003530010006400070000
0084E3105P0715000465              23 710  000000000000010009000001310006027900390000
0084E3106P0753000582              23 7 8  000300200000010001000002410018027400380004
0084E3107P0742000501              24 610  000200000000010004000002060009023700370005
0084E3108P1020000743              24 7 8  000100000000020002000003030010037500490001
0084E3109P0445000310              241211  000100000000000000000001020003017200320000
0084E3110P1347000845              24 710  000300100100000007000103600015039000630004
0084E3111P0903000556              23 6 9  000200300100020001000004250011008700240000
0084E3112P1105000779              13 812  000500100200010004000002920013041000480003
0084E3113P0770000399              23 6 9  000500200000000005000103140009004700140002
0084E3114P1057000630              23 6 9  001700000000000004000004340013014000190003
0084E3115P0484000310              24 610  000500200000000000000002300008005800070000
0084E3116P0989000681              24 5 8  000100300300000003000002780014033400450000
0084E3117P0912000535              23 6 9  000000000100000002000004100011009000200001
0084E3118P1104000713              23 510  000400100100040004000002850020035700340003
0084E3119P0835000487              24 6 9  000000200000010001000004130015005300020000
0084E3120P1999001337              24 710  000300200100010014000005110028067700970003
0084E3121P0819000589              24 911  000300000100000005000001450003038700440001
0084E3122P0951000665              24 7 8  000300100300000005000002490010034800450001
0084E3123P0989000671              24 911  000400100100010006000002730011033200420000
0084E3124P0645000368              23 6 9  000300100000010000000003120005003800070001
0084E3125P0791000543              23 6 9  004200000000000002000103730007010100140003
0084E3126P0835000534              24 5 8  000100100300000002000102800010020900250002
0084E3127P0648000461              24 911  000200000000000001000001360006028400320000
0084E3128P1171000753              24 710  002100100300030005000004470014022500310003
0084E3129P0476000326              24 710  000200000000020004000001820008011200160000
0084E3130P0809000616              23 7 8  002400000000000004000002350008029900440002
0084E3131P0933000639              24 5 8  000500100400010006000102560014030800390004
0084E3132P0697000473              23 7 8  000200000100000000000002130009019800460004
0084E3133P0771000510              24 710  000400000100000005000003690020008600230002
0084E3134P1189000818              13 812  000600100100000003000103240013043000380001
0084E3135P0824000510              23 510  000100000100000005000002500007021800250003
0084E3136P0489000374              24 711  000400100000000001000001310001021500200001
0084E3137P0761000516              23 7 8  001000100200010004000002100008024000390001
0084E3138P0654000437              13 812  000200000100000001000201480006022300480006
0084E3139P1329000899              24 5 8  000200400100010005000003640022042200770001
0084E3140P0917000638              14 5 8  000200100100000003000002850015029000380003
0084E3141P0885000648              23 7 8  000300000000000005000002520019031400540001
0084E3142P0870000589              23 510  000200000000000002000002520016027000460001
0084E3143P0652000511              24 710  000300000100000003000002180009024200310004
0084E3144P0834000619              24 7 8  000100000000000008000002600018028000490003
0084E3145P0747000568              23 7 8  000100100400020006000002790011022400380002
0084E3146P0949000669              24 911  000200000300020005000002290012035800550003
0084E3147P0725000500              24 911  000300000300000003000001660007028900280001
0084E3148P0776000535              24 710  000000000100000000000001920013029700310001
0084E3149P0945000656              24 710  000600300000010005000002630014032000420002
0084E3150P0552000303              23 6 9  000400100000010001000002230008005800060001
0084E3151P0899000628              13 812  000000000000000006000002130006034600550002
0084E3152P1520000963              23 510  000100300100000010000003740030045900820003
0084E3153P0833000531              23 510  000100000000000007000002110010025600460000
0084E3154P1096000735              24 510  000100300000020006000003520013030000540004
0084E3155P1189000891              24 7 8  000600100100000009000003620015041900750003
0084E3156P0922000584              24 611  000200000000000005000004580015009100120001
0084E3157P0793000539              24 710  000500000200000006000002050008026100480004
0084E3158P0037000023              13 6 9  000000000000000000000000030000001800020000
0084E3159P1113000694              24 7 8  000200100000020011000003620010026000420004
0084E3160P0800000488              23 6 9  000300000000000002000003660008009200160001
0084E3161P1085000827              23 7 8  000600000300000008000002900019043200660003
0084E3162P1083000790              24 5 8  000300000200010005000003600014034300590003
0084E3163P0779000550              24 711  001100200100010002000002630012022900250004
0084E3164P0897000619              23 710  000300000300010007000002180013031100580005
0084E3165P0974000647              23 7 8  000200100100000004000002200013033800660002
0084E3166P0786000557              23 7 8  000300000000000003000102210010026200530004
0084E3167P0680000410              241211  000300100200010004000001990015015800260001
0084E3168P1027000576              23 6 9  000000000000000001000004520010009000230000
0084E3169P0892000572              24 611  000100100100000002000004270009011600130002
0084E3170P0285000160              241211  000700000300000002000000790002005800090000
0084E3171P0610000368              241211  000300100000010003000002050011011700250002
0084E3172P1609001071              24 5 8  001200000000000011000004830022047700610005
0084E3173P1000000712              24 5 8  000000000200020006000103450015030100350005
0084E3174P0316000166              241211  000000000000000002000001430007001300010000
0084E3175P0893000487              24 610  000300100000010003000003970011006000070004
0084E3176P0913000541              23 6 9  000400300000000000000004820017003300020000
0084E3177P1236000833              13 812  001500100300020007000003130018041500570002
0084E3178P0778000524              23 810  000800000000010002000002220010023800420001
0084E3179P0809000531              13 5 8  000000300000000005000002730006021000270007
0084E3180P1310000860              24 5 8  000100000000000010000003880021036600690005
0084E3181P0863000502              23 6 9  000100000000000001000004130007007400060000
0084E3182P0425000305              24 710  001200000000000001000001160002015000240000
0084E3183P0310000229              24 711  000100200000000000000001120003009100160004
0084E3184P0869000653              24 911  000300100000000007000003070014027800410002
0084E3185P0033000019              23 7 9  000100000000000000000000110000000500020000
0084E3186P0675000474              24 911  000100000100010003000002520017018100180000
0084E3187P0723000430              23 510  000500100000000002000002040007017800320001
0084E3188P0084000063              23 610  000000000000000000000000280001003100030000
0084E3189P0485000252              24 6 9  000100000000010001000001820007004700120001
0084E3190P0213000092              241211  000000000000000001000200630003002100020000
0084E3191P0010000007              13 810  000000000000000000000000040000000300000000
0084E3192P1044000658              24 710  000600000100000007000002680017029500630001
0084E3193P0692000417              24 611  000100200100010001000003120008007400130004
0084E3194P0767000428              23 6 9  000200000000000006000003540011004700060002
0084E3195P0607000416              24 911  000500100300000002000101430005022800270001
0084E3196P0648000393              24 611  000300000100010000000002930016007300050001
0084E3197P0441000351              23 710  000100000000000003000001050003020900280002
0084E3198P0743000479              24 710  000100000200000004000001960015021200460003
0084E3199P0586000337              23 6 9  000500000100000000000002870008002700090000
0084E3200P0568000344              23 6 9  000200000100000001000002680008005200110001
0084E3201P0658000461              24 7 8  000700000200000004000101940016020400310002
0084E3202P0828000500              23 510  000000000000000004000002380018020500340001
0084E3203P0545000378              23 710  000100000000000001000001560008018200280002
0084E3204P0355000221              241211  000400000000000003000001610007004200030001
0084E3205P0490000282              23 6 9  000200200000000001000002160008004300080002
0084E3206P0789000464              23 6 9  000100200000010004000003620013006600130002
0084E3207P0608000372              24 6 9  000600200000000000000003140005004100040000
0084E3208P0595000406              24 911  000100000300010001000000750002029100320000
0084E3209P0647000444              24 5 8  000100100000000001000001940012020400310000
0084E3210P0639000421              24 710  000600000000000001000001710013019600310003
0084E3211P0855000567              24 710  000200100300000002000002600014023900430003
0084E3212P0902000633              241211  000300000200000003000002420010031000610002
0084E3213P0937000626              24 7 8  000500100100000005000002600009030100430001
0084E3214P0826000540              24 710  000300000000010005000001750009029300520002
0084E3215P0066000045              23 710  000000000000000000000000180003002100020001
0084E3216P2368001648              24 5 8  000300000300000016000106820018080501140006
0084E3217P0183000119              24 6 9  000000000100000001000000730000004000040000
0084E3218P0042000030              23 510  000000000000000000000000170000001300000000
0084E3219P0000000000              23 612  000000000000000000000000000000000000000000
0084E3220P0004000002              23 5 9  000000000000000000000000020000000000000000
0084E3221P0065000040              23 810  000000000000000001000000100000002500040000
0084E3222P0896000534              23 510  000500200600040005000002610016019700370001
0084E3223P0735000523              24 5 8  000200100100000005000002350011022300450000
0084E3224P0423000247              23 812  000100000000000004000001250006009700100004
0084E3225P0000000000              23 612  000000000000000000000000000000000000000000
0084E3226P0000000000              23 812  000000000000000000000000000000000000000000
0084E4001P0717000463              24 914  000200000100000003000101970008022100240006
0084E4002P0481000315              24 914  000100000000000002000001850007011300060001
0084E4003P0869000675              24 914  000400200100000003000002670015034000380005
0084E4004P0665000374              241216  000100200100000002000001690002017700180002
0084E4005P0816000527              241114  000100000100000003000001910009027800420002
0084E4006P0591000388              241114  000200100000000004000001490012020200170001
0084E4007P0726000504              281115  000200100200020010000002440013020500230002
0084E4008P0960000648              281115  000100000100010004000102170008037000410004
0084E4009P1044000731              281115  000400200100000000000004480013022700340002
0084E4010P0637000430              281015  000100100100010004000002100009016800310004
0084E4011P0968000584              24 914  000800000000000002000002960016023300240005
0084E4012P0568000346              281115  000000200000000005000001800009013200150003
0084E4013P1064000577              241114  000300200000000001000002290018028000410003
0084E4014P1075000678              241115  000800000000000000000006210016002900040000
0084E4015P0798000610              24 914  000500200100000004000002730015027700310002
0084E4016P1004000685              241114  000200000000020005000003100020030000440002
0084E4017P0550000380              281115  000600000100010001000001730007016700220002
0084E4018P0551000377              281115  000200000100000000000003090010004800070000
0084E4019P0380000232              281114  000300000000000004000000930001011400160001
0084E4020P1363000866              24 914  002700100000000009000004620021029100520003
0084E4021P1047000724              24 914  000700000100000004000003980018025500360005
0084E4022P1067000742              24 916  000700000100010007000003350015032600410009
0084E4023P1076000683              24 914  000600100200000003000002770020033100420001
0084E4024P1013000692              241114  001400100100000003000002540015034500520007
0084E4025P0926000523              281115  000400100200000001000004240010006800110002
0084E4026P0490000299              281115  000100000000000000000001140005015900200000
0084E4027P0593000355              24 914  000000200000010004000001700008014700220001
0084E4028P1706001037              281115  000600000300010004000006430013033200320003
0084E4029P0747000475              241217  000500100000000001000001990019022200270001
0084E4030P0671000374              281115  000400000200010003000001550010017400250000
0084E4031P1433000924              281115  000400100000000004000107500015012400240001
0084E4032P0795000482              24 914  001300000000010005000102140011020500260006
0084E4033P0964000653              24 914  000700000000030003000103200012026800370002
0084E4034P0500000284              281115  000000000200000000000001600001010700140000
0084E4035P1066000631              281115  000100100000020009000102820010027800450002
0084E4036P0704000484              24 917  000500000100000002000002340011020200260003
0084E4037P0964000473              281114  000300000100010009000002010009020700400002
0084E4038P0251000179              24 917  000000000000000002000000840004007700120000
0084E4039P0274000179              281114  000200000000010001000001040001006000090001
0084E4040P0319000204              281115  000100000000000001000001390002005000110000
0084E4041P0919000539              24 914  000100000000000005000002670014020600430003
0084E4042P1381000898              281115  001800200000000001000008450015001400030000
0084E4043P0788000473              24 914  000200000300000001000102100009020700360004
0084E4044P0899000520              281115  000400000000000003000003370007015200130004
0084E4045P0571000353              241116  000000100000020002000001980012012100160001
0084E4046P0806000550              241216  000000000000010004000002420003026000360004
0084E4047P0692000435              241217  000100000000000005000002110006018100290002
0084E4048P0878000554              281015  000000000100000006000002510015024300380000
0084E4049P0720000492              24 914  000200200000010004000002180011022000310003
0084E4050P0953000611              281114  000900000200020003000003010020024300260005
0084E4051P1044000532              241114  000200000100000003000102330012025300260001
0084E4052P0795000490              24 914  000200100100000008000002170010022500260000
0084E4053P0890000520              281115  000400100100010003000002690015019600280002
0084E4054P1138000693              281114  000600100100000007000103610027024500380006
0084E4055P0971000651              241216  000500000300000003000003030022027800330004
0084E4056P0829000524              241115  000000000000000000000005060005001100000002
0084E4057P0911000620              241117  000400100000000001000003090009025000430003
0084E4058P0798000497              281115  000000100000020006000002340021019700310005
0084E4059P0593000368              281114  000000000100010003000001670010016800160002
0084E4060P1749001175              241116  000100100100000001000010570024007400120004
0084E4061P0538000361              24 914  000200000100000003000001250002019900250004
0084E4062P1166000709              281114  000300000000010007000003130016031800500001
0084E4063P0789000517              281115  000100000000000003000001840008028000390002
0084E4064P1021000513              241114  000200100000000001000001990010025900400001
0084E4065P1703001009              281115  000400000000000001000008690017010400130001
0084E4066P0787000439              281115  000100000000000002000001550005023900310006
0084E4067P0513000362              241217  000100000000010001000002170005012000160001
0084E4068P1031000628              241216  000200100000000005000002680008029900440001
0084E4069P0942000602              281015  000200100100000005000102890021024500340003
0084E4070P0781000442              281115  000000200200000001000002490014015300200001
0084E4071P0736000456              241114  001100200100010003000001840011020300390001
0084E4072P0891000579              281115  000100000000000001000005580001001600010001
0084E4073P0464000308              241217  000000000300000004000001670007010200230002
0084E4074P1005000620              241115  000200100000000001000005970007001100000001
0084E4075P1097000592              281114  000100000000010006000002720010026800310003
0084E4076P1014000635              24 917  000100000000030004000103090014026000420001
0084E4077P0835000488              24 914  000200000000000005000002210008022900230000
0084E4078P0519000301              281114  000000000200010000000001330007013600220000
0084E4079P0611000363              241217  000200200100000003000001500008016600280003
0084E4080P0741000504              24 916  000000200400000004000002370008021300340002
0084E4081P0605000406              241217  000300000100000005000001760006019300200002
0084E4082P0757000442              281115  000100200000010003000103080008009000270001
0084E4083P0430000246              281114  000200100100000001000001320006008700150001
0084E4084P0409000277              241216  000000000000000001000001380005011700160000
0084E4085P0929000613              241217  000500000100000001000002660008028300470002
0084E4086P0186000132              241217  000100000000000000000000700005005200040000
0084E4087P0796000507              24 914  000200100200000002000002430014020300370003
0084E4088P0573000385              24 914  000100000100000002000002180013011900280003
0084E4089P1191000715              241114  000300000000000004000003380015031100400004
0084E4090P0815000544              241115  000100000000010000000004410013007400130001
0084E4091P0448000257              241114  000100000000000001000001090003012900130001
0084E4092P0360000216              281115  000000000000000000000001890001002300020001
0084E4093P0704000437              24 914  000100000000000001000002140014018100260000
0084E4094P0679000470              24 914  000600000000000008000002200013019100280004
0084E4095P0883000600              241217  000300000100000005000002390011029800410002
0084E4096P0830000491              241114  000100100100000003000102100008022800330005
0084E4097P0888000609              241216  000200000000010000000002500010030400380004
0084E4098P0804000490              241217  000000100000000005000002330011019900380003
0084E4099P0825000515              241216  000000300000010000000002810008018500360001
0084E4100P0576000356              241216  000400000100010002000001480004018000150001
0084E4101P1144000719              241114  000100100200010006000002950010035900420002
0084E4102P0994000638              24 914  000100000100010004000002580009029800630003
0084E4103P0641000402              24 917  000100000000000004000201990003016900240000
0084E4104P1423000884              281114  001200300100000009000004040020037000600005
0084E4105P1085000708              24 914  000300200300000008000003040014032000510003
0084E4106P1531000930              241117  000700300100010005000004820019036400450003
0084E4107P0977000598              24 914  000400000000000001000102940020023900360003
0084E4108P0383000257              241216  000200000100010001000001340005009400170002
0084E4109P0728000435              281115  000200000000000005000001990012018200320003
0084E4110P1008000606              281114  000700300000010004000102720014025900430002
0084E4111P0635000409              241114  000000000300010004000001580007020700280001
0084E4112P0730000463              241217  000400100100000000000001970008022900220001
0084E4113P0579000346              281115  000000000100010003000001740008012800280003
0084E4114P0814000476              281115  000300000000000002000001500007027800350001
0084E4115P0675000431              281115  000600000100000001000003840005002900040001
0084E4116P0534000305              241116  000200100200000000000001790008009700150001
0084E4117P0571000392              281115  000100000200000008000001900009015300290000
0084E4118P0645000391              241216  000000000100000001000001770006016600390001
0084E4119P0645000348              241114  000200000100000003000001590006015400200003
0084E4120P0609000386              241217  000100000000000002000002030006015600180000
0084E4121P0570000361              24 914  000100000000000002000001420000018200300004
0084E4122P0572000393              281115  000200000000000000000001350005022300280000
0084E4123P1041000647              24 917  000100000000010005000003500015024300280004
0084E4124P0368000200              24 915  000200000000000000000001550003003600040000
0084E4125P0533000338              241116  000200100000000002000001900006011800170002
0084E4126P0633000395              241217  000300000200000003000001800005016700340001
0084E4127P0688000474              24 917  000100000000000002000002010006024000220002
0084E4128P1192000708              24 917  000400100200020005000003670016025800500003
0084E4129P1169000746              281115  001000000000010000000007140009001100010000
0084E4130P0361000208              24 914  000900000200000001000000980002008800080000
0084E4131P0545000336              24 914  000100000000000003000001810010012000200001
0084E4132P0517000347              241217  000200000000000002000001970004012300170002
0084E4133P0638000402              24 914  000200200000010004000001830007018200180003
0084E4134P1392000792              281115  000500000000000001000007550012001800010000
0084E4135P1401000834              241115  000200000200010000000007670019003600060001
0084E4136P0470000288              241216  000300000100010000000001520006011000120003
0084E4137P0094000068              241117  000000000000000000000000350001002600060000
0084E4138P0290000192              241217  000000000000000000000001270000005900060000
0084E4139P1015000561              241115  000100100000000000000005380011001000000000
0084E4140P0864000570              281115  000000100000000000000005290014002200040000
0084E4141P0467000269              241115  000200000000000000000002630001000100020000
0084E4142P0544000322              24 914  000200000100000003000000920004019200270001
0084E4143P0745000465              241114  000400100000000009000002180013019300240003
0084E4144P0967000609              281115  000500000300000000000005520009003500040001
0084E4145P0723000460              241115  000200100000000000000004430010000400000000
0084E4146P0427000275              281115  000400100100000000000001140001014400100000
0084E4147P1422000850              241115  000600000000000001000008200006001300030001
0084E4148P0581000413              241216  000500000000000000000002300003016000140001
0084E4149P0566000352              241216  000000100000000004000001620008015400230000
0084E4150P0043000032              24 914  000000000000000001000000180000001300000000
0084E4151P0384000236              241217  000100000000010001000001180003010000120000
0084E4152P0055000027              24 914  000200000000000000000000120000001300000000
0084E4153P0271000170              281115  000100000000000002000001140001004600040002
0084E4154P0553000314              281115  000200000000000001000003040000000700000000
0084E5001P0754000506              12 813  000500000100000008000001700002027900380003
0084E5002P1361000953              12 813  000700000200000007000003100009054600690003
0084E5003P0637000428              32 813  000300000000010006000001590008022600240001
0084E5004P0761000531              32 813  000200000000020006000002020009027000360004
0084E5005P1249000800              12 812  000000200200000007000003060023038400680008
0084E5006P0935000628              12 812  000500000200010011000102340020029900520003
0084E5007P0623000430              32 813  000000000000010003000101770005021700240002
0084E5008P0866000610              12 813  000200000100000009000002230015030500470008
0084E5009P1256000872              12 813  000400000100010009000003380010043000710008
0084E5010P0999000687              12 813  001200000100020005000102600009035600350006
0084E5011P1423001011              12 812  000200100000010009000004200007049800710002
0084E5012P0790000577              32 813  000500000000010004000002060005031900370000
0084E5013P1638001058              12 812  000500100100020007000003620013058300810003
0084E5014P0840000588              32 812  000500000200000003000001920008034200350001
0084E5015P1319000923              12 813  000800100100010003000003880008044000690004
0084E5016P0748000531              12 812  000800000000000004000002010005026300480002
0084E5017P0720000474              12 812  001200200100010006000001880006022600300002
0084E5018P0615000407              32 813  000100000000000002000001700005019400330002
0084E5019P0547000384              12 813  000000000000000002000001650006018300280000
0084E5020P1032000769              12 813  003600000000000002000002790010037200650005
0084E5021P1174000855              12 812  000100100000000003000003490014043400510002
0084E5022P1227000808              32 812  000400100100010001000003310011040600470005
0084E5023P0770000509              32 813  000500000000000004000002080006025300320001
0084E5024P0754000473              32 813  000100000000010004000001700003026700260001
0084E5025P0507000346              12 812  000700000000000000000001330006016900300001
0084E5026P1272000913              12 813  000800300300000006000002730006055100610002
0084E5027P0873000592              12 813  000100000000000003000002650005028400330001
0084E5028P0919000630              12 812  000200100000000002000002050011034700610001
0084E5029P1169000842              12 813  000400100200000001000002940011047500500004
0084E5030P0728000473              32 812  000200000000010002000002100007022500260000
0084E5031P0946000651              32 813  000300200100000000000002730007032900350001
0084E5032P0481000326              32 813  000800000000000003000001440004015200140001
0084E5033P1079000761              12 813  000700000100000003000002600007040000800003
0084E5034P0735000480              12 812  000000000000000004000101850010024400330003
0084E5035P0905000627              32 813  000200000000040006000002520010032100290003
0084E5036P0975000721              12 812  000100000200010001000102770012037300500003
0084E5037P1028000705              12 812  000600000100020010000003030009032300470004
0084E5038P1497001005              32 813  000100100000010010000004040005048700910005
0084E5039P0771000539              12 812  000300000200010005000001520007029700700002
0084E5040P0892000616              12 813  000300000000000003000002240006032700490004
0084E5041P0438000293              32 813  000100000100000002000001320007013500150000
0084E5042P0961000671              32 812  000300000200000003000003030006032800230003
0084E5043P0692000480              32 813  000400000000000004000002080005023600230000
0084E5044P0615000448              12 813  000100100000000002000001590002025200300001
0084E5045P0898000639              12 812  000000000000000004000002390006033500550000
0084E5046P0537000365              32 812  000200000000000001000101530006017500260001
0084E5047P0949000642              32 813  000500200400000002000002770006031100350000
0084E5048P0484000293              32 812  000200000000000001000000950003016800240000
0084E5049P0607000455              12 812  002300000000000003000001660005022200360000
0084E5050P0773000525              12 813  000100100100010001000101930003026300580002
0084E5051P0681000490              12 812  000100000000000005000001800005026100350003
0084E5052P0692000497              12 813  000000000100000006000001790007026500370002
0084E5053P0837000583              12 812  000700100100000004000001790006033000510004
0084E5054P1559001091              32 813  000900000100000007000004640010055100450004
0084E5055P0901000585              12 812  000100000100010002000002060004032000500000
0084E5056P1248000913              12 813  001000000100010005000002950008053700530003
0084E5057P0908000625              32 813  000300000000000009000002350003033200400003
0084E5058P0645000426              12 812  000200000000000004000001580006022200320002
0084E5059P1062000689              12 812  000300000200020006000002410014036600510004
0084E5060P1358000989              12 813  000300000500030010000103010016058000660004
0084E5061P0839000551              12 813  000200000100010002000001630006032700470002
0084E5062P0566000397              32 812  000100100100010002000001670000019600280000
0084E5063P0664000472              12 813  000200000000000003000001760004023400500003
0084E5064P1233000890              32 813  000100300100010008000003090006051100480002
0084E5065P0991000707              12 812  000400100100000006000002640011036100550004
0084E5066P0490000352              32 812  000500000000000002000001380007017900190002
0084E5067P0895000595              12 812  000500000200010002000102090009031500490002
0084E5068P0565000400              12 813  000600000000010002000001670012018700220003
0084E5069P0688000438              12 812  000600000100010000000001530010023200340001
0084E5070P1035000686              12 813  000400000000010004000002770008034100480003
0084E5071P0509000370              32 813  000200000000010001000101610009016900250001
0084E5072P0922000681              12 813  000300000100000004000002520005035600540006
0084E5073P0632000454              12 812  000100100000000006000002000005021300260002
0084E5074P0694000507              12 813  001300000000000007000101740008027200300002
0084E5075P0952000666              32 813  000400000200000003000002550005034900480000
0084E5076P1119000740              12 812  000400200000000005000002330010043500490002
0084E5077P0590000429              12 813  000000000200010001000001570005022300380002
0084E5078P0919000634              12 812  000100000100030003000002440010032000510001
0084E5079P1322000963              12 813  001700100100010001000003670011049300680003
0084E5080P0746000564              12 812  000100000000010004000002090008029500430003
0084E5081P0981000655              12 812  000300000000010005000002670011031400540000
0084E5082P0902000607              12 813  000500100000010005000002470006030500370000
0084E5083P0614000431              12 813  000100000000010003000001530004023900240006
0084E5084P0822000592              12 813  000300100000010005000101960010033500360004
0084E5085P0872000577              32 813  000000000000010002000002400001029700320004
0084E5086P0577000406              12 812  000000100100000003000001550004021900230000
0084E5087P0659000452              32 812  000000200200000004000001910009022400200000
0084E5088P0559000382              32 813  000000100000010001000001460006021000160001
0084E5089P0645000439              32 813  000100100000000003000001640002024400230001
0084E5090P0416000263              32 812  000000000000000002000000990008013000210003
0084E5091P0849000571              12 812  001100100000000007000002310011026600440000
0084E5092P0915000622              12 812  000400000000000001000102580008031700330000
0084E6001P0974000726              11 1 2  000600000000010004000104580026019000380002
0084E6002P0651000491              11 1 2  000100000100000003000002570010018400310004
0084E6003P1051000732              11 1 2  000600000100000002000004920015019400180004
0084E6004P1358000962              11 1 2  000900000400000008000004630019041500400004
0084E6005P0620000412              11 1 2  000200100100000000000002040003018900120000
0084E6006P0689000465              11 1 2  000600100000000003000002620009015700240003
0084E6007P0710000522              11 1 2  000400000400000001000003200010017000110002
0084E6008P0829000549              11 1 2  000100000000020003000002240006023800710004
0084E6009P1068000739              11 1 2  000200000000000002000003590011032400390002
0084E6010P0540000320              11 1 2  000500000000010005000001260001016500170000
0084E6011P1330000937              11 1 2  000500000000000005000003470017048100800002
0084E6012P1392000845              11 1 2  000200100100000011000005280031022900380004
0084E6013P0664000493              11 1 2  000600000000000003000002460008021500150000
0084E6014P0551000367              11 1 2  000200000100000001000001480008018800190000
0084E6015P0892000611              11 1 2  000500000100010002000103150006023400410005
0084E6016P1272000925              11 1 2  000100100200030003000004900026033500610003
0084E6017P0717000499              11 1 2  000700100200000001000002270005021400390003
0084E6018P0932000690              11 1 2  000200000200010007000003180027029400370002
0084E6019P0507000332              11 1 2  001000000200020003000102010014008000190000
0084E6020P1054000712              11 1 2  000500000200020006000003490016027500560001
0084E6021P0486000361              11 1 2  000400100000000002000002360006008700210004
0084E6022P0605000406              11 1 2  000200000100000002000001770008017200440000
0084E6023P1704001233              11 1 2  000800200200030007000105520024056500670002
0084E6024P0663000441              11 1 2  000500000000020001000001530008025000210001
0084E6025P1027000704              11 1 2  000200000400030004000003410023028100400006
0084E6026P1448000936              11 1 2  001200200100000008000105910023025300440001
0084E6027P1254000884              11 1 2  000600000000010007000003120014047500630006
0084E6028P1070000801              11 1 2  000500000200000007000103880015032500540004
0084E6029P0785000595              11 1 2  000300100000000004000002510013029600270000
0084E6030P0720000510              11 1 2  000000000200010003000002910008017500290001
0084E6031P0994000764              11 1 2  001400000300010001000104330016025100400004
0084E6032P1053000740              11 1 2  000900100300010002000003710027026800550003
0084E6033P0749000486              11 1 2  000300000100000002000002290012019100460002
0084E6034P0795000526              11 1 2  000200000200040001000002440009022100410002
0084E6035P0816000592              11 1 2  000900000600000002000002220013029600390005
0084E6036P1079000794              11 1 2  000500000000010004000004400017027400530000
0084E6037P0944000643              11 1 2  000300000100000002000003430013024700310003
0084E6038P0674000440              11 1 2  000600100200000002000002290013015500280004
0084E6039P0864000589              11 1 2  002700100100000004000003240014017500400003
0084E6040P0585000415              11 1 2  000500000100020002000001730008018300380003
0084E6041P0619000383              11 1 2  000300200000000001000002620009009000160000
0084E6042P0709000546              11 1 2  000800000100020003000002720012021400330001
0084E7001P0345000254              11 1 2  000200000100010001000101340000011000040000
0084E7002P0929000704              11 1 2  000300000100000004000005070026013500250003
0084E7003P0799000556              11 1 2  000700100100000003000003520008017000130001
0084E7004P0921000660              11 1 2  000000300000010004000003670021022700350002
0084E7005P0490000398              11 1 2  000300000100010002000002210011014100160002
0084E7006P0445000312              11 1 2  000000000000000001000001640008012800100001
0084E7007P0393000290              11 1 2  000200000000000005000001730006009300110000
0084E7008P1372000959              11 1 2  000300000200000002000106100024029300220002
0084E7009P0896000639              11 1 2  000200000200000004000003860013018700380007
0084E7010P1085000763              11 1 2  000300000000010001000003500018033600510003
0084E7011P1342000939              11 1 2  002000000200000004000305560032028100370004
0084E7012P0814000594              11 1 2  000100100000000004000003080009024600230002
0084E7013P0443000300              11 1 2  000000000000000000000001840002011000040000
0084E7014P1150000794              11 1 2  001500100100010004000005770021015300190002
0084E7015P1000000727              11 1 2  000300000100020007000004950022017600210000
0084E7016P1149000815              11 1 2  000400000100000001000005040011025900320003
0084E7017P1146000809              11 1 2  000500000100000004000005150023022800310002
0084E7018P0747000532              11 1 2  000200000100000004000002920013018900290002
0084E7019P0694000465              11 1 2  000300100000000003000002480009018100180002
0084E8001P0215000143              11 2 1  000500000000000002000000700004005900020001
0084E8002P0701000551              11 2 1  000200000000000006000003070012019800220004
0084E8003P0634000472              11 2 1  000200000000000004000002010008020700470003
0084E8004P0857000633              11 2 1  010100300000000004000003010012018000300002
0084E8005P0389000297              11 2 1  000300000200000000000001530006010600260001
0084E8006P0736000511              11 2 1  001400000000000002000003340011012300230004
0084E8007P0798000587              11 2 1  000300100000010001000003340019018100430004
0084E8008P1034000783              11 2 1  000400100100000005000103620019033600490005
0084E8009P1380001038              11 2 1  000300000000010004000004270018052000620003
0084E8010P0733000530              11 2 1  000200100200020005000002170009024700420003
0084E8011P0819000623              11 2 1  000100100100000003000002700012028800460001
0084E8012P1139000796              11 2 1  000200000100000007000003370012037300630001
0084E8013P1473001003              11 2 1  000500300000020013000204210021044000930003
0084E8014P0717000562              11 2 1  000400000000000003000002260007028000410001
0084E8015P0975000721              11 2 1  000200000200000006000003090013033200530004
0084E8016P0635000504              11 2 1  005700100200000002000102010009018500450001
0084E8017P0856000622              11 2 1  000200000000000002000002280016030500660003
0084E8018P1215000856              11 2 1  000700000000010005000003370017042100620006
0084E8019P1157000880              11 2 1  000400100000000007000003420020044100610004
0084E9001P1183000884              11 2 1  000200000000010003000004040012038300750004
0084E9002P0595000352              11 2 1  000700000100000003000002150008010100170000
0084E9003P0251000142              11 2 1  000100000000000000000000700002006000090000
0084E9004P1433000938              11 2 1  000600400200020003000004580021037800620002
0084E9005P0450000301              11 2 1  000400000100000004000001540013010300210001
0084E9006P0338000208              11 2 1  000400000000000003000001190006006800070001
0084E9007P1305000946              11 2 1  000700200200010004000003750016046800670004
0084E9008P0767000595              11 2 1  000200100100010002000102400012027000630002
0084E9009P0792000531              11 2 1  000100000100010008000002880012019200270001
0084E9010P0358000252              11 2 1  000700000000000001000001170007010200170001
0084E9011P1019000766              11 2 1  000300100100000002000002910007039800630000
0084E9012P1568001136              11 2 1  000500100500000002000005070027050300830003
0084E9013P1224000816              11 2 1  000600300200000007000004290030029600420001
0084E9014P1254000915              11 2 1  000900000200020002000103730014044300620007
0084E9015P0159000104              11 2 1  000100000000000000000000400003005200080000
0084E9016P0809000602              11 2 1  000400000100020006000002240015029400530003
0084E9017P1848001338              11 2 1  002300100200000016000006060024054301200003
0084E9018P0485000338              11 2 1  000100000000010003000001510007015500190001
0084E9019P1415001051              11 2 1  000200000200000004000004180024051200870002
0084E9020P1776001325              11 2 1  000200000400000008000104970021070200870003
0084E9021P0689000510              11 2 1  000200200000000001000002090012024700360001
0084E9022P1261000884              11 2 1  000500000000000006000004530030033500520003
0064RUnited States Senator                   N   0 1051090218801
0044CCLARK, COLIA             GRE 002058 2F 
0044CEDES, CHRIS              LBT 002365 2H 
0044CGILLIBRAND, KIRSTEN E    DEM 285684 2A 
0044CGILLIBRAND, KIRSTEN E    WOR 023777 2D 
0044CGILLIBRAND, KIRSTEN E    IND 014609 2E 
0044CLONG, WENDY              REP 150703 2B 
0044CLONG, WENDY              CON 030605 2C 
0044CMANGELLI, JOHN           CSP 001901 2I 
0084E0001P0629000472              11 1 1  002100000000030001027500090012013000200001
0084E0002P0574000464              11 1 1  004200000000040003024300190028010400200001
0084E0003P0501000385              11 1 1  002300100000040001020900150017008800270000
0084E0004P0596000459              11 1 1  002100000000030001027200080013011200270002
0084E1001P1184000821              12 4 5 1005800300000060005041600320015022900570000
0084E1002P1134000845              12 4 5 1004200100000060007041300230028027600480001
0084E1003P0992000712              12 4 5 1003600000000000003039500210021018800460002
0084E1004P0621000456              12 4 5 1001900000000030001025500160019012000230000
0084E1005P1021000738              11 4 5 1003200200200030004039800210020022400290003
0084E1006P1528001061              11 4 5 1003600000000070002058200470030028900650003
0084E1007P0594000406              11 4 5 1002900000000010000020500150014012000210001
0084E1008P0881000634              11 2 6 2003800100000030003030300310022020200270004
0084E1009P1623001165              11 2 1 6006200600000010008056500420037036300790002
0084E1010P1508001014              11 3 3 4005100000000020006054800490026028200460004
0084E1011P1482000954              13 3 7 5007600000000020005048000490022025900600001
0084E1012P1070000769              12 512 3003800000000010002038000360019025300390001
0084E1013P0563000353              13 5 4 5002000000000010004016300230007009900320004
0084E1014P0875000644              13 7 7 5002600000000010002032300260017020100460002
0084E1015P0981000664              13 7 7 5005000000000050002038100360016013900280007
0084E1016P1068000717              13 7 7 5005200400000050000040600420018015500320003
0084E1017P0590000407              13 7 7 5001900100000010003023500120014010200170003
0084E1018P0165000109              13 7 7 5001300200000000000006300040000002300040000
0084E1019P0954000627              13 7 7 5002500100000050004035700340023013700390002
0084E1020P0834000588              13 7 7 5003200000000040004031800300028013500350002
0084E1021P0211000124              13 7 7 5001000000000010002007600080000002000060001
0084E1022P0586000418              13 7 7 5002900000000050004022500210013009500260000
0084E1023P0504000318              13 7 7 5001800100000030004018600160007006000210002
0084E1024P0428000280              13 7 7 5001500000000020002016000170004006000160004
0084E1025P1125000717              13 7 7 5006000000000050004039300330029016300270003
0084E1026P0488000307              13 3 3 4004400000100000001023000100001001600040000
0084E1027P0529000397              13 3 3 4001800000000010003025300090013008300160001
0084E1028P1090000747              13 3 3 4004100200000030005040700280023019300450000
0084E1029P1018000759              11 1 3 6002900100000030001030300290020031900530001
0084E1030P0633000461              11 1 1 6004500500000010001017100090018017500350001
0084E1031P1131000819              11 1 2 6004600000200060002040400500029023100460003
0084E1032P0444000306              11 1 1 6002300100000020002012900160013008800300002
0084E1033P1356000857              11 4 6 2006000000000030001051600390020018600280004
0084E1034P1324000796              13 5 7 5004700000000030002039000340022025400420002
0084E1035P1333000887              11 2 6 2004900200000050004043100370034023200880005
0084E1036P1129000679              12 4 4 3005100300000010006034600400021017500320004
0084E1037P0942000598              11 2 6 2004100000000020001029000350020015300520004
0084E1038P1160000634              13 3 3 6005100100000030003030000590025016100290002
0084E1039P1756001214              11 1 1 6007500400100050005060900630033035400580007
0084E1040P1519000931              11 2 1 2006500200100020004040200480021029900840003
0084E1041P1751001098              13 5 7 5009200700000090004056000700026025800680004
0084E1042P0949000501              13 3 3 6004000100000060003026100350015010800310001
0084E1043P0869000561              13 5 4 3003000000000020005029100320014015400320001
0084E1044P0712000472              13 512 5002900000000030004025600200020011400260000
0084E1045P0416000288              13 3 7 5002400100000010000011700190014008500260001
0084E1046P1385000926              13 3 3 4005500000000050005055400410023018300590001
0084E1047P1325000828              11 2 6 2006000000100030005041500570020020600520009
0084E1048P0897000664              13 7 7 5004100100000060000036300170016016400540002
0084E1049P1061000701              13 3 7 5004300000000040001039000330012017900350004
0084E1050P0928000554              12 5 5 3003700000000010007028200220019015000350001
0084E1051P0611000440              13 3 7 5003100100000010001021100310015012600230000
0084E1052P0912000615              13 3 7 5003700000000020001033300270017015800380002
0084E1053P1149000665              13 3 3 4005700100100020002034100380016017800270002
0084E1054P0608000356              12 5 4 4002700000000000005016500290011009200260001
0084E1055P0724000442              12 3 4 3002800000000010005022900240009012000240002
0084E1056P1370000862              12 5 4 3005700100000000008040800360029026900520002
0084E1057P0205000126              13 711 5000700000000000001008400050003002100040001
0084E1058P1054000653              13 5 4 5004000200000030004030500310016020400420006
0084E1059P0442000293              12 5 4 3001700000000000000013800180014008200210003
0084E1060P1001000709              12 4 5 1002500200100040001043500250022016200320000
0084E1061P0610000443              12 4 5 1001900000000000002021900110008016100230000
0084E1062P0842000535              12 4 5 1002800000100030001029200290015013300300003
0084E1063P1616001165              11 2 6 2007000100000050009053700510039039300560004
0084E1064P1298000718              13 3 7 4005700700000040002046900370008011000240000
0084E1065P1292000781              11 2 6 4004900000000040004038300450016023300390008
0084E1066P0951000625              11 2 6 2002900100000040002030400420028016600460003
0084E1067P0718000506              13 3 3 4003100000000030000028800230010012100300000
0084E1068P1001000607              11 2 6 2003200000000020005029400450022016900370001
0084E1069P1045000728              13 3 7 5004100100000030005034800410020021400520003
0084E1070P1071000733              12 512 3004900200100030005035600400014022200340007
0084E1071P0950000578              12 5 4 3002500000000020004030300210014016800370004
0084E1072P1197000707              13 1 3 6006500000000000004035700610019016300360002
0084E1073P1617001182              11 1 3 6010700100000050003051100520027039800720006
0084E1074P1227000746              13 3 7 5006300000000030002039200410024017000470004
0084E1075P0649000399              12 4 4 3002600000000010002023000180005009000230004
0084E1076P1043000617              12 5 4 3003500200100060005031000270013016900410008
0084E1077P0797000537              13 5 4 5003300000100040003026200360012015100330002
0084E1078P1027000665              13 5 4 3004400200000010001032300350022019500400002
0084E1079P1616000956              13 3 3 6006700000100060006045500850027023700670005
0084E1080P1411000815              13 3 3 6008500200000040005039400590031018800420005
0084E1081P0679000415              13 512 5003200000000010003021900200008011000210001
0084E1082P1250000827              13 3 7 5007300700100020006044200300031019000440001
0084E1083P0843000485              12 5 5 3002100000000010000026500260013012000360003
0084E1084P0041000026              13 2 3 6000200000000000000000900020002000800030000
0084E1085P0249000170              13 3 4 4001800000000010001009700070001003800060001
0084E1086P0730000508              12 4 5 1002400000000050006028200170014013500240001
0084E1087P0962000671              12 4 5 1003100000000030002036200190023018400440003
0084E1088P0556000347              11 4 5 1002600100000010002019600190009007600170000
0084E1089P1411001036              12 4 5 1004500000000010003051800380035033500590002
0084E1090P0918000645              12 4 5 1005200000000000000035600260016015500360004
0084E1091P0625000446              11 4 5 1002800100000030003023200290007011200310000
0084E1092P1643001020              12 5 4 3007600000000070007055100420019024800670003
0084E1093P1034000779              11 2 1 2004900100100000003036400230022026300530000
0084E1094P0722000436              12 4 4 3003600000000010003022800140012012400160002
0084E1095P0873000587              12 4 5 1002400100000040002036300230018012300270002
