0171I Following is a set of records pertinent to the Federal Primary held on Tuesday, June 26, 2012, originated at Suffolk County Board of Elections on July 3, 2012 at 1:06 PM
0064RUnited States Senator                   N   0 1051029866001
0044CLONG, WENDY              REP 005404 1A 
0044CMARAGOS, GEORGE          REP 002454 1C 
0044CTURNER, BOB              REP 004218 1B 
0064E0001P0194000011              11 1 1  0003000000000700010000
0064E0002P0196000014              11 1 1  0000000000001000030001
0064E0003P0172000023              11 1 1  0003001000000800020009
0064E0004P0212000014              11 1 1  00-1000000000600020007
0064E1001P0380000029              12 4 5 10000000000001100090009
0064E1002P0408000030              12 4 5 100-4000000002000060008
0064E1003P0327000010              12 4 5 10000000000000200020006
0064E1004P0210000010              12 4 5 10000000000000600020002
0064E1005P0387000023              11 4 5 100-1000000001000070007
0064E1006P0552000031              11 4 5 10000000000001300110007
0064E1007P0235000012              11 4 5 10001000000000600010004
0064E1008P0316000013              11 2 6 200-1000000000400050005
0064E1009P0606000039              11 2 1 60000000000001900020018
0064E1010P0564000016              11 3 3 400-1000000000700010009
0064E1011P0559000016              13 3 7 50000000000000700030006
0064E1012P0359000018              12 512 30000000000000800010009
0064E1013P0252000012              13 5 4 50001000000000800020001
0064E1014P0337000021              13 7 7 50000000000001200070002
0064E1015P0287000008              13 7 7 50000000000000400030001
0064E1016P0291000009              13 7 7 500-1000000000400000006
0064E1017P0192000016              13 7 7 50002000000000600020006
0064E1018P0044000001              13 7 7 50000000000000000000001
0064E1019P0272000000              13 7 7 50000000000000000000000
0064E1020P0241000016              13 7 7 50000001000000700020006
0064E1021P0043000001              13 7 7 500-1000000000200000000
0064E1022P0204000011              13 7 7 50001000000000800010001
0064E1023P0155000006              13 7 7 500-2000000000100050002
0064E1024P0141000004              13 7 7 50000000000000200000002
0064E1025P0346000010              13 7 7 500-1000000000400010006
0064E1026P0082000003              13 3 3 40000000000000000010002
0064E1027P0164000010              13 3 3 40001000000000100030005
0064E1028P0405000014              13 3 3 400-2000000000600080002
0064E1029P0471000049              11 1 3 600-3000000002300180011
0064E1030P0282000026              11 1 1 600-6001000001000090012
0064E1031P0411000019              11 1 2 600-2000000000700060008
0064E1032P0165000003              11 1 1 60000001000000200000000
0064E1033P0383000021              11 4 6 200-2000000001100060006
0064E1034P0481000020              13 5 7 500-1001000000800020010
0064E1035P0518000016              11 2 6 20002000000000900030002
0064E1036P0356000020              12 4 4 30003000000001000040003
0064E1037P0332000019              11 2 6 20000000000001100030005
0064E1038P0344000009              13 3 3 60001000000000300010004
0064E1039P0641000022              11 1 1 60000001000001100030007
0064E1040P0559000020              11 2 1 200-5000000000800080009
0064E1041P0577000017              13 5 7 500-2000000001100020006
0064E1042P0303000006              13 3 3 600-1000000000400010002
0064E1043P0331000011              13 5 4 300-1000000000600030003
0064E1044P0253000012              13 512 500-1000000000500060002
0064E1045P0178000012              13 3 7 500-1000000000400030006
0064E1046P0410000020              13 3 3 400-1001000000700040009
0064E1047P0466000012              11 2 6 20000000000000400050003
0064E1048P0315000019              13 7 7 500-2000000001300030005
0064E1049P0356000016              13 3 7 500-2001000000900000008
0064E1050P0262000011              12 5 5 30001000000000400020004
0064E1051P0239000003              13 3 7 500-1000000000400000000
0064E1052P0344000020              13 3 7 500-3000000001200040007
0064E1053P0350000010              13 3 3 40000000000000600010003
0064E1054P0229000003              12 5 4 400-4000000000400010002
0064E1055P0272000003              12 3 4 300-1000000000200000002
0064E1056P0539000021              12 5 4 300-2000000000900020012
0064E1057P0050000003              13 711 50000000000000300000000
0064E1058P0389000020              13 5 4 50003000000000900040004
0064E1059P0167000005              12 5 4 300-1000000000200030001
0064E1060P0265000017              12 4 5 10004000000000600020005
0064E1061P0213000019              12 4 5 100-1000000000800080004
0064E1062P0276000011              12 4 5 10000000001000500010004
0064E1063P0614000015              11 2 6 20001000000001100000003
0064E1064P0290000006              13 3 7 400-1001000000200020002
0064E1065P0445000029              11 2 6 40000000000001300050011
0064E1066P0337000012              11 2 6 20001000000000700000004
0064E1067P0282000022              13 3 3 400-1000000001400020007
0064E1068P0369000012              11 2 6 20000000000000400020006
0064E1069P0371000016              13 3 7 50003000000000500030005
0064E1070P0383000017              12 512 30000000000000300030011
0064E1071P0316000012              12 5 4 30000000000000500020005
0064E1072P0392000012              13 1 3 600-2000000000800020004
0064E1073P0658000028              11 1 3 600-3000000001100070013
0064E1074P0401000010              13 3 7 500-1000000000500010005
0064E1075P0212000010              12 4 4 300-1000000000600030002
0064E1076P0349000010              12 5 4 30000000000000400020004
0064E1077P0287000010              13 5 4 500-1000000000500040002
0064E1078P0401000021              13 5 4 30001000000001200020006
0064E1079P0493000030              13 3 3 60001000000001400080007
0064E1080P0438000014              13 3 3 600-1000000000900020004
0064E1081P0221000006              13 512 500-2000000000400030001
0064E1082P0394000022              13 3 7 500-6000000001200070009
0064E1083P0279000019              12 5 5 30000000000001600010002
0064E1084P0013000000              13 2 3 60000000000000000000000
0064E1085P0070000001              13 3 4 400-4000000000200010002
0064E1086P0235000017              12 4 5 10000000000000600050006
0064E1087P0343000013              12 4 5 10000000000000200000011
0064E1088P0166000010              11 4 5 10000000000000400010005
0064E1089P0504000015              12 4 5 100-3000000000900030006
0064E1090P0345000021              12 4 5 100-5000000001300040009
0064E1091P0236000007              11 4 5 100-2000000000400040001
0064E1092P0514000026              12 5 4 300-1000000001900010007
0064E1093P0416000020              11 2 1 200-1001000000700020011
0064E1094P0287000013              12 4 4 30000000000001200000001
0064E1095P0244000013              12 4 5 100-1000000000600010007
0064E1096P0247000006              11 3 7 40000000000000600000000
0064E1097P0393000007              11 3 7 400-1000000000300040001
0064E1098P0670000023              11 2 6 20001001001001200020006
0064E1099P0493000020              12 4 4 300-1000000001200050004
0064E1100P0456000013              12 5 4 30000000000000500010007
0064E1101P0243000009              12 4 5 100-2000000000300050003
0064E1102P0374000019              12 4 5 100-6000000000900040012
0064E1103P0249000022              13 7 7 50002000000001200040004
0064E1104P0404000014              13 1 3 600-2002001000400030006
0064E1105P0227000009              12 512 30000000000000600020001
0064E1106P0284000015              13 5 4 50003000000000800000004
0064E1107P0400000007              13 5 8 50000000000000000030004
0064E1108P0344000011              12 4 5 100-1000000000800020002
0064E1109P0311000019              12 4 4 30000000000001000060003
0064E1110P0303000011              12 4 5 20001000000000500020003
0064E1111P0343000021              12 4 5 100-2000000001100070005
0064E1112P0229000019              12 5 5 100-4002000000800060007
0064E1113P0107000004              11 3 1 600-2000000000300030000
0064E1114P0352000010              13 7 7 500-1000000000500030003
0064E1115P0272000011              13 3 7 50000000000000400000007
0064E1116P0544000011              12 4 5 100-2000000000800010004
0064E1117P0283000017              11 4 5 10001000000000600040006
0064E1118P0232000016              11 4 5 10001000000000600040005
0064E1119P0390000010              13 3 7 500-1000000000600020003
0064E1120P0487000068              12 3 4 400-1000000002100220026
0064E1121P0588000016              12 4 5 10003000000000500050003
0064E1122P0537000018              11 2 6 200-1000000001500020002
0064E1123P0271000009              13 3 3 400-2000000000400030004
0064E1124P0546000019              12 5 4 30000000000001300010005
0064E1125P0296000009              12 5 4 300-2000000000500000006
0064E1126P0553000031              12 512 300-1000000001500070010
0064E1127P0274000011              12 4 4 30001000000000500010004
0064E1128P0329000009              11 3 7 40003000000000400010001
0064E1129P0254000007              12 4 5 100-2000000000600010002
0064E1130P0203000021              12 4 6 20000000000001000040007
0064E1131P0275000008              13 3 7 50000000000000400010003
0064E1132P0544000009              12 5 4 300-2000000000400040003
0064E1133P0308000007              12 3 4 400-1000000000000030005
0064E1134P0347000020              11 4 5 10000000000000900050006
0064E1135P0536000025              11 2 6 200-1001000001300060006
0064E1136P0445000025              11 2 6 20000000000001500020008
0064E1137P0155000006              11 4 3 40001000000000400000001
0064E1138P0999000021              13 3 7 500-7000000000700080013
0064E1139P0576000023              13 3 3 600-1000000001300040007
0064E1140P0476000017              11 4 6 10001000000000800030005
0064E1141P0447000019              11 2 1 60003001000000700020006
0064E1142P0489000020              12 512 30000000000000900050006
0064E1143P0339000010              11 4 6 10001000000000700020000
0064E1144P0259000008              13 3 7 500-3000000000600030002
0064E1145P0409000012              13 5 4 40002000000000400020004
0064E1146P0191000007              12 4 5 10002001000000100010002
0064E1147P0576000027              12 4 5 20000000000001600060005
0064E1148P0395000017              12 4 5 100-1000000000400070007
0064E1149P0251000006              13 3 7 400-4000000000400030003
0064E1150P0313000003              13 3 3 400-1000000000300000001
0064E1151P0447000031              11 1 2 60002000000001300100006
0064E1152P0581000033              12 5 4 300-7000000002600060008
0064E1153P0211000010              11 2 6 20001000000000300000006
0064E1154P0368000017              11 1 1 60002000000000900020004
0064E1155P0285000010              13 7 7 500-3000000000600020005
0064E1156P0296000009              13 3 3 600-1002000000300020003
0064E1157P0772000027              12 3 4 400-2000000001600040009
0064E1158P0211000014              12 512 300-3000000000600090002
0064E1159P0434000017              11 2 6 200-2000000001600000003
0064E1160P0380000009              13 1 3 600-4000000000700010005
0064E1161P0284000008              12 4 5 10000000000000400010003
0064E1162P0174000008              12 5 4 300-2000000000400010005
0064E1163P0326000009              12 4 5 10000001000000400020002
0064E1164P0514000017              13 5 8 500-2000000001000050004
0064E1165P0393000011              12 4 5 100-1000000000400020006
0064E1166P0586000031              12 4 5 100-2000000001400120007
0064E1167P0342000078              11 2 6 200-4001000001600460019
0064E1168P0273000012              11 4 6 20000000000000800020002
0064E1169P0532000017              11 4 6 200-3000000001400030003
0064E1170P0311000018              12 4 5 10000000000000700050006
0064E1171P0329000012              13 7 7 50000000000000600040002
0064E1172P0130000004              13 512 30000000000000000010003
0064E1173P0317000022              13 3 7 50001000000000900050007
0064E1174P0352000021              13 5 4 50001000000001300040003
0064E1175P0412000024              12 5 4 30003000000001200050004
0064E1176P0332000015              13 5 4 300-4000000001100030005
0064E1177P0184000012              12 4 5 10002000000000300030004
0064E1178P0304000011              11 4 5 100-1000000000700020003
0064E1179P0697000031              12 5 4 30000000000001400090008
0064E1180P0371000012              12 4 4 300-1001000000900010002
0064E1181P0169000043              11 2 6 20000001000001400200008
0064E1182P0053000000              11 4 6 20000000000000000000000
0064E1183P0243000006              13 5 4 500-2000000000200040002
0064E1184P0282000004              11 1 3 600-1000000000500000000
0064E1185P0172000006              11 2 6 20000000000000400000002
0064E1186P0298000005              13 5 7 400-1001000000000020003
0064E1187P0393000016              11 2 6 20003000000000600020005
0064E1188P0388000026              11 2 6 20002000000001400040006
0064E1189P0387000009              11 2 6 200-1000000000800010001
0064E1190P0224000016              11 2 6 20000000000001000050001
0064E1191P0222000010              12 4 5 10000000000000500030002
0064E1192P0449000018              11 3 3 400-4000000001300030006
0064E1193P0479000019              11 2 1 20000000000000800050006
0064E1194P0214000011              13 3 7 40003000000000300020003
0064E1195P0361000018              11 2 6 20001000000000500060006
0064E1196P0525000018              13 3 7 500-4000000001200060004
0064E1197P0177000047              11 2 6 200-7000000001400250015
0064E1198P0382000081              11 2 6 400-3001000003700110035
0064E1199P0196000010              11 2 6 400-2000000000500010006
0064E1200P0145000005              11 4 7 400-2000000000400010002
0064E1201P0666000025              11 4 6 200-2000000001400070006
0064E1202P0163000005              11 4 6 20000000000000200010002
0064E1203P0257000018              11 2 1 60000000000000900040005
0064E1204P0349000013              13 1 3 600-1000000000700020005
0064E1205P0453000014              11 4 5 100-1000000000800010006
0064E1206P0343000022              12 4 4 30000000000000900030010
0064E1207P0224000005              11 1 3 60000000000000200020001
0064E1208P0359000014              11 1 3 600-3001000000800050003
0064E1209P0285000010              12 4 5 20000000000000600010003
0064E1210P0251000022              12 3 4 400-4001000000900050011
0064E1211P0354000016              13 5 7 500-1000000001000050002
0064E1212P0145000008              11 2 5 10000000000000600000002
0064E1213P0272000013              11 3 3 40000000000000400060003
0064E1214P0287000012              13 3 7 500-3000000000600050004
0064E1215P0268000011              13 1 3 600-1000000000200030007
0064E1216P0822000015              11 2 6 200-2000000000400060007
0064E1217P0099000002              13 5 7 50000000000000100000001
0064E1218P0172000007              12 3 7 400-1000000000300030002
0064E1219P0150000007              12 512 300-2000000000300010005
0064E1220P0075000002              11 2 6 200-2000000000200010001
0064E1221P0092000003              12 512 30000000000000200000001
0064E1222P0174000006              13 512 30001000000000100010003
0064E1223P0117000000              12 4 5 10-19002000000500050007
0064E1224P0177000008              11 4 5 100-1000000000500040000
0064E1225P0291000020              11 4 5 100-1000000000800060007
0064E1226P0160000009              11 4 5 100-1000000000600010003
0064E1227P0588000020              11 2 1 60000001000000500060008
0064E1228P0273000001              13 3 3 400-1000000000100000001
0064E1229P0298000004              13 3 3 600-2000000000300030000
0064E1230P0441000016              12 5 4 300-1000000000800010008
0064E1231P0197000005              13 512 500-2000000000300030001
0064E1232P0279000015              12 3 4 30002000001000600010005
0064E1233P0230000018              12 4 5 10000000000000900030006
0064E1234P0340000004              13 3 3 40000000000000100000003
0064E1235P0260000013              13 3 7 50003000000000400030003
0064E1236P0318000018              11 2 6 20001001000000800050003
0064E1237P0427000011              12 4 4 300-8002000000500020010
0064E1238P0299000011              13 5 4 50001000000000800010001
0064E1239P0345000012              11 4 5 10000000000000700030002
0064E1240P0286000011              13 3 7 500-1001000000500040002
0064E1241P0362000020              12 3 4 400-2001000001300050003
0064E1242P0405000001              12 5 4 30000000000000000010000
0064E1243P0197000006              12 4 6 20000000000000300020001
0064E1244P0161000010              13 5 4 30000000000000700010002
0064E1245P0648000013              11 4 6 200-1000000000300050006
0064E1246P0286000010              13 3 7 50000000000000500020003
0064E1247P0357000009              13 3 7 40002000000000200030002
0064E1248P0265000018              11 2 6 200-1000000000900020008
0064E1249P1018000023              13 3 3 600-5000000000900060013
0064E1250P0346000013              12 4 4 300-3001000000600040005
0064E1251P0336000014              12 4 5 10-11001000001400010009
0064E1252P0362000005              11 4 6 20000000000000400010000
0064E1253P0275000009              11 3 3 400-2000000000300050003
0064E1254P0287000005              13 3 7 500-4000000000300040002
0064E1255P0364000007              11 2 6 40000000000000300010003
0064E1256P0621000026              11 3 6 40000000000001500060005
0064E1257P0274000009              11 4 6 200-2001000000600040000
0064E1258P0173000005              11 4 6 200-1000000000400010001
0064E1259P0164000016              12 3 4 400-2000000001100030004
0064E1260P0317000011              11 2 6 20000000000000400050002
0064E1261P0137000009              12 4 7 40001000001000300030001
0064E1262P0237000005              12 3 4 30000000000000200000003
0064E1263P0700000045              11 2 6 200-2000000003000030014
0064E1264P0590000027              11 2 1 600-2000000001100080010
0064E1265P1123000037              11 1 1 60001000000002100050010
0064E1266P0294000010              13 3 3 400-1000000000500050001
0064E1267P0338000018              11 2 6 200-1001000001100030004
0064E1268P0432000021              13 1 3 60002000001000800050005
0064E1269P0243000006              11 3 3 40000000000000500000001
0064E1270P0447000110              11 2 6 200-4000000005100210042
0064E1271P0284000004              13 5 7 50000000000000100000003
0064E1272P0387000015              11 1 1 60000000000000600020007
0064E1273P0302000017              13 1 3 400-1000000001000020006
0064E1274P0228000005              11 1 3 600-2000000000400010002
0064E1275P0248000007              11 3 3 40000000000000400020001
0064E1276P0083000000              12 4 4 40000000000000000000000
0064E1277P0140000005              13 3 3 40001000000000200020000
0064E1278P0007000000              13 3 3 60000000000000000000000
0064E1279P0201000006              11 1 1 60001000000000200000003
0064E1280P0000000000              11 3 1 60000000000000000000000
0064E1281P0037000001              13 2 1 60000000000000000010000
0064E1282P0003000000              13 512 30000000000000000000000
0064E1283P0295000009              13 3 1 600-1000000000300060001
0064E1284P0466000073              11 2 6 400-5000000003500150028
0064E1285P0334000016              11 1 3 60000001000000600040005
0064E1286P0443000008              11 2 6 20000000000000500020001
0064E1287P0266000013              11 1 3 60000000000000900010003
0064E1288P0375000014              11 4 6 100-2000000000700050004
0064E1289P0237000002              13 3 3 40000000000000100000001
0064E1290P0480000026              11 1 1 60004000000001100050006
0064E1291P0304000007              11 3 3 60000000000000200050000
0064E1292P0334000012              12 4 5 10000000000000600020004
0064E1293P0225000020              11 2 6 200-1000000001400020005
0064E1294P0329000007              13 5 7 40001000000000200010003
0064E1295P0000000000              13 3 7 50000000000000000000000
0064E2001P0419000017              351018  0000000000000900040004
0064E2002P0328000014              351018  00-1000000000700030005
0064E2003P0283000010              351018  0000000000000300000007
0064E2004P0238000008              351018  00-1000000000300010005
0064E2005P0135000008              351018  00-1000000000200010006
0064E2006P0194000013              351018  00-2000000000200040009
0064E2007P0111000004              351018  0000000000000300000001
0064E2008P0317000024              351218  00-1000000001300030009
0064E2009P0137000001              351018  00-1000000000000000002
0064E2010P0198000007              351018  00-1000000000600000002
0064E2011P0112000006              351017  00-1000000000200010004
0064E2012P0108000010              351017  0000000000000500000005
0064E2013P0278000007              351218  00-1000000000200010005
0064E2014P0442000013              351216  00-1000000000600040004
0064E2015P0164000004              351218  0000000000000300000001
0064E2016P0348000011              351218  00-2000000000900020002
0064E2017P0331000006              351213  0000001000000200010002
0064E2018P0222000006              321213  00-1000000000300010003
0064E2019P0269000015              321218  00-1000000000300030010
0064E2020P0313000008              351218  00-3000000000400020005
0064E2021P0236000003              321216  0001000000000200000000
0064E2022P0342000012              351017  0000000000000300020007
0064E2023P0219000011              351017  0000000000000300040004
0064E2024P0192000012              351218  0000000000000700020003
0064E2025P0181000011              351018  00-1000000000200050005
0064E2026P0058000002              351018  0000000000000000000002
0064E2027P0166000006              351017  00-1000000000200020003
0064E2028P0276000013              321016  00-1000000000400020008
0064E2029P0255000008              351018  00-3000000000600010004
0064E2030P0291000012              351018  00-1000000000200020009
0064E2031P0302000012              351016  0000000000000300010008
0064E2032P0244000002              351018  00-1000000000000000003
0064E2033P0260000013              351017  0000000000000300060004
0064E2034P0119000006              351017  0000000000000400000002
0064E2035P0236000011              321218  0000000000000200050004
0064E2036P0302000013              351016  00-3000000000400040008
0064E2037P0297000010              351018  0000000000000600000004
0064E2038P0299000018              351218  00-1000000000800010010
0064E2039P0294000018              321218  0000000000000800030007
0064E2040P0360000014              351218  00-1000000001000020003
0064E2041P0486000015              321016  00-8000000000400090010
0064E2042P0265000012              351017  0000000000000400010007
0064E2043P0287000021              351218  0000001000000800020010
0064E2044P0082000004              351216  00-2000000000000000006
0064E2045P0378000006              351018  0000000000000100000005
0064E2046P0201000007              351018  00-1000000000500020001
0064E2047P0168000006              351218  00-1000000000300010003
0064E2048P0284000016              351017  0000000000000900010006
0064E2049P0223000004              351017  00-1000000000100020002
0064E2050P0272000012              321213  00-1000000000700010005
0064E2051P0285000006              351216  0000000000000400000002
0064E2052P0335000018              351016  00-1000000000800060005
0064E2053P0210000011              351017  00-1000000000100030008
0064E2054P0118000002              351017  00-3000000000100010003
0064E2055P0430000014              351218  0000000000000200030009
0064E2056P0209000012              351017  00-3000000000600040005
0064E2057P0173000009              321218  00-2000000000200020007
0064E2058P0246000005              351017  0000000000000300000002
0064E2059P0194000011              351017  00-2000000000200070004
0064E2060P0517000012              321213  00-2000000000900040001
0064E2061P0173000007              351017  00-1000000000500010002
0064E2062P0203000006              351017  0000000000000200030001
0064E2063P0054000001              351018  0000000000000000010000
0064E2064P0232000013              351018  0000000000000200050006
0064E2065P0215000015              351218  0000000000000300080004
0064E2066P0332000009              321218  00-2000000000400050002
0064E2067P0371000007              321218  00-1000000000100040003
0064E2068P0348000020              351218  0000000000000300090008
0064E2069P0322000009              351218  00-4000000000900000004
0064E2070P0189000004              351017  0000000000000200010001
0064E2071P0210000004              351017  0000000000000300000001
0064E2072P0326000018              351017  00-1000000000400080007
0064E2073P0172000011              351018  00-1000000000500030004
0064E2074P0371000012              321213  00-2000000000200020010
0064E2075P0221000010              321218  00-1000000000600010004
0064E2076P0417000018              351016  00-1000000000800040007
0064E2077P0278000009              351216  00-5002000000300040005
0064E2078P0329000005              351016  00-1000000000300020001
0064E2079P0157000011              351017  0000000000000400040003
0064E2080P0059000008              351218  0000000000000100060001
0064E2081P0295000020              351218  0000000000000800010011
0064E2082P0270000010              351016  00-3000000000700010005
0064E2083P0240000014              351016  00-3000000000700040006
0064E2084P0358000018              351216  00-1000000000600030010
0064E2085P0031000000              351017  0000000000000000000000
0064E2086P0198000007              351213  0000000000000300020002
0064E2087P0195000007              351218  0001000000000300020001
0064E2088P0175000008              351017  0000000000000000060002
0064E2089P0120000006              351018  0000000000000300030000
0064E2090P0198000010              351218  0000000000000300020005
0064E2091P0333000013              351016  00-2000000000600000009
0064E2092P0158000005              351017  00-1000000000500010000
0064E2093P0193000012              351218  00-2000000000400020008
0064E2094P0223000004              351017  00-3000000000000020005
0064E2095P0178000015              351216  00-2000000000400040009
0064E2096P0206000006              351017  00-2000000000500000003
0064E2097P0350000012              351218  00-2000000000800020004
0064E2098P0397000011              351016  00-2000000000700020004
0064E2099P0227000006              351218  00-1000000000100010005
0064E2100P0388000012              321216  0000000000000600040002
0064E2101P0498000015              351017  00-2000000000500060006
0064E2102P0412000015              351016  00-2000000000700070003
0064E2103P0265000003              351218  00-2000000000400010000
0064E2104P0180000005              351018  00-2001000000200030001
0064E2105P0119000005              351016  0000000000000000030002
0064E2106P0171000011              351218  00-2000000000500020006
0064E2107P0317000010              321016  0000000000000600030001
0064E2108P0341000019              351216  00-1000000000900020009
0064E2109P0339000005              321017  00-3000000000200020004
0064E2110P0296000012              351018  00-1000000000400040005
0064E2111P0169000008              351218  0000000000000200030003
0064E2112P0539000023              351016  00-4000000001700020008
0064E2113P0329000009              351218  00-4000000000500010007
0064E2114P0267000004              321016  00-2000000000200010003
0064E2115P0110000003              321218  0000000000000100000002
0064E2116P0232000013              351218  0000000000000100060006
0064E2117P0192000006              351218  00-2000000000400010003
0064E2118P0220000006              321216  0000000000000100020003
0064E2119P0451000006              351018  0000000000000200010003
0064E2120P0233000009              321216  00-2000000000100010009
0064E2121P0243000009              351017  00-3000000000400010007
0064E2122P0279000008              321218  0000000000000500010002
0064E2123P0271000013              351017  00-2000001000400050005
0064E2124P0339000013              351218  00-1000000000600010007
0064E2125P0381000002              321016  0000000000000000000002
0064E2126P0253000014              351218  00-3000000000700040006
0064E2127P0308000010              351213  00-3000000000900020002
0064E2128P0326000007              351018  0000000000000100020004
0064E2129P0283000014              351218  00-1000000000100070007
0064E2130P0218000011              321218  0000000000000800020001
0064E2131P0236000014              351216  00-1000000000600050004
0064E2132P0154000005              351016  00-1000000000500000001
0064E2133P0156000005              321016  00-1001000000100020002
0064E2134P0307000014              351016  00-2000000000200100004
0064E2135P0299000009              351016  00-1000000000400020004
0064E2136P0292000014              321216  0000000000001000010003
0064E2137P0193000006              321016  0000000000000500010000
0064E2138P0253000004              321017  0000000000000000000004
0064E2139P0208000003              351016  0000000000000200000001
0064E2140P0357000007              351218  00-4000000000100050005
0064E2141P0150000004              351216  0000000000000200020000
0064E2142P0194000004              321213  0000000000000100000003
0064E2143P0218000004              351017  0000000000000200000002
0064E2144P0490000014              321016  0000000000000400020008
0064E2145P0213000009              321017  00-2000000000200070002
0064E2146P0054000001              321016  0000000000000000000001
0064E2147P0210000005              351016  00-4000000000400040001
0064E2148P0188000002              321216  0000000000000100000001
0064E2149P0218000001              351218  0000000000000000010000
0064E2150P0103000003              351018  0000000000000100000002
0064E2151P0245000007              321017  00-2000000000300000006
0064E2152P0085000003              321216  0000000000000100010001
0064E2153P0221000020              351218  00-1000001000800030009
0064E2154P0152000010              351017  0000000001000300030003
0064E2155P0204000016              351017  00-1000000000400040009
0064E2156P0130000008              351218  0000000000000500010002
0064E2157P0165000006              351218  0000000001000200000003
0064E2158P0234000011              321017  0000001000000200030005
0064E2159P0215000018              351216  00-1000000001200010006
0064E2160P0163000001              351018  0000000000000000000001
0064E2161P0157000008              351218  0000000000000300030002
0064E2162P0473000009              351017  00-4000000000300050005
0064E2163P0319000012              351016  00-1000000000600050002
0064E2164P0191000011              351218  00-1000000000600010005
0064E2165P0233000015              321216  00-1000000000300080005
0064E2166P0181000001              321017  0000000000000100000000
0064E2167P0159000001              351016  0000000000000000010000
0064E2168P0259000008              351018  0000000000000400020002
0064E2169P0227000007              321213  0000000000000000020005
0064E2170P0116000004              321016  00-1000000000300010001
0064E2171P0086000000              351016  00-2000000000100010000
0064E2172P0009000000              321016  0000000000000000000000
0064E2173P0008000000              321016  0000000000000000000000
0064E2174P0020000002              351216  0000000000000100000001
0064E2175P0084000000              351216  00-1000000000000010000
0064E2176P0008000000              321017  0000000000000000000000
0064E2177P0031000000              351017  0000000000000000000000
0064E2178P0229000007              351017  00-1000000000000010007
0064E3001P0333000018              24 911  0000000000000400030011
0064E3002P0253000007              24 911  0000000000000200020003
0064E3003P0178000001              24 711  00-3000000000200010001
0064E3004P0217000004              24 711  0000000000000400000000
0064E3005P0074000001              24 711  0000000000000100000000
0064E3006P0008000000              24 710  0000000000000000000000
0064E3007P0328000001              24 711  00-4000000000200010002
0064E3008P0208000004              24 711  00-3000000000300010003
0064E3009P0135000001              24 6 9  0000000000000000000001
0064E3010P0472000007              24 710  00-4000000000600030002
0064E3011P0325000020              24 710  00-1000000001400050002
0064E3012P0582000013              24 710  00-6000000000600040009
0064E3013P0453000005              23 710  00-1000000000400000002
0064E3014P0458000014              24 710  00-3000000000800030006
0064E3015P0518000010              24 710  00-2000000000700010004
0064E3016P0446000010              23 6 9  00-2000001000300020006
0064E3017P0292000008              23 6 9  00-3000000000600010004
0064E3018P0302000021              23 7 8  00-5000000001200060008
0064E3019P0248000004              23 7 8  00-1000000000000040001
0064E3020P0291000010              23 7 8  00-1000000000400040003
0064E3021P0410000011              23 7 8  0000000000000800010002
0064E3022P0047000004              23 7 8  0000000000000000000004
0064E3023P0245000007              24 5 8  00-1000000000500000003
0064E3024P0333000013              23 7 8  0000000000000400040005
0064E3025P0579000009              23 5 8  00-6000000000800040003
0064E3026P0357000011              24 711  00-1000000000800000004
0064E3027P0201000001              24 610  00-1000000000000010001
0064E3028P0386000013              24 710  00-4000000001000020005
0064E3029P0260000005              24 611  00-1000000000100040001
0064E3030P0241000007              23 6 9  0000000000000400010002
0064E3031P0481000019              24 911  00-1000000001400010005
0064E3032P0252000005              24 611  00-1000000000200020002
0064E3033P0122000001              23 6 9  0000000000000000010000
0064E3034P0337000011              24 610  0000000000000200050004
0064E3035P0191000012              24 710  00-2000000000800040002
0064E3036P0099000002              23 6 9  00-3000000000100010003
0064E3037P0453000012              23 7 8  00-4000000000700030006
0064E3038P0311000010              23 7 8  00-3000000000400020007
0064E3039P0331000015              23 7 8  00-4000000000900040006
0064E3040P0314000002              24 710  00-1000000000100000002
0064E3041P0132000005              24 911  0000000000000400010000
0064E3042P0460000012              24 911  0000000000000400010007
0064E3043P0189000013              24 911  0000000000000900020002
0064E3044P0211000007              241211  0000000000000600010000
0064E3045P0265000005              24 7 8  00-1000000000500000001
0064E3046P0075000001              13 812  0001000000000000000000
0064E3047P0395000012              24 911  0000000000000400000008
0064E3048P0398000014              24 611  00-2000000000600020008
0064E3049P0390000018              23 710  00-2000000000200050013
0064E3050P0290000005              24 710  00-1001000000400000001
0064E3051P0209000013              23 6 9  00-1000000001100010002
0064E3052P0416000015              24 7 8  00-2000000000500070005
0064E3053P0364000018              23 7 8  00-1000000000800060005
0064E3054P0262000002              23 510  0000000000000200000000
0064E3055P0210000007              23 6 9  00-1000000000200040002
0064E3056P0261000007              24 911  0000000000000500010001
0064E3057P0376000015              24 911  00-2000000000600030008
0064E3058P0461000019              24 911  00-1000000001000050005
0064E3059P0123000002              23 6 9  00-3000000000300020000
0064E3060P0094000003              23 6 9  0000000000000100010001
0064E3061P0444000021              23 7 8  0000000000000400080009
0064E3062P0534000015              24 911  00-2001000001000020004
0064E3063P0132000001              24 611  0000000000000100000000
0064E3064P0325000005              24 911  0000000000000300010001
0064E3065P0354000017              24 710  00-1000000000500020011
0064E3066P0443000016              24 911  00-1000000000900010007
0064E3067P0194000006              241211  00-1000000000400010002
0064E3068P0143000004              23 6 9  0000000000000200010001
0064E3069P0340000014              241211  00-2000000000800030005
0064E3070P0519000007              23 710  00-3000000000400030003
0064E3071P0145000001              23 6 9  0000000000000000000001
0064E3072P0158000002              24 611  00-1000000000200010000
0064E3073P0142000000              24 610  0000000000000000000000
0064E3074P0195000009              24 710  0000000000000200040003
0064E3075P0125000000              23 6 9  0000000000000000000000
0064E3076P0176000008              23 7 8  0000000000000300020003
0064E3077P0253000003              23 6 9  00-1000000000200020000
0064E3078P0475000019              23 7 8  00-2000001000500040011
0064E3079P0314000009              24 7 8  00-2000000000500000006
0064E3080P0338000007              241211  00-4000000000300030005
0064E3081P0521000027              24 7 8  00-4000000002000040007
0064E3082P0335000016              24 911  0000000000000500030008
0064E3083P0173000002              23 6 9  00-1000000000000010002
0064E3084P0137000006              23 6 9  00-3000000000400010004
0064E3085P0226000009              23 6 9  00-1000000000400020004
0064E3086P0110000000              23 6 9  00-1000000000100000000
0064E3087P0413000011              23 710  00-3000000000400030007
0064E3088P0319000004              23 510  00-1000000000400010000
0064E3089P0307000005              24 710  00-1000000000200020002
0064E3090P0423000014              241211  00-3000000000800030006
0064E3091P0253000009              23 710  00-1000000000900000001
0064E3092P0083000000              24 610  00-2001000000100000000
0064E3093P0153000010              241211  00-1000000000800000003
0064E3094P0088000001              23 6 9  0000000000000100000000
0064E3095P0114000001              23 6 9  0000000000000000000001
0064E3096P0052000000              23 6 9  0000000000000000000000
0064E3097P0158000008              241211  0000000000000200050001
0064E3098P0290000008              13 612  00-1000000000400000005
0064E3099P0560000005              24 7 8  0000000000000200010002
0064E3100P0071000004              23 6 9  0000000000000100000003
0064E3101P0336000008              23 7 8  0000000000000200010005
0064E3102P0449000006              24 710  00-1000000000200010004
0064E3103P0164000003              241211  00-2000000000200010002
0064E3104P0115000003              23 6 9  0000000000000200000001
0064E3105P0350000006              23 710  00-5000000000500030003
0064E3106P0303000012              23 7 8  00-1000000000200020009
0064E3107P0288000009              24 610  0000000000000200000007
0064E3108P0391000018              24 7 8  00-3000000001100050005
0064E3109P0205000002              241211  0000000000000100000001
0064E3110P0550000017              24 710  00-3000000001000040006
0064E3111P0167000002              23 6 9  0000000000000200000000
0064E3112P0442000033              13 812  00-2001000001800040012
0064E3113P0111000001              23 6 9  00-1000000000000010001
0064E3114P0247000004              23 6 9  00-2000000000200020002
0064E3115P0106000005              24 610  00-1000000000400000002
0064E3116P0384000006              24 5 8  00-1000000000400020001
0064E3117P0141000008              23 6 9  00-1000000000500010003
0064E3118P0415000009              23 510  00-1000000000400010005
0064E3119P0123000004              24 6 9  0000000000000300000001
0064E3120P0807000021              24 710  00-3000000001100060007
0064E3121P0418000018              24 911  00-1000000000500020012
0064E3122P0410000013              24 7 8  00-1000000000800010005
0064E3123P0370000012              24 911  00-1001000000600030003
0064E3124P0081000002              23 6 9  0000000000000000000002
0064E3125P0152000005              23 6 9  00-2000000000400000003
0064E3126P0265000006              24 5 8  00-1000000000200020003
0064E3127P0320000020              24 911  0000000000000600000014
0064E3128P0281000009              24 710  0000000000000500020002
0064E3129P0166000006              24 710  0000000000000400010001
0064E3130P0381000015              23 7 8  00-1000000000500030008
0064E3131P0346000016              24 5 8  00-2000000001100030004
0064E3132P0288000010              23 7 8  0000000000000200050003
0064E3133P0130000007              24 710  0000000000000300030001
0064E3134P0428000030              13 812  00-1000000001200050014
0064E3135P0261000013              23 510  00-4000000000700040006
0064E3136P0244000015              24 711  0000000000000700030005
0064E3137P0300000003              23 7 8  00-1000000000100000003
0064E3138P0287000007              13 812  00-1000000000300010004
0064E3139P0520000016              24 5 8  00-4000000001300020005
0064E3140P0351000018              14 5 8  0000000000000300080007
0064E3141P0403000007              23 7 8  00-1000000000400010003
0064E3142P0356000003              23 510  00-1000000000200000002
0064E3143P0278000004              24 710  00-4000000000100030004
0064E3144P0330000010              24 7 8  00-1000000000300010007
0064E3145P0266000009              23 7 8  00-2000000000400030004
0064E3146P0398000010              24 911  0000000000000600010003
0064E3147P0334000009              24 911  00-3000000000700010004
0064E3148P0298000011              24 710  0000000000000700000004
0064E3149P0415000013              24 710  00-3000000000400040008
0064E3150P0097000002              23 6 9  00-1000000000100020000
0064E3151P0390000024              13 812  00-5000000001600060007
0064E3152P0596000012              23 510  00-4002000000700020005
0064E3153P0328000009              23 510  00-1000000000700010002
0064E3154P0391000005              24 510  00-1000000000300020001
0064E3155P0475000022              24 7 8  00-4000000000800020016
0064E3156P0152000006              24 611  0000000000000100010004
0064E3157P0354000007              24 710  00-1000000000300010004
0064E3158P0011000000              13 6 9  0000000000000000000000
0064E3159P0375000017              24 7 8  00-2000000001200010006
0064E3160P0159000004              23 6 9  0000000000000100020001
0064E3161P0470000007              23 7 8  00-1000000000300020003
0064E3162P0380000010              24 5 8  0000000000000600010003
0064E3163P0273000011              24 711  0000000000000600000005
0064E3164P0394000006              23 710  00-1000000000300010003
0064E3165P0437000013              23 7 8  00-2000000000800000007
0064E3166P0287000009              23 7 8  00-3000000000500040003
0064E3167P0256000006              241211  0000000000000200000004
0064E3168P0187000004              23 6 9  0000000000000300010000
0064E3169P0227000007              24 611  0000000000000400010002
0064E3170P0076000001              241211  0000000000000000000001
0064E3171P0172000007              241211  00-2000000000600020001
0064E3172P0560000018              24 5 8  0000000000000900030006
0064E3173P0343000007              24 5 8  00-1000000000100030004
0064E3174P0041000000              241211  0000000000000000000000
0064E3175P0154000004              24 610  0000000000000300000001
0064E3176P0106000002              23 6 9  0000000000000100010000
0064E3177P0430000028              13 812  0000000000001000090009
0064E3178P0293000005              23 810  00-1001000000400010000
0064E3179P0246000007              13 5 8  00-2000000000500000004
0064E3180P0480000004              24 5 8  00-3000000000000020005
0064E3181P0140000002              23 6 9  0000000000000100010000
0064E3182P0192000003              24 710  00-4000000000400010002
0064E3183P0107000001              24 711  0000000000000100000000
0064E3184P0319000012              24 911  00-2000000000900010004
0064E3185P0009000000              23 7 9  0000000000000000000000
0064E3186P0238000009              24 911  00-2000000000600010004
0064E3187P0214000003              23 510  00-1000000000300010000
0064E3188P0036000002              23 610  0000000000000200000000
0064E3189P0094000000              24 6 9  0000000000000000000000
0064E3190P0033000000              241211  0000000000000000000000
0064E3191P0000000000              13 810  0000000000000000000000
0064E3192P0433000006              24 710  00-4000000000500010004
0064E3193P0132000002              24 611  0000000000000100000001
0064E3194P0107000004              23 6 9  00-1000000000200030000
0064E3195P0266000021              24 911  00-1000000001100040007
0064E3196P0103000003              24 611  00-1000000000400000000
0064E3197P0225000017              23 710  0000000000000900040004
0064E3198P0289000006              24 710  0000000000000300010002
0064E3199P0064000001              23 6 9  0000000000000000000001
0064E3200P0088000004              23 6 9  00-1000000000200000003
0064E3201P0244000009              24 7 8  0000000000000200010006
0064E3202P0293000003              23 510  0000000000000100020000
0064E3203P0242000005              23 710  0000000000000200010002
0064E3204P0074000008              241211  0002000000000300000003
0064E3205P0085000002              23 6 9  0000000000000200000000
0064E3206P0107000003              23 6 9  0000000000000200000001
0064E3207P0087000000              24 6 9  0000000000000000000000
0064E3208P0299000012              24 911  0000000000000900010002
0064E3209P0258000002              24 5 8  00-4000000000300020001
0064E3210P0259000003              24 710  0000000000000000000003
0064E3211P0311000005              24 710  00-1000000000300000003
0064E3212P0365000013              241211  00-1000000000300020009
0064E3213P0369000013              24 7 8  00-1000000000700060001
0064E3214P0339000011              24 710  00-1001000000700020002
0064E3215P0040000001              23 710  0000000000000100000000
0064E3216P0900000016              24 5 8  00-1000000000400030010
0064E3217P0060000003              24 6 9  0000000000000000010002
0064E3218P0017000000              23 510  0000000000000000000000
0064E3219P0000000000              23 612  0000000000000000000000
0064E3220P0000000000              23 5 9  0000000000000000000000
0064E3221P0031000000              23 810  0000000000000000000000
0064E3222P0287000006              23 510  00-2000000000600010001
0064E3223P0268000005              24 5 8  00-6000000000600020003
0064E3224P0120000001              23 812  0000000000000000000001
0064E3225P0000000000              23 612  0000000000000000000000
0064E3226P0000000000              23 812  0000000000000000000000
0064E4001P0301000016              24 914  00-1000000000700020008
0064E4002P0144000011              24 914  00-2000000000500020006
0064E4003P0359000017              24 914  0000000000000800020007
0064E4004P0238000007              241216  0000000000000200020003
0064E4005P0290000006              241114  00-1000000000400000003
0064E4006P0205000007              241114  0000000000000300030001
0064E4007P0223000004              281115  0000000000000200010001
0064E4008P0404000015              281115  00-1000000000700000009
0064E4009P0249000006              281115  0000000000000500000001
0064E4010P0205000003              281015  0000000000000000010002
0064E4011P0320000009              24 914  00-3001000000300050003
0064E4012P0164000006              281115  0000000000000500000001
0064E4013P0408000008              241114  00-3000000000400040003
0064E4014P0096000002              241115  00-3000000000300010001
0064E4015P0278000011              24 914  0000000000000100060004
0064E4016P0353000006              241114  00-1000000000600000001
0064E4017P0203000012              281115  0000000000000400030005
0064E4018P0094000002              281115  00-1000000000100010001
0064E4019P0135000004              281114  0000000000000200020000
0064E4020P0401000007              24 914  00-1000000000000030005
0064E4021P0285000012              24 914  0000000000000500000007
0064E4022P0371000013              24 916  0000000000000700010005
0064E4023P0405000024              24 914  00-1000000001600030006
0064E4024P0410000019              241114  00-1000000000900050006
0064E4025P0134000000              281115  0000000000000000000000
0064E4026P0212000011              281115  0000000000000500020004
0064E4027P0178000002              24 914  00-3000000000200010002
0064E4028P0458000013              281115  00-2000000000900020004
0064E4029P0262000008              241217  0000000000000500000003
0064E4030P0225000009              281115  0000000000000200010006
0064E4031P0175000006              281115  00-3000000000400010004
0064E4032P0280000004              24 914  00-3000000000100030003
0064E4033P0326000010              24 914  00-1000000000300050003
0064E4034P0127000002              281115  00-2000000000200000002
0064E4035P0357000007              281115  0000000000000500010001
0064E4036P0217000008              24 917  0000000000000400020002
0064E4037P0343000006              281114  00-1000000000300010003
0064E4038P0082000003              24 917  0000000000000100020000
0064E4039P0081000002              281114  0000000000000100000001
0064E4040P0076000000              281115  0000000000000000000000
0064E4041P0269000004              24 914  0000000000000300000001
0064E4042P0095000002              281115  00-1000000000200010000
0064E4043P0294000003              24 914  00-2000000000100000004
0064E4044P0224000002              281115  0000000000000000010001
0064E4045P0164000007              241116  00-1000000000600000002
0064E4046P0255000006              241216  00-1000000000200010004
0064E4047P0225000005              241217  00-1000000000300000003
0064E4048P0300000006              281015  00-1000000000400010002
0064E4049P0256000010              24 914  00-1000000000500000006
0064E4050P0272000011              281114  00-2000000000300020008
0064E4051P0385000004              241114  00-2000000000300010002
0064E4052P0290000013              24 914  0000000000000500000008
0064E4053P0277000016              281115  00-1000000000400030010
0064E4054P0327000009              281114  00-1000000000400010005
0064E4055P0304000013              241216  00-4000000000700030007
0064E4056P0057000000              241115  0000000000000000000000
0064E4057P0267000009              241117  00-1000000000100000009
0064E4058P0259000005              281115  0000000000000300010001
0064E4059P0197000008              281114  0000000000000100010006
0064E4060P0203000002              241116  00-2000000000200010001
0064E4061P0246000008              24 914  00-1000000000700000002
0064E4062P0381000013              281114  00-4000000000600020009
0064E4063P0319000010              281115  00-1000000000400040003
0064E4064P0342000010              241114  0000000000000500020003
0064E4065P0222000002              281115  00-9000000000300010007
0064E4066P0297000010              281115  00-1000000000400020005
0064E4067P0132000005              241217  00-1000000000100010004
0064E4068P0350000021              241216  0000000000001200020007
0064E4069P0338000008              281015  00-1000000000400010004
0064E4070P0223000008              281115  00-1001000000300020003
0064E4071P0264000018              241114  00-1000000000900060004
0064E4072P0069000002              281115  0000000000000100010000
0064E4073P0136000005              241217  0000000000000200000003
0064E4074P0062000001              241115  0000000000000100000000
0064E4075P0360000009              281114  00-3000000000600020004
0064E4076P0347000007              24 917  00-2000000000600010002
0064E4077P0310000003              24 914  00-1000000000000030001
0064E4078P0183000001              281114  00-1000000000000000002
0064E4079P0193000004              241217  0000000000000200000002
0064E4080P0257000012              24 916  0000000000000600000006
0064E4081P0193000006              241217  00-1000000000400020001
0064E4082P0167000002              281115  0000000000000100000001
0064E4083P0136000000              281114  0000000000000000000000
0064E4084P0150000005              241216  0000000000000100020002
0064E4085P0326000007              241217  00-1000000000700000001
0064E4086P0054000000              241217  0000000000000000000000
0064E4087P0259000004              24 914  00-1000000000300010001
0064E4088P0164000005              24 914  0000000000000200000003
0064E4089P0401000010              241114  00-1000000000500020004
0064E4090P0110000001              241115  0000000000000100000000
0064E4091P0146000003              241114  00-2000000000400000001
0064E4092P0072000003              281115  0000000000000100020000
0064E4093P0228000010              24 914  0000000000000200020006
0064E4094P0225000004              24 914  00-5000000000300000006
0064E4095P0327000016              241217  00-2000000000400020012
0064E4096P0298000009              241114  0000001000000300030002
0064E4097P0316000012              241216  00-2001000000200010010
0064E4098P0272000008              241217  00-1000000000400000005
0064E4099P0255000010              241216  0000000000000100020007
0064E4100P0218000003              241216  0000000000000200000001
0064E4101P0428000010              241114  00-2000000000500020005
0064E4102P0382000020              24 914  00-1000000000300030015
0064E4103P0213000003              24 917  00-2000000000300000002
0064E4104P0438000015              281114  00-2000000000700050005
0064E4105P0360000012              24 914  00-7000000000500070007
0064E4106P0464000012              241117  00-1000000000400010008
0064E4107P0322000009              24 914  00-3000000000200040006
0064E4108P0122000002              241216  0000000000000100000001
0064E4109P0236000012              281115  00-1000000000300040006
0064E4110P0343000012              281114  0001000000000300020006
0064E4111P0213000013              241114  0000000000000400050004
0064E4112P0258000008              241217  00-1000000000400020003
0064E4113P0192000007              281115  0000000000000400010002
0064E4114P0341000021              281115  0000000000000800100003
0064E4115P0054000000              281115  0000000000000000000000
0064E4116P0149000002              241116  0000000000000000010001
0064E4117P0179000012              281115  00-2000000000900020003
0064E4118P0233000008              241216  0000000000000500000003
0064E4119P0227000011              241114  00-1000000000400000008
0064E4120P0203000006              241217  0000000000000100010004
0064E4121P0236000008              24 914  0000000000000000050003
0064E4122P0250000012              281115  00-2000000000500040005
0064E4123P0338000012              24 917  00-2000000000600020006
0064E4124P0074000003              24 915  0000000000000200000001
0064E4125P0152000007              241116  0000000000000000030004
0064E4126P0205000008              241217  0000000000000500020001
0064E4127P0259000006              24 917  0000000000000100000005
0064E4128P0347000002              24 917  0000000000000100000001
0064E4129P0087000002              281115  0000000000000200000000
0064E4130P0137000005              24 914  0000000000000200010002
0064E4131P0165000006              24 914  00-1000000000400000003
0064E4132P0166000003              241217  00-1000000000100010002
0064E4133P0223000008              24 914  0000000000000100030004
0064E4134P0109000002              281115  00-1000000000200010000
0064E4135P0089000000              241115  0000000000000000000000
0064E4136P0150000001              241216  0000000000000000000001
0064E4137P0031000000              241117  00-1000000000100000000
0064E4138P0064000004              241217  0000000000000200000002
0064E4139P0052000000              241115  00-1000000000000010000
0064E4140P0058000002              281115  0000000000000200000000
0064E4141P0027000000              241115  0000000000000000000000
0064E4142P0243000007              24 914  0000000000000400000003
0064E4143P0216000003              241114  0000000000000100010001
0064E4144P0114000001              281115  0000000000000000000001
0064E4145P0045000001              241115  0000000000000000010000
0064E4146P0160000005              281115  0000000000000000010004
0064E4147P0069000003              241115  00-1000000000200000002
0064E4148P0180000011              241216  00-2000000000400030006
0064E4149P0174000003              241216  00-1000000000300000001
0064E4150P0006000000              24 914  0000000000000000000000
0064E4151P0139000005              241217  0000000000000100020002
0064E4152P0014000000              24 914  0000000000000000000000
0064E4153P0058000000              281115  0000000000000000000000
0064E4154P0046000000              281115  0000000000000000000000
0064E5001P0322000021              12 813  0000000000000900070005
0064E5002P0590000038              12 813  0002000000001600110009
0064E5003P0266000017              32 813  00-1000000000600090003
0064E5004P0264000012              32 813  0000000000000500030004
0064E5005P0419000009              12 812  00-2001000000400030003
0064E5006P0369000026              12 812  00-2000000001700030008
0064E5007P0250000008              32 813  00-6000000001000010003
0064E5008P0355000018              12 813  0000001000001200030002
0064E5009P0465000024              12 813  00-2000000001000060010
0064E5010P0383000019              12 813  00-1000000000700040009
0064E5011P0526000023              12 812  00-1000000001100050008
0064E5012P0345000012              32 813  00-1000000001200000001
0064E5013P0644000036              12 812  0002000000001900080007
0064E5014P0313000015              32 812  00-1000000000700020007
0064E5015P0487000023              12 813  00-2000000001300050007
0064E5016P0302000015              12 812  0000000000000200070006
0064E5017P0283000012              12 812  0000000000000500000007
0064E5018P0219000007              32 813  0000000000000300010003
0064E5019P0216000012              12 813  00-1000000000300030007
0064E5020P0415000032              12 813  00-2001000001700050011
0064E5021P0440000029              12 812  0002000000001100080008
0064E5022P0461000031              32 812  00-2000000002100060006
0064E5023P0260000005              32 813  00-3000000000300040001
0064E5024P0259000010              32 813  0000000000000600000004
0064E5025P0195000009              12 812  0000000000000000040005
0064E5026P0586000029              12 813  00-4001000001300140005
0064E5027P0323000020              12 813  00-1000000000700030011
0064E5028P0343000019              12 812  0002001000000600000010
0064E5029P0478000025              12 813  00-1002000000900040011
0064E5030P0225000007              32 812  00-1000000000100060001
0064E5031P0351000006              32 813  0000000000000100010004
0064E5032P0150000011              32 813  0000000000000300060002
0064E5033P0476000028              12 813  00-1001000001700090002
0064E5034P0283000010              12 812  00-2000000000400040004
0064E5035P0370000013              32 813  00-3000000001200030001
0064E5036P0396000009              12 812  00-1000000000300030004
0064E5037P0385000019              12 812  0001000000001100040003
0064E5038P0582000024              32 813  00-3001000001200080006
0064E5039P0355000011              12 812  00-1000000000300040005
0064E5040P0360000021              12 813  0002000000000800070004
0064E5041P0144000007              32 813  0000000000000300020002
0064E5042P0287000007              32 812  0000000000000100020004
0064E5043P0234000011              32 813  0000000000000500010005
0064E5044P0267000012              12 813  00-2000000000600050003
0064E5045P0380000023              12 812  00-1000000001300060005
0064E5046P0191000002              32 812  00-2000000000200010001
0064E5047P0286000009              32 813  00-1000000000500030002
0064E5048P0202000005              32 812  00-3000000000200030003
0064E5049P0246000014              12 812  0000000000000300050006
0064E5050P0283000014              12 813  0000000000000400030007
0064E5051P0282000019              12 812  0002001000000800030005
0064E5052P0279000008              12 813  00-1001000000300010004
0064E5053P0393000033              12 812  0002000000001700060008
0064E5054P0573000012              32 813  00-2000000000200040008
0064E5055P0371000022              12 812  00-1002000000900020010
0064E5056P0601000060              12 813  0001001000003000100018
0064E5057P0387000014              32 813  00-1000000000500040006
0064E5058P0256000023              12 812  0000000000000900100004
0064E5059P0379000018              12 812  0001000000000900050003
0064E5060P0579000025              12 813  00-1000000000900050012
0064E5061P0328000023              12 813  00-1000000000800100006
0064E5062P0189000016              32 812  00-1000000000700020008
0064E5063P0250000025              12 813  0000000000000700050013
0064E5064P0523000018              32 813  0000000000000800030007
0064E5065P0378000013              12 812  0001000000000300040005
0064E5066P0182000012              32 812  00-2001000000700020004
0064E5067P0372000016              12 812  00-1000000000400050008
0064E5068P0203000010              12 813  00-2001000000700010003
0064E5069P0300000014              12 812  00-1000000000800020005
0064E5070P0393000018              12 813  0000000000000800050005
0064E5071P0171000010              32 813  0000000000000500000005
0064E5072P0393000040              12 813  0002000000000500170016
0064E5073P0218000013              12 812  00-2000000000500020008
0064E5074P0293000013              12 813  0000000000000300050005
0064E5075P0321000010              32 813  0000000000000200020006
0064E5076P0451000034              12 812  00-4000000002000090009
0064E5077P0255000010              12 813  0000000000000300000007
0064E5078P0366000027              12 812  00-4000000001900050007
0064E5079P0535000081              12 813  00-3000000003200200032
0064E5080P0302000020              12 812  0002001000000700050005
0064E5081P0384000014              12 812  00-1000000000500040006
0064E5082P0333000028              12 813  00-4000000001100070014
0064E5083P0266000012              12 813  0000000000000500040003
0064E5084P0350000012              12 813  0001000000000500050001
0064E5085P0349000015              32 813  00-2000000000600070004
0064E5086P0250000006              12 812  00-3000000000400030002
0064E5087P0220000009              32 812  00-1000000000400040002
0064E5088P0203000005              32 813  00-1000000000300010002
0064E5089P0224000005              32 813  00-1000000000100020003
0064E5090P0160000007              32 812  0000000000000200030002
0064E5091P0283000007              12 812  0000000000000200030002
0064E5092P0325000020              12 812  00-1000000000800080005
0064E6001P0237000018              11 1 2  00-1000000000800020009
0064E6002P0191000016              11 1 2  00-4000000000600060008
0064E6003P0251000011              11 1 2  0000000000000500030003
0064E6004P0423000038              11 1 2  00-2000000002000060014
0064E6005P0250000010              11 1 2  0001000000000400030002
0064E6006P0196000009              11 1 2  0000000000000300010005
0064E6007P0220000011              11 1 2  0000000000000800000003
0064E6008P0324000019              11 1 2  00-5000000000500070012
0064E6009P0424000051              11 1 2  00-4000000003300060016
0064E6010P0194000011              11 1 2  0002000000000500000004
0064E6011P0560000020              11 1 2  0000001000001200040003
0064E6012P0335000014              11 1 2  0000000000000900030002
0064E6013P0226000008              11 1 2  00-1000000000300000006
0064E6014P0222000025              11 1 2  0000000000001100030011
0064E6015P0303000015              11 1 2  00-4003000000200080006
0064E6016P0410000018              11 1 2  00-4000000001000080004
0064E6017P0266000019              11 1 2  0000000000001000030006
0064E6018P0385000027              11 1 2  00-1000000001500020011
0064E6019P0133000005              11 1 2  00-2000000000300030001
0064E6020P0359000029              11 1 2  00-3000000001300040015
0064E6021P0111000002              11 1 2  0000000000000000000002
0064E6022P0233000027              11 1 2  00-1000000001300050010
0064E6023P0651000028              11 1 2  0-14001000002200090010
0064E6024P0293000018              11 1 2  00-2000000001200040004
0064E6025P0397000024              11 1 2  00-5000000001500020012
0064E6026P0393000015              11 1 2  0000000000000700040004
0064E6027P0532000031              11 1 2  0001000000001400020014
0064E6028P0346000025              11 1 2  00-1000000001300030010
0064E6029P0319000019              11 1 2  0000000000001400030002
0064E6030P0228000011              11 1 2  00-2000000000400020007
0064E6031P0271000017              11 1 2  00-2000000000800060005
0064E6032P0358000027              11 1 2  0000000000000800080011
0064E6033P0262000012              11 1 2  00-2000000000700010006
0064E6034P0297000030              11 1 2  0001000001001400050009
0064E6035P0366000019              11 1 2  00-1000000000800070005
0064E6036P0312000028              11 1 2  00-2000000001100080011
0064E6037P0330000025              11 1 2  0002000000001400020007
0064E6038P0214000013              11 1 2  00-1000000000700030004
0064E6039P0246000013              11 1 2  00-1000000000800010005
0064E6040P0243000015              11 1 2  00-2000000001000030004
0064E6041P0154000011              11 1 2  00-2000000000600000007
0064E6042P0249000018              11 1 2  0000000000001200010005
0064E7001P0138000007              11 1 2  00-3000000000200000008
0064E7002P0151000004              11 1 2  00-1000000000300010001
0064E7003P0199000015              11 1 2  00-2000000001100020004
0064E7004P0260000018              11 1 2  0002000000000900020005
0064E7005P0156000007              11 1 2  0001000000000400000002
0064E7006P0138000010              11 1 2  00-2000000000800010003
0064E7007P0108000010              11 1 2  0000000000000600010003
0064E7008P0300000015              11 1 2  00-4000000000900020008
0064E7009P0218000019              11 1 2  0001000001000500040008
0064E7010P0382000031              11 1 2  0000000000002100020008
0064E7011P0331000021              11 1 2  0001000000000700040009
0064E7012P0240000018              11 1 2  0001002000000400050006
0064E7013P0149000009              11 1 2  0001000000000100010006
0064E7014P0207000006              11 1 2  00-1000001000300010002
0064E7015P0198000008              11 1 2  0001000000000300010003
0064E7016P0259000015              11 1 2  0001000000000600000008
0064E7017P0250000010              11 1 2  00-4000000001000010003
0064E7018P0229000012              11 1 2  00-3000000000800010006
0064E7019P0220000020              11 1 2  0001000000001100020006
0064E8001P0071000004              11 2 1  0000000000000200010001
0064E8002P0247000029              11 2 1  0002000000001800020007
0064E8003P0235000026              11 2 1  00-3001000001500080005
0064E8004P0264000032              11 2 1  0000000000001600060010
0064E8005P0112000007              11 2 1  00-2000000000500040000
0064E8006P0175000014              11 2 1  0001000000000500020006
0064E8007P0276000021              11 2 1  0-13000000001600040014
0064E8008P0431000024              11 2 1  00-2000001000900040012
0064E8009P0579000055              11 2 1  00-3000000003100100017
0064E8010P0288000018              11 2 1  0001001000000800010007
0064E8011P0345000031              11 2 1  00-4001000001700060011
0064E8012P0451000033              11 2 1  0003000000001400030013
0064E8013P0547000028              11 2 1  00-1000000001300070009
0064E8014P0321000026              11 2 1  00-3000000001200050012
0064E8015P0389000026              11 2 1  00-2000000001500030010
0064E8016P0234000020              11 2 1  00-1000000000800040009
0064E8017P0377000048              11 2 1  00-4001000002500070019
0064E8018P0511000024              11 2 1  0000000000001200020010
0064E8019P0499000063              11 2 1  00-5002003002700070029
0064E9001P0402000033              11 2 1  0000000000001700040012
0064E9002P0133000008              11 2 1  0000000000000500000003
0064E9003P0079000006              11 2 1  0000000000000200010003
0064E9004P0460000020              11 2 1  00-1000000001200040005
0064E9005P0149000013              11 2 1  00-1000000000400070003
0064E9006P0085000005              11 2 1  0000000000000400000001
0064E9007P0502000023              11 2 1  00-1000000000800060010
0064E9008P0313000021              11 2 1  00-2000000001000020011
0064E9009P0235000014              11 2 1  00-1000000000700040004
0064E9010P0102000013              11 2 1  0001000000000600010005
0064E9011P0437000064              11 2 1  00-6000000003100090030
0064E9012P0593000074              11 2 1  00-9002000003000180033
0064E9013P0378000017              11 2 1  00-3001000000800050006
0064E9014P0537000027              11 2 1  00-1000000001700040007
0064E9015P0051000002              11 2 1  0000000000000200000000
0064E9016P0338000026              11 2 1  0001000000001400020009
0064E9017P0649000029              11 2 1  00-2002000001500070007
0064E9018P0175000009              11 2 1  00-4000000000500050003
0064E9019P0522000044              11 2 1  00-2000000001700120017
0064E9020P0674000032              11 2 1  0000000000001500090008
0064E9021P0265000016              11 2 1  0001000000000500020008
0064E9022P0385000015              11 2 1  00-4000000000700020010
0064RRepresentative in Congress, 1st CongressC   1 0472015479601
0044CALTSCHULER, RANDY        REP 006692 2A 
0044CDEMOS, GEORGE G          REP 000978 2B 
0060E0001P0194000011              11 1 1  000100000000090001
0060E0002P0196000014              11 1 1  00-100000000060009
0060E0003P0172000023              11 1 1  000300100000140005
0060E0004P0212000014              11 1 1  00-300000000120005
0060E1001P0380000029              12 4 5 100-200100000300000
0060E1002P0408000030              12 4 5 100-700000000350002
0060E1003P0327000010              12 4 5 1000000000000100000
0060E1004P0210000010              12 4 5 1000000000000090001
0060E1005P0387000023              11 4 5 100-200200000210002
0060E1006P0552000031              11 4 5 100-100000000280004
0060E1007P0235000012              11 4 5 1000000000000100002
0060E1008P0316000013              11 2 6 2000000000000120001
0060E1009P0606000039              11 2 1 6000000000000300009
0060E1010P0564000016              11 3 3 400-200000100150002
0060E1011P0559000016              13 3 7 5000000000000120004
0060E1012P0359000018              12 512 3000200000000090007
0060E1013P0252000012              13 5 4 5000000000000100002
0060E1014P0337000021              13 7 7 5000000000000200001
0060E1015P0287000008              13 7 7 5000100000000070000
0060E1016P0291000009              13 7 7 500-100000000100000
0060E1017P0192000016              13 7 7 5000100000000140001
0060E1018P0044000001              13 7 7 5000000000000010000
0060E1019P0272000000              13 7 7 500-100000000010000
0060E1020P0241000016              13 7 7 500-200100000140003
0060E1021P0043000001              13 7 7 500-100000000020000
0060E1022P0204000011              13 7 7 500-100000000110001
0060E1023P0155000006              13 7 7 500-300000000090000
0060E1024P0141000004              13 7 7 5000000000000030001
0060E1025P0346000010              13 7 7 500-100000000110000
0060E1026P0082000003              13 3 3 4000000000000020001
0060E1027P0164000010              13 3 3 4000000000000090001
0060E1028P0405000014              13 3 3 400-200000000130003
0060E1029P0471000049              11 1 3 600-500000000430011
0060E1030P0282000026              11 1 1 600-800200000270005
0060E1031P0411000019              11 1 2 600-200000000190002
0060E1032P0165000003              11 1 1 6000100000000020000
0060E1033P0383000021              11 4 6 200-200000000220001
0060E1034P0481000020              13 5 7 500-100000000190002
0060E1035P0518000016              11 2 6 200-100100000130003
0060E1036P0356000020              12 4 4 3000000000000190001
0060E1037P0332000019              11 2 6 2000100000000170001
0060E1038P0344000009              13 3 3 6000000000000070002
0060E1039P0641000022              11 1 1 600-200000000210003
0060E1040P0559000020              11 2 1 200-500000000230002
0060E1041P0577000017              13 5 7 500-200000000150004
0060E1042P0303000006              13 3 3 600-100000000060001
0060E1043P0331000011              13 5 4 300-100000000110001
0060E1044P0253000012              13 512 500-200000000140000
0060E1045P0178000012              13 3 7 500-200000000100004
0060E1046P0410000020              13 3 3 4000000000000180002
0060E1047P0466000012              11 2 6 200-200000000110003
0060E1048P0315000019              13 7 7 500-400000000180005
0060E1049P0356000016              13 3 7 500-200000000150003
0060E1050P0262000011              12 5 5 3000000000000110000
0060E1051P0239000003              13 3 7 5000000000000020001
0060E1052P0344000020              13 3 7 500-300000000190004
0060E1053P0350000010              13 3 3 4000000000000090001
0060E1054P0229000003              12 5 4 400-400000000070000
0060E1055P0272000003              12 3 4 300-100000000030001
0060E1056P0539000021              12 5 4 300-400000000220003
0060E1057P0050000003              13 711 5000000000000020001
0060E1058P0389000020              13 5 4 5000100000000130006
0060E1059P0167000005              12 5 4 300-100000000050001
0060E1060P0265000017              12 4 5 1000000000000160001
0060E1061P0213000019              12 4 5 100-100000000190001
0060E1062P0276000011              12 4 5 100-100000100090002
0060E1063P0614000015              11 2 6 2000000000000140001
0060E1064P0290000006              13 3 7 400-100000000060001
0060E1065P0445000029              11 2 6 400-200000000190012
0060E1066P0337000012              11 2 6 2000000000000100002
0060E1067P0282000022              13 3 3 400-100000000160007
0060E1068P0369000012              11 2 6 2000000000000110001
0060E1069P0371000016              13 3 7 5000000000000160000
0060E1070P0383000017              12 512 300-100100000150002
0060E1071P0316000012              12 5 4 300-100000000120001
0060E1072P0392000012              13 1 3 600-300000000150000
0060E1073P0658000028              11 1 3 600-600000000310003
0060E1074P0401000010              13 3 7 500-100000000100001
0060E1075P0212000010              12 4 4 300-100000000090002
0060E1076P0349000010              12 5 4 3000000000000090001
0060E1077P0287000010              13 5 4 500-100000000060005
0060E1078P0401000021              13 5 4 300-100000000180004
0060E1079P0493000030              13 3 3 600-200000000270005
0060E1080P0438000014              13 3 3 600-200000000110005
0060E1081P0221000006              13 512 500-200000000050003
0060E1082P0394000022              13 3 7 500-700000000240005
0060E1083P0279000019              12 5 5 3000000000000160003
0060E1084P0013000000              13 2 3 6000000000000000000
0060E1085P0070000001              13 3 4 400-400000000020003
0060E1086P0235000017              12 4 5 100-200000000190000
0060E1087P0343000013              12 4 5 1000000000000130000
0060E1088P0166000010              11 4 5 1000100000000090000
0060E1089P0504000015              12 4 5 100-300000000150003
0060E1090P0345000021              12 4 5 100-300000000190005
0060E1091P0236000007              11 4 5 100-400000000040007
0060E1092P0514000026              12 5 4 300-300000000270002
0060E1093P0416000020              11 2 1 2000000000000170003
0060E1094P0287000013              12 4 4 3000000000000130000
0060E1095P0244000013              12 4 5 100-100000000100004
0060E1096P0247000006              11 3 7 4000000000000060000
0060E1097P0393000007              11 3 7 400-100000000070001
0060E1098P0670000023              11 2 6 2000100000100160005
0060E1099P0493000020              12 4 4 300-100000000200001
0060E1100P0456000013              12 5 4 3000100000000120000
0060E1101P0243000009              12 4 5 100-200000000110000
0060E1102P0374000019              12 4 5 100-400000000210002
0060E1103P0249000022              13 7 7 5000100000000180003
0060E1104P0404000014              13 1 3 600-100000100120002
0060E1105P0227000009              12 512 3000100000000070001
0060E1106P0284000015              13 5 4 5000000000000140001
0060E1107P0400000007              13 5 8 5000000000000050002
0060E1108P0344000011              12 4 5 100-100000000120000
0060E1109P0311000019              12 4 4 3000000000000170002
0060E1110P0303000011              12 4 5 200-200000000130000
0060E1111P0343000021              12 4 5 100-200000000180005
0060E1112P0229000019              12 5 5 100-400000000210002
0060E1113P0107000004              11 3 1 600-200000000060000
0060E1114P0352000010              13 7 7 500-200000000080004
0060E1115P0272000011              13 3 7 5000000000000100001
0060E1116P0544000011              12 4 5 100-200000000100003
0060E1117P0283000017              11 4 5 1000100000000150001
0060E1118P0232000016              11 4 5 1000100000000150000
0060E1119P0390000010              13 3 7 500-300000000120001
0060E1120P0487000068              12 3 4 400-400000000670005
0060E1121P0588000016              12 4 5 1000100000000130002
0060E1122P0537000018              11 2 6 2000000000000170001
0060E1123P0271000009              13 3 3 400-200000000100001
0060E1124P0546000019              12 5 4 300-100000000170003
0060E1125P0296000009              12 5 4 300-300000000080004
0060E1126P0553000031              12 512 300-200100000270005
0060E1127P0274000011              12 4 4 3000100100000080001
0060E1128P0329000009              11 3 7 4000000000000070002
0060E1129P0254000007              12 4 5 100-200000000080001
0060E1130P0203000021              12 4 6 200-100000000150007
0060E1131P0275000008              13 3 7 500-100000000080001
0060E1132P0544000009              12 5 4 300-200000000100001
0060E1133P0308000007              12 3 4 400-100000000050003
0060E1134P0347000020              11 4 5 1000000000000170003
0060E1135P0536000025              11 2 6 2000000100000210003
0060E1136P0445000025              11 2 6 2000300000000210001
0060E1137P0155000006              11 4 3 4000100000000040001
0060E1138P0999000021              13 3 7 500-700000000260002
0060E1139P0576000023              13 3 3 600-200100000200004
0060E1140P0476000017              11 4 6 1000000100000150001
0060E1141P0447000019              11 2 1 600-200000000180003
0060E1142P0489000020              12 512 300-200000000200002
0060E1143P0339000010              11 4 6 1000000000100070002
0060E1144P0259000008              13 3 7 500-300000000100001
0060E1145P0409000012              13 5 4 4000000000000080004
0060E1146P0191000007              12 4 5 1000000000000050002
0060E1147P0576000027              12 4 5 200-200000000250004
0060E1148P0395000017              12 4 5 100-200000100170001
0060E1149P0251000006              13 3 7 400-400000000070003
0060E1150P0313000003              13 3 3 400-100000000030001
0060E1151P0447000031              11 1 2 6000100000000270003
0060E1152P0581000033              12 5 4 300-800000100320008
0060E1153P0211000010              11 2 6 2000000000000100000
0060E1154P0368000017              11 1 1 6000000000000170000
0060E1155P0285000010              13 7 7 500-300100000110001
0060E1156P0296000009              13 3 3 6000000000000090000
0060E1157P0772000027              12 3 4 400-200000000240005
0060E1158P0211000014              12 512 300-300000000170000
0060E1159P0434000017              11 2 6 200-300000000170003
0060E1160P0380000009              13 1 3 600-300000000100002
0060E1161P0284000008              12 4 5 1000000000000080000
0060E1162P0174000008              12 5 4 300-200000000100000
0060E1163P0326000009              12 4 5 1000000100000080000
0060E1164P0514000017              13 5 8 5000000000000150002
0060E1165P0393000011              12 4 5 100-100000000100002
0060E1166P0586000031              12 4 5 100-200000000260007
0060E1167P0342000078              11 2 6 200-600000000820002
0060E1168P0273000012              11 4 6 2000000000000120000
0060E1169P0532000017              11 4 6 200-200100000160002
0060E1170P0311000018              12 4 5 1000100000000160001
0060E1171P0329000012              13 7 7 5000000000000100002
0060E1172P0130000004              13 512 3000100000000010002
0060E1173P0317000022              13 3 7 5000100100000190001
0060E1174P0352000021              13 5 4 5000200000000140005
0060E1175P0412000024              12 5 4 3000000000000210003
0060E1176P0332000015              13 5 4 300-500000000170003
0060E1177P0184000012              12 4 5 1000100000000110000
0060E1178P0304000011              11 4 5 100-100000000100002
0060E1179P0697000031              12 5 4 300-100000000270005
0060E1180P0371000012              12 4 4 300-100100000110001
0060E1181P0169000043              11 2 6 2000000100000400002
0060E1182P0053000000              11 4 6 2000000000000000000
0060E1183P0243000006              13 5 4 500-200000000070001
0060E1184P0282000004              11 1 3 600-100000000050000
0060E1185P0172000006              11 2 6 2000000000000060000
0060E1186P0298000005              13 5 7 400-100100000020003
0060E1187P0393000016              11 2 6 2000100000000140001
0060E1188P0388000026              11 2 6 2000100100000220002
0060E1189P0387000009              11 2 6 200-300000000100002
0060E1190P0224000016              11 2 6 200-100000000170000
0060E1191P0222000010              12 4 5 1000000000000100000
0060E1192P0449000018              11 3 3 400-300000300170001
0060E1193P0479000019              11 2 1 2000000000000170002
0060E1194P0214000011              13 3 7 4000100000000100000
0060E1195P0361000018              11 2 6 2000000000000170001
0060E1196P0525000018              13 3 7 500-600100000230000
0060E1197P0177000047              11 2 6 200-900000000540002
0060E1198P0382000081              11 2 6 400-500100000730012
0060E1199P0196000010              11 2 6 400-300000000100003
0060E1200P0145000005              11 4 7 400-200000000060001
0060E1201P0666000025              11 4 6 200-500000000270003
0060E1202P0163000005              11 4 6 2000000000000040001
0060E1203P0257000018              11 2 1 600-200000000190001
0060E1204P0349000013              13 1 3 600-100000000130001
0060E1205P0453000014              11 4 5 100-100000000140001
0060E1206P0343000022              12 4 4 300-100000000190004
0060E1207P0224000005              11 1 3 6000000100000020002
0060E1208P0359000014              11 1 3 600-200000000110005
0060E1209P0285000010              12 4 5 2000000000000090001
0060E1210P0251000022              12 3 4 400-500000000230004
0060E1211P0354000016              13 5 7 500-200000000150003
0060E1212P0145000008              11 2 5 1000000000000080000
0060E1213P0272000013              11 3 3 400-100000000130001
0060E1214P0287000012              13 3 7 500-200000000110003
0060E1215P0268000011              13 1 3 600-100000000110001
0060E1216P0822000015              11 2 6 200-200000000120005
0060E1217P0099000002              13 5 7 5000000000000020000
0060E1218P0172000007              12 3 7 400-200000000070002
0060E1219P0150000007              12 512 300-200000000090000
0060E1220P0075000002              11 2 6 200-200000000020002
0060E1221P0092000003              12 512 3000000000000030000
0060E1222P0174000006              13 512 300-100100000050001
0060E1223P0117000000              12 4 5 10-1800000000130005
0060E1224P0177000008              11 4 5 100-100000000050004
0060E1225P0291000020              11 4 5 1000000000000180002
0060E1226P0160000009              11 4 5 100-200000000100001
0060E1227P0588000020              11 2 1 600-300000000160007
0060E1228P0273000001              13 3 3 400-100000000020000
0060E1229P0298000004              13 3 3 600-300000000070000
0060E1230P0441000016              12 5 4 3000000000000140002
0060E1231P0197000005              13 512 500-200000000040003
0060E1232P0279000015              12 3 4 3000000000100120002
0060E1233P0230000018              12 4 5 100-100000000160003
0060E1234P0340000004              13 3 3 4000000000000030001
0060E1235P0260000013              13 3 7 500-100000000130001
0060E1236P0318000018              11 2 6 2000200000000140002
0060E1237P0427000011              12 4 4 300-700000000160002
0060E1238P0299000011              13 5 4 5000000000000090002
0060E1239P0345000012              11 4 5 1000000000000110001
0060E1240P0286000011              13 3 7 500-100000000110001
0060E1241P0362000020              12 3 4 400-100000000190002
0060E1242P0405000001              12 5 4 3000000000000010000
0060E1243P0197000006              12 4 6 2000000000000050001
0060E1244P0161000010              13 5 4 3000000100000070002
0060E1245P0648000013              11 4 6 200-200000000140001
0060E1246P0286000010              13 3 7 500-200000000100002
0060E1247P0357000009              13 3 7 4000000000000070002
0060E1248P0265000018              11 2 6 200-100000000180001
0060E1249P1018000023              13 3 3 600-900000000280004
0060E1250P0346000013              12 4 4 300-300100000120003
0060E1251P0336000014              12 4 5 10-1200100000180007
0060E1252P0362000005              11 4 6 2000000000000050000
0060E1253P0275000009              11 3 3 400-300100000110000
0060E1254P0287000005              13 3 7 500-400000000080001
0060E1255P0364000007              11 2 6 400-100000000080000
0060E1256P0621000026              11 3 6 4000000000000220004
0060E1257P0274000009              11 4 6 200-200000000090002
0060E1258P0173000005              11 4 6 200-100000000060000
0060E1259P0164000016              12 3 4 400-200000000110007
0060E1260P0317000011              11 2 6 2000000000000080003
0060E1261P0137000009              12 4 7 4000000000000080001
0060E1262P0237000005              12 3 4 300-100000000060000
0060E1263P0700000045              11 2 6 2000100000000360008
0060E1264P0590000027              11 2 1 600-200000000270002
0060E1265P1123000037              11 1 1 600-200000000370002
0060E1266P0294000010              13 3 3 4000000000000090001
0060E1267P0338000018              11 2 6 200-400000000130009
0060E1268P0432000021              13 1 3 6000200000100150003
0060E1269P0243000006              11 3 3 4000000000000040002
0060E1270P0447000110              11 2 6 200-500000001080007
0060E1271P0284000004              13 5 7 5000000000000040000
0060E1272P0387000015              11 1 1 6000000000000140001
0060E1273P0302000017              13 1 3 400-100000000100008
0060E1274P0228000005              11 1 3 600-200000000060001
0060E1275P0248000007              11 3 3 400-200000000090000
0060E1276P0083000000              12 4 4 4000000000000000000
0060E1277P0140000005              13 3 3 4000000000000050000
0060E1278P0007000000              13 3 3 6000000000000000000
0060E1279P0201000006              11 1 1 6000100100000040000
0060E1280P0000000000              11 3 1 6000000000000000000
0060E1281P0037000001              13 2 1 6000000000000010000
0060E1282P0003000000              13 512 3000000000000000000
0060E1283P0295000009              13 3 1 600-200000000070004
0060E1284P0466000073              11 2 6 400-400000000700007
0060E1285P0334000016              11 1 3 600-100300000090005
0060E1286P0443000008              11 2 6 200-100000100070001
0060E1287P0266000013              11 1 3 6000100000000110001
0060E1288P0375000014              11 4 6 100-200000000130003
0060E1289P0237000002              13 3 3 4000000000000020000
0060E1290P0480000026              11 1 1 600-100000000230004
0060E1291P0304000007              11 3 3 6000000000000050002
0060E1292P0334000012              12 4 5 1000000000000110001
0060E1293P0225000020              11 2 6 2000000000000160004
0060E1294P0329000007              13 5 7 4000000000000060001
0060E1295P0000000000              13 3 7 5000000000000000000
0060E3046P0075000001              13 812  000100000000000000
0060E3098P0290000008              13 612  00-100000000080001
0060E3112P0442000033              13 812  00-200000000300005
0060E3134P0428000030              13 812  00-200000000250007
0060E3138P0287000007              13 812  00-200000000090000
0060E3140P0351000018              14 5 8  000000000000130005
0060E3151P0390000024              13 812  00-500000000260003
0060E3158P0011000000              13 6 9  000000000000000000
0060E3177P0430000028              13 812  000100000000240003
0060E3179P0246000007              13 5 8  00-100000000080000
0060E3191P0000000000              13 810  000000000000000000
0060E5001P0322000021              12 813  000000000000170004
0060E5002P0590000038              12 813  00-100000000320007
0060E5005P0419000009              12 812  00-100000000070003
0060E5006P0369000026              12 812  000000000000220004
0060E5008P0355000018              12 813  00-100000000150004
0060E5009P0465000024              12 813  00-200000000190007
0060E5010P0383000019              12 813  00-100000000140006
0060E5011P0526000023              12 812  00-100000000200004
0060E5013P0644000036              12 812  000000000000360000
0060E5015P0487000023              12 813  00-300000000230003
0060E5016P0302000015              12 812  000100000000090005
0060E5017P0283000012              12 812  000000000000110001
0060E5019P0216000012              12 813  00-100000000120001
0060E5020P0415000032              12 813  00-200000000330001
0060E5021P0440000029              12 812  00-200000000290002
0060E5025P0195000009              12 812  000000000000080001
0060E5026P0586000029              12 813  00-300000000290003
0060E5027P0323000020              12 813  00-100000000180003
0060E5028P0343000019              12 812  000100000000160002
0060E5029P0478000025              12 813  000000000000210004
0060E5033P0476000028              12 813  00-100000000260003
0060E5034P0283000010              12 812  00-200000000060006
0060E5036P0396000009              12 812  00-100000000080002
0060E5037P0385000019              12 812  000000000000130006
0060E5039P0355000011              12 812  00-100000000100002
0060E5040P0360000021              12 813  00-100000000170005
0060E5044P0267000012              12 813  00-200000000100004
0060E5045P0380000023              12 812  000100000000180004
0060E5049P0246000014              12 812  000000000000110003
0060E5050P0283000014              12 813  000000000000140000
0060E5051P0282000019              12 812  00-100200000180000
0060E5052P0279000008              12 813  00-200000000080002
0060E5053P0393000033              12 812  000000100000280004
0060E5055P0371000022              12 812  00-200000000210003
0060E5056P0601000060              12 813  000000000000520008
0060E5058P0256000023              12 812  00-100000000200004
0060E5059P0379000018              12 812  000000000000150003
0060E5060P0579000025              12 813  00-200000000210006
0060E5061P0328000023              12 813  000100000000210001
0060E5063P0250000025              12 813  00-100000000220004
0060E5065P0378000013              12 812  000000000000110002
0060E5067P0372000016              12 812  00-300100000160002
0060E5068P0203000010              12 813  00-100000000070004
0060E5069P0300000014              12 812  00-100000000120003
0060E5070P0393000018              12 813  000000000000140004
0060E5072P0393000040              12 813  000100000000360003
0060E5073P0218000013              12 812  00-200000000130002
0060E5074P0293000013              12 813  00-100000000140000
0060E5076P0451000034              12 812  00-400000000360002
0060E5077P0255000010              12 813  000100000000090000
0060E5078P0366000027              12 812  00-500000000320000
0060E5079P0535000081              12 813  000100000000610019
0060E5080P0302000020              12 812  000000000000170003
0060E5081P0384000014              12 812  00-300000100130003
0060E5082P0333000028              12 813  00-400000000260006
0060E5083P0266000012              12 813  00-100000000120001
0060E5084P0350000012              12 813  000000000000120000
0060E5086P0250000006              12 812  00-300000000050004
0060E5091P0283000007              12 812  000000000000060001
0060E5092P0325000020              12 812  00-200000000210001
0060E6001P0237000018              11 1 2  000000000000140004
0060E6002P0191000016              11 1 2  00-300000000180001
0060E6003P0251000011              11 1 2  00-100000000120000
0060E6004P0423000038              11 1 2  00-300000000370004
0060E6005P0250000010              11 1 2  00-100000000110000
0060E6006P0196000009              11 1 2  000100000000070001
0060E6007P0220000011              11 1 2  000000000000080003
0060E6008P0324000019              11 1 2  00-600000000240001
0060E6009P0424000051              11 1 2  00-300000000460008
0060E6010P0194000011              11 1 2  000000000000110000
0060E6011P0560000020              11 1 2  000000000000170003
0060E6012P0335000014              11 1 2  00-200000000120004
0060E6013P0226000008              11 1 2  00-100000000080001
0060E6014P0222000025              11 1 2  00-100000000230003
0060E6015P0303000015              11 1 2  00-300000000140004
0060E6016P0410000018              11 1 2  00-400000000210001
0060E6017P0266000019              11 1 2  00-100000000160004
0060E6018P0385000027              11 1 2  00-300000000260004
0060E6019P0133000005              11 1 2  00-200100200010003
0060E6020P0359000029              11 1 2  00-400100000310001
0060E6021P0111000002              11 1 2  000000000000020000
0060E6022P0233000027              11 1 2  00-200000000250004
0060E6023P0651000028              11 1 2  0-1400000000320010
0060E6024P0293000018              11 1 2  00-100000000190000
0060E6025P0397000024              11 1 2  00-700000000280003
0060E6026P0393000015              11 1 2  00-200000100130003
0060E6027P0532000031              11 1 2  00-200000000300003
0060E6028P0346000025              11 1 2  00-100000000220004
0060E6029P0319000019              11 1 2  000000000000190000
0060E6030P0228000011              11 1 2  00-200000000130000
0060E6031P0271000017              11 1 2  00-300000000180002
0060E6032P0358000027              11 1 2  00-400000000290002
0060E6033P0262000012              11 1 2  00-300000000140001
0060E6034P0297000030              11 1 2  00-200100100290001
0060E6035P0366000019              11 1 2  000000000000170002
0060E6036P0312000028              11 1 2  00-300000000270004
0060E6037P0330000025              11 1 2  00-100000000210005
0060E6038P0214000013              11 1 2  00-100000000110003
0060E6039P0246000013              11 1 2  00-200000000140001
0060E6040P0243000015              11 1 2  00-100000000150001
0060E6041P0154000011              11 1 2  00-200000000130000
0060E6042P0249000018              11 1 2  00-100000000120007
0060E7001P0138000007              11 1 2  00-300000000100000
0060E7002P0151000004              11 1 2  00-100000000040001
0060E7003P0199000015              11 1 2  00-300000000170001
0060E7004P0260000018              11 1 2  00-100100000160002
0060E7005P0156000007              11 1 2  000000000000050002
0060E7006P0138000010              11 1 2  00-100000000100001
0060E7007P0108000010              11 1 2  000100000000060003
0060E7008P0300000015              11 1 2  00-500000000160004
0060E7009P0218000019              11 1 2  00-100000000200000
0060E7010P0382000031              11 1 2  00-100000000250007
0060E7011P0331000021              11 1 2  00-300000000230001
0060E7012P0240000018              11 1 2  000000000100140003
0060E7013P0149000009              11 1 2  00-100000000090001
0060E7014P0207000006              11 1 2  00-100000100050001
0060E7015P0198000008              11 1 2  00-100000000070002
0060E7016P0259000015              11 1 2  00-300000000170001
0060E7017P0250000010              11 1 2  00-400000000070007
0060E7018P0229000012              11 1 2  00-200000000140000
0060E7019P0220000020              11 1 2  000000000000170003
0060E8001P0071000004              11 2 1  000000000000040000
0060E8002P0247000029              11 2 1  000200000000240003
0060E8003P0235000026              11 2 1  00-100000000250002
0060E8004P0264000032              11 2 1  000000000000260006
0060E8005P0112000007              11 2 1  00-200000000080001
0060E8006P0175000014              11 2 1  000100000000130000
0060E8007P0276000021              11 2 1  0-1200000000240009
0060E8008P0431000024              11 2 1  00-300000100240002
0060E8009P0579000055              11 2 1  00-400000000540005
0060E8010P0288000018              11 2 1  00-200100000180001
0060E8011P0345000031              11 2 1  00-400000000320003
0060E8012P0451000033              11 2 1  00-100000000310003
0060E8013P0547000028              11 2 1  000100000000210006
0060E8014P0321000026              11 2 1  00-300000000250004
0060E8015P0389000026              11 2 1  00-100000000230004
0060E8016P0234000020              11 2 1  00-100000000190002
0060E8017P0377000048              11 2 1  00-600000000460008
0060E8018P0511000024              11 2 1  00-400000000240004
0060E8019P0499000063              11 2 1  00-300000200530011
0060E9001P0402000033              11 2 1  000100000000250007
0060E9002P0133000008              11 2 1  000000000000070001
0060E9003P0079000006              11 2 1  000100000000040001
0060E9004P0460000020              11 2 1  00-200000000150007
0060E9005P0149000013              11 2 1  00-200000000120003
0060E9006P0085000005              11 2 1  000000000000050000
0060E9007P0502000023              11 2 1  00-200000000220003
0060E9008P0313000021              11 2 1  00-300000000200004
0060E9009P0235000014              11 2 1  00-300000000160001
0060E9010P0102000013              11 2 1  00-100000000120002
0060E9011P0437000064              11 2 1  00-600000000620008
0060E9012P0593000074              11 2 1  00-800300000650014
0060E9013P0378000017              11 2 1  00-300000000160004
0060E9014P0537000027              11 2 1  00-300000000280002
0060E9015P0051000002              11 2 1  000000000000020000
0060E9016P0338000026              11 2 1  00-200000000230005
0060E9017P0649000029              11 2 1  00-400000000300003
0060E9018P0175000009              11 2 1  00-400000000100003
0060E9019P0522000044              11 2 1  00-500000000430006
0060E9020P0674000032              11 2 1  00-100000000300003
0060E9021P0265000016              11 2 1  000000000000120004
0060E9022P0385000015              11 2 1  00-300100000150002
